{
  "contractName": "Admined",
  "abi": [
    {
      "constant": true,
      "inputs": [
        {
          "name": "",
          "type": "address"
        }
      ],
      "name": "admins",
      "outputs": [
        {
          "name": "",
          "type": "bool"
        }
      ],
      "payable": false,
      "stateMutability": "view",
      "type": "function"
    },
    {
      "constant": false,
      "inputs": [],
      "name": "acceptOwnership",
      "outputs": [],
      "payable": false,
      "stateMutability": "nonpayable",
      "type": "function"
    },
    {
      "constant": true,
      "inputs": [],
      "name": "owner",
      "outputs": [
        {
          "name": "",
          "type": "address"
        }
      ],
      "payable": false,
      "stateMutability": "view",
      "type": "function"
    },
    {
      "constant": true,
      "inputs": [],
      "name": "newOwner",
      "outputs": [
        {
          "name": "",
          "type": "address"
        }
      ],
      "payable": false,
      "stateMutability": "view",
      "type": "function"
    },
    {
      "constant": false,
      "inputs": [
        {
          "name": "_newOwner",
          "type": "address"
        }
      ],
      "name": "transferOwnership",
      "outputs": [],
      "payable": false,
      "stateMutability": "nonpayable",
      "type": "function"
    },
    {
      "anonymous": false,
      "inputs": [
        {
          "indexed": false,
          "name": "addr",
          "type": "address"
        }
      ],
      "name": "AdminAdded",
      "type": "event"
    },
    {
      "anonymous": false,
      "inputs": [
        {
          "indexed": false,
          "name": "addr",
          "type": "address"
        }
      ],
      "name": "AdminRemoved",
      "type": "event"
    },
    {
      "anonymous": false,
      "inputs": [
        {
          "indexed": true,
          "name": "_from",
          "type": "address"
        },
        {
          "indexed": true,
          "name": "_to",
          "type": "address"
        }
      ],
      "name": "OwnershipTransferred",
      "type": "event"
    },
    {
      "constant": true,
      "inputs": [
        {
          "name": "addr",
          "type": "address"
        }
      ],
      "name": "isAdmin",
      "outputs": [
        {
          "name": "",
          "type": "bool"
        }
      ],
      "payable": false,
      "stateMutability": "view",
      "type": "function"
    },
    {
      "constant": false,
      "inputs": [
        {
          "name": "addr",
          "type": "address"
        }
      ],
      "name": "addAdmin",
      "outputs": [],
      "payable": false,
      "stateMutability": "nonpayable",
      "type": "function"
    },
    {
      "constant": false,
      "inputs": [
        {
          "name": "addr",
          "type": "address"
        }
      ],
      "name": "removeAdmin",
      "outputs": [],
      "payable": false,
      "stateMutability": "nonpayable",
      "type": "function"
    }
  ],
  "bytecode": "0x608060405260008054600160a060020a031916331790556104ce806100256000396000f30060806040526004361061008d5763ffffffff7c01000000000000000000000000000000000000000000000000000000006000350416631785f53c811461009257806324d7806c146100b4578063429b62e5146100ea578063704802751461010a57806379ba50971461012a5780638da5cb5b1461013f578063d4ee1d9014610161578063f2fde38b14610176575b600080fd5b34801561009e57600080fd5b506100b26100ad366004610429565b610196565b005b3480156100c057600080fd5b506100d46100cf366004610429565b61022f565b6040516100e19190610475565b60405180910390f35b3480156100f657600080fd5b506100d4610105366004610429565b610269565b34801561011657600080fd5b506100b2610125366004610429565b61027e565b34801561013657600080fd5b506100b261032a565b34801561014b57600080fd5b506101546103b2565b6040516100e19190610467565b34801561016d57600080fd5b506101546103c1565b34801561018257600080fd5b506100b2610191366004610429565b6103d0565b600054600160a060020a031633146101ad57600080fd5b600160a060020a03811660009081526002602052604090205460ff1615156101d457600080fd5b600160a060020a03811660009081526002602052604090819020805460ff19169055517fa3b62bc36326052d97ea62d63c3d60308ed4c3ea8ac079dd8499f1e9c4f80c0f90610224908390610467565b60405180910390a150565b600160a060020a03811660009081526002602052604081205460ff16806102635750600054600160a060020a038381169116145b92915050565b60026020526000908152604090205460ff1681565b600054600160a060020a0316331461029557600080fd5b600160a060020a03811660009081526002602052604090205460ff161580156102cc5750600054600160a060020a03828116911614155b15156102d757600080fd5b600160a060020a03811660009081526002602052604090819020805460ff19166001179055517f44d6d25963f097ad14f29f06854a01f575648a1ef82f30e562ccd3889717e33990610224908390610467565b600154600160a060020a0316331461034157600080fd5b60015460008054604051600160a060020a0393841693909116917f8be0079c531659141344cd1fd0a4f28419497f9722a3daafe3b4186f6b6457e091a3600180546000805473ffffffffffffffffffffffffffffffffffffffff19908116600160a060020a03841617909155169055565b600054600160a060020a031681565b600154600160a060020a031681565b600054600160a060020a031633146103e757600080fd5b6001805473ffffffffffffffffffffffffffffffffffffffff1916600160a060020a0392909216919091179055565b60006104228235610483565b9392505050565b60006020828403121561043b57600080fd5b60006104478484610416565b949350505050565b61045881610483565b82525050565b6104588161048f565b60208101610263828461044f565b60208101610263828461045e565b600160a060020a031690565b1515905600a265627a7a723058206b5a6fb473ab764bee05d787abb638c782b7881c59a8eec020b27545235464ce6c6578706572696d656e74616cf50037",
  "source": "pragma solidity ^0.4.17;\npragma experimental ABIEncoderV2;\n\n// ----------------------------------------------------------------------------\n// Devery Contracts - The Monolithic Registry\n//\n// Deployed to Ropsten Testnet at 0x654f4a3e3B7573D6b4bB7201AB70d718961765CD\n//\n// Enjoy.\n//\n// (c) BokkyPooBah / Bok Consulting Pty Ltd for Devery 2017. The MIT Licence.\n// ----------------------------------------------------------------------------\n\n\n// ----------------------------------------------------------------------------\n// ERC Token Standard #20 Interface\n// https://github.com/ethereum/EIPs/blob/master/EIPS/eip-20-token-standard.md\n// ----------------------------------------------------------------------------\ncontract ERC20Interface {\n    function totalSupply() public constant returns (uint);\n    function balanceOf(address tokenOwner) public constant returns (uint balance);\n    function allowance(address tokenOwner, address spender) public constant returns (uint remaining);\n    function transfer(address to, uint tokens) public returns (bool success);\n    function approve(address spender, uint tokens) public returns (bool success);\n    function transferFrom(address from, address to, uint tokens) public returns (bool success);\n\n    event Transfer(address indexed from, address indexed to, uint tokens);\n    event Approval(address indexed tokenOwner, address indexed spender, uint tokens);\n}\n\n\n// ----------------------------------------------------------------------------\n// Owned contract\n// ----------------------------------------------------------------------------\ncontract Owned {\n\n    address public owner;\n    address public newOwner;\n\n    event OwnershipTransferred(address indexed _from, address indexed _to);\n\n    modifier onlyOwner {\n        require(msg.sender == owner);\n        _;\n    }\n\n    function Owned() public {\n        owner = msg.sender;\n    }\n    function transferOwnership(address _newOwner) public onlyOwner {\n        newOwner = _newOwner;\n    }\n    function acceptOwnership() public {\n        require(msg.sender == newOwner);\n        OwnershipTransferred(owner, newOwner);\n        owner = newOwner;\n        newOwner = 0x0;\n    }\n}\n\n\n// ----------------------------------------------------------------------------\n// Administrators\n// ----------------------------------------------------------------------------\ncontract Admined is Owned {\n\n    mapping (address => bool) public admins;\n\n    event AdminAdded(address addr);\n    event AdminRemoved(address addr);\n\n    modifier onlyAdmin() {\n        require(isAdmin(msg.sender));\n        _;\n    }\n\n    function isAdmin(address addr) public constant returns (bool) {\n        return (admins[addr] || owner == addr);\n    }\n    function addAdmin(address addr) public onlyOwner {\n        require(!admins[addr] && addr != owner);\n        admins[addr] = true;\n        AdminAdded(addr);\n    }\n    function removeAdmin(address addr) public onlyOwner {\n        require(admins[addr]);\n        delete admins[addr];\n        AdminRemoved(addr);\n    }\n}\n\n\n// ----------------------------------------------------------------------------\n// Devery Registry\n// ----------------------------------------------------------------------------\ncontract DeveryRegistry is Admined {\n\n    struct App {\n        address appAccount;\n        string appName;\n        address feeAccount;\n        uint fee;\n        bool active;\n    }\n    struct Brand {\n        address brandAccount;\n        address appAccount;\n        string brandName;\n        bool active;\n    }\n    struct Product {\n        address productAccount;\n        address brandAccount;\n        string description;\n        string details;\n        uint year;\n        string origin;\n        bool active;\n    }\n\n    ERC20Interface public token;\n    address public feeAccount;\n    uint public fee;\n    mapping(address => App) public apps;\n    mapping(address => Brand) public brands;\n    mapping(address => Product) public products;\n    mapping(address => mapping(address => bool)) permissions;\n    mapping(bytes32 => address) markings;\n    address[] public appAccounts;\n    address[] public brandAccounts;\n    address[] public productAccounts;\n\n    event TokenUpdated(address indexed oldToken, address indexed newToken);\n    event FeeUpdated(address indexed oldFeeAccount, address indexed newFeeAccount, uint oldFee, uint newFee);\n    event AppAdded(address indexed appAccount, string appName, address feeAccount, uint fee, bool active);\n    event AppUpdated(address indexed appAccount, string appName, address feeAccount, uint fee, bool active);\n    event BrandAdded(address indexed brandAccount, address indexed appAccount, string brandName, bool active);\n    event BrandUpdated(address indexed brandAccount, address indexed appAccount, string brandName, bool active);\n    event ProductAdded(address indexed productAccount, address indexed brandAccount, address indexed appAccount, string description, bool active);\n    event ProductUpdated(address indexed productAccount, address indexed brandAccount, address indexed appAccount, string description, bool active);\n    event Permissioned(address indexed marker, address indexed brandAccount, bool permission);\n    event Marked(address indexed marker, address indexed productAccount, address appFeeAccount, address feeAccount, uint appFee, uint fee, bytes32 itemHash);\n\n\n    // ------------------------------------------------------------------------\n    // Token, fee account and fee\n    // ------------------------------------------------------------------------\n    function setToken(address _token) public onlyAdmin {\n        TokenUpdated(address(token), _token);\n        token = ERC20Interface(_token);\n    }\n    function setFee(address _feeAccount, uint _fee) public onlyAdmin {\n        FeeUpdated(feeAccount, _feeAccount, fee, _fee);\n        feeAccount = _feeAccount;\n        fee = _fee;\n    }\n\n    // ------------------------------------------------------------------------\n    // Account can add itself as an App account\n    // ------------------------------------------------------------------------\n    function addApp(string appName, address _feeAccount, uint _fee) public {\n        App storage e = apps[msg.sender];\n        require(e.appAccount == address(0));\n        apps[msg.sender] = App({\n            appAccount: msg.sender,\n            appName: appName,\n            feeAccount: _feeAccount,\n            fee: _fee,\n            active: true\n        });\n        appAccounts.push(msg.sender);\n        AppAdded(msg.sender, appName, _feeAccount, _fee, true);\n    }\n    function updateApp(string appName, address _feeAccount, uint _fee, bool active) public {\n        App storage e = apps[msg.sender];\n        require(msg.sender == e.appAccount);\n        e.appName = appName;\n        e.feeAccount = _feeAccount;\n        e.fee = _fee;\n        e.active = active;\n        AppUpdated(msg.sender, appName, _feeAccount, _fee, active);\n    }\n    function getApp(address appAccount) public constant returns (App app) {\n        app = apps[appAccount];\n    }\n    function getAppData(address appAccount) public constant returns (address _feeAccount, uint _fee, bool active) {\n        App storage e = apps[appAccount];\n        _feeAccount = e.feeAccount;\n        _fee = e.fee;\n        active = e.active;\n    }\n    function appAccountsLength() public constant returns (uint) {\n        return appAccounts.length;\n    }\n\n    // ------------------------------------------------------------------------\n    // App account can add Brand account\n    // ------------------------------------------------------------------------\n    function addBrand(address brandAccount, string brandName) public {\n        App storage app = apps[msg.sender];\n        require(app.appAccount != address(0));\n        Brand storage brand = brands[brandAccount];\n        require(brand.brandAccount == address(0));\n        brands[brandAccount] = Brand({\n            brandAccount: brandAccount,\n            appAccount: msg.sender,\n            brandName: brandName,\n            active: true\n        });\n        brandAccounts.push(brandAccount);\n        BrandAdded(brandAccount, msg.sender, brandName, true);\n    }\n    function updateBrand(address brandAccount, string brandName, bool active) public {\n        Brand storage brand = brands[brandAccount];\n        require(brand.appAccount == msg.sender);\n        brand.brandName = brandName;\n        brand.active = active;\n\n        BrandUpdated(brandAccount, msg.sender, brandName, active);\n    }\n    function getBrand(address brandAccount) public constant returns (Brand brand) {\n        brand = brands[brandAccount];\n    }\n    function getBrandData(address brandAccount) public constant returns (address appAccount, address appFeeAccount, bool active) {\n        Brand storage brand = brands[brandAccount];\n        require(brand.appAccount != address(0));\n        App storage app = apps[brand.appAccount];\n        require(app.appAccount != address(0));\n        appAccount = app.appAccount;\n        appFeeAccount = app.feeAccount;\n        active = app.active && brand.active;\n    }\n    function brandAccountsLength() public constant returns (uint) {\n        return brandAccounts.length;\n    }\n\n    // ------------------------------------------------------------------------\n    // Brand account can add Product account\n    // ------------------------------------------------------------------------\n    function addProduct(address productAccount, string description, string details, uint year, string origin) public {\n        Brand storage brand = brands[msg.sender];\n        require(brand.brandAccount != address(0),\"brand account is not valid\");\n        App storage app = apps[brand.appAccount];\n        require(app.appAccount != address(0),\"app account is not valid\");\n        Product storage product = products[productAccount];\n        require(product.productAccount == address(0),\"product account is not valid\");\n        products[productAccount] = Product({\n            productAccount: productAccount,\n            brandAccount: msg.sender,\n            description: description,\n            details: details,\n            year: year,\n            origin: origin,\n            active: true\n        });\n        productAccounts.push(productAccount);\n        ProductAdded(productAccount, msg.sender, app.appAccount, description, true);\n    }\n    function updateProduct(address productAccount, string description, string details, uint year, string origin, bool active) public {\n        Product storage product = products[productAccount];\n        require(product.brandAccount == msg.sender);\n        Brand storage brand = brands[msg.sender];\n        require(brand.brandAccount == msg.sender);\n        App storage app = apps[brand.appAccount];\n        product.description = description;\n        product.details = details;\n        product.year = year;\n        product.origin = origin;\n        product.active = active;\n        ProductUpdated(productAccount, product.brandAccount, app.appAccount, description, active);\n    }\n    function getProduct(address productAccount) public constant returns (Product product) {\n        product = products[productAccount];\n    }\n    function getProductData(address productAccount) public constant returns (address brandAccount, address appAccount, address appFeeAccount, bool active) {\n        Product storage product = products[productAccount];\n        require(product.brandAccount != address(0));\n        Brand storage brand = brands[brandAccount];\n        require(brand.appAccount != address(0));\n        App storage app = apps[brand.appAccount];\n        require(app.appAccount != address(0));\n        brandAccount = product.brandAccount;\n        appAccount = app.appAccount;\n        appFeeAccount = app.feeAccount;\n        active = app.active && brand.active && brand.active;\n    }\n    function productAccountsLength() public constant returns (uint) {\n        return productAccounts.length;\n    }\n\n    // ------------------------------------------------------------------------\n    // Brand account can permission accounts as markers\n    // ------------------------------------------------------------------------\n    function permissionMarker(address marker, bool permission) public {\n        Brand storage brand = brands[msg.sender];\n        require(brand.brandAccount != address(0));\n        permissions[marker][msg.sender] = permission;\n        Permissioned(marker, msg.sender, permission);\n    }\n\n    // ------------------------------------------------------------------------\n    // Compute item hash from the public key\n    // ------------------------------------------------------------------------\n    function addressHash(address item) public pure returns (bytes32 hash) {\n        hash = keccak256(item);\n    }\n\n    // ------------------------------------------------------------------------\n    // Markers can add [productAccount, sha3(itemPublicKey)]\n    // ------------------------------------------------------------------------\n    function mark(address productAccount, bytes32 itemHash) public {\n        Product storage product = products[productAccount];\n        require(product.brandAccount != address(0) && product.active);\n        Brand storage brand = brands[product.brandAccount];\n        require(brand.brandAccount != address(0) && brand.active);\n        App storage app = apps[brand.appAccount];\n        require(app.appAccount != address(0) && app.active);\n        bool permissioned = permissions[msg.sender][brand.brandAccount];\n        require(permissioned);\n        markings[itemHash] = productAccount;\n        Marked(msg.sender, productAccount, app.feeAccount, feeAccount, app.fee, fee, itemHash);\n        if (app.fee > 0) {\n            token.transferFrom(brand.brandAccount, app.feeAccount, app.fee);\n        }\n        if (fee > 0) {\n            token.transferFrom(brand.brandAccount, feeAccount, fee);\n        }\n    }\n\n    // ------------------------------------------------------------------------\n    // Check itemPublicKey has been registered\n    // ------------------------------------------------------------------------\n    function check(address item) public constant returns (address productAccount, address brandAccount, address appAccount) {\n        bytes32 hash = keccak256(item);\n        productAccount = markings[hash];\n        // require(productAccount != address(0));\n        Product storage product = products[productAccount];\n        // require(product.brandAccount != address(0));\n        Brand storage brand = brands[product.brandAccount];\n        // require(brand.brandAccount != address(0));\n        brandAccount = product.brandAccount;\n        appAccount = brand.appAccount;\n    }\n}\n",
  "sourcePath": "/Users/victor/Documents/projects/js/deveryjs/contracts/v4/DeveryRegistry.sol",
  "compiler": {
    "name": "solc",
    "version": "0.4.26+commit.4563c3fc.Emscripten.clang"
  },
  "schemaVersion": "3.4.0",
  "updatedAt": "2021-06-03T15:23:48.829Z",
  "devdoc": {
    "methods": {}
  },
  "userdoc": {
    "methods": {}
  }
}