{
  "contractName": "DeveryTrust",
  "abi": [
    {
      "constant": false,
      "inputs": [
        {
          "name": "addr",
          "type": "address"
        }
      ],
      "name": "removeAdmin",
      "outputs": [],
      "payable": false,
      "stateMutability": "nonpayable",
      "type": "function"
    },
    {
      "constant": true,
      "inputs": [
        {
          "name": "addr",
          "type": "address"
        }
      ],
      "name": "isAdmin",
      "outputs": [
        {
          "name": "",
          "type": "bool"
        }
      ],
      "payable": false,
      "stateMutability": "view",
      "type": "function"
    },
    {
      "constant": true,
      "inputs": [
        {
          "name": "",
          "type": "address"
        }
      ],
      "name": "admins",
      "outputs": [
        {
          "name": "",
          "type": "bool"
        }
      ],
      "payable": false,
      "stateMutability": "view",
      "type": "function"
    },
    {
      "constant": false,
      "inputs": [
        {
          "name": "addr",
          "type": "address"
        }
      ],
      "name": "addAdmin",
      "outputs": [],
      "payable": false,
      "stateMutability": "nonpayable",
      "type": "function"
    },
    {
      "constant": false,
      "inputs": [],
      "name": "acceptOwnership",
      "outputs": [],
      "payable": false,
      "stateMutability": "nonpayable",
      "type": "function"
    },
    {
      "constant": true,
      "inputs": [],
      "name": "owner",
      "outputs": [
        {
          "name": "",
          "type": "address"
        }
      ],
      "payable": false,
      "stateMutability": "view",
      "type": "function"
    },
    {
      "constant": true,
      "inputs": [],
      "name": "newOwner",
      "outputs": [
        {
          "name": "",
          "type": "address"
        }
      ],
      "payable": false,
      "stateMutability": "view",
      "type": "function"
    },
    {
      "constant": false,
      "inputs": [
        {
          "name": "_newOwner",
          "type": "address"
        }
      ],
      "name": "transferOwnership",
      "outputs": [],
      "payable": false,
      "stateMutability": "nonpayable",
      "type": "function"
    },
    {
      "anonymous": false,
      "inputs": [
        {
          "indexed": false,
          "name": "approver",
          "type": "address"
        },
        {
          "indexed": false,
          "name": "brandKey",
          "type": "address"
        }
      ],
      "name": "Approve",
      "type": "event"
    },
    {
      "anonymous": false,
      "inputs": [
        {
          "indexed": false,
          "name": "revoker",
          "type": "address"
        },
        {
          "indexed": false,
          "name": "brandKey",
          "type": "address"
        }
      ],
      "name": "Revoke",
      "type": "event"
    },
    {
      "anonymous": false,
      "inputs": [
        {
          "indexed": false,
          "name": "addr",
          "type": "address"
        }
      ],
      "name": "AdminAdded",
      "type": "event"
    },
    {
      "anonymous": false,
      "inputs": [
        {
          "indexed": false,
          "name": "addr",
          "type": "address"
        }
      ],
      "name": "AdminRemoved",
      "type": "event"
    },
    {
      "anonymous": false,
      "inputs": [
        {
          "indexed": true,
          "name": "_from",
          "type": "address"
        },
        {
          "indexed": true,
          "name": "_to",
          "type": "address"
        }
      ],
      "name": "OwnershipTransferred",
      "type": "event"
    },
    {
      "constant": false,
      "inputs": [
        {
          "name": "approverAddress",
          "type": "address"
        }
      ],
      "name": "addAproverAsAdmin",
      "outputs": [],
      "payable": false,
      "stateMutability": "nonpayable",
      "type": "function"
    },
    {
      "constant": false,
      "inputs": [
        {
          "name": "approverAddress",
          "type": "address"
        }
      ],
      "name": "revokeAproverAsAdmin",
      "outputs": [],
      "payable": false,
      "stateMutability": "nonpayable",
      "type": "function"
    },
    {
      "constant": false,
      "inputs": [
        {
          "name": "approverAddress",
          "type": "address"
        }
      ],
      "name": "addApprover",
      "outputs": [],
      "payable": false,
      "stateMutability": "nonpayable",
      "type": "function"
    },
    {
      "constant": false,
      "inputs": [
        {
          "name": "approverAddress",
          "type": "address"
        }
      ],
      "name": "revokeAprover",
      "outputs": [],
      "payable": false,
      "stateMutability": "nonpayable",
      "type": "function"
    },
    {
      "constant": true,
      "inputs": [
        {
          "name": "addr",
          "type": "address"
        }
      ],
      "name": "isApprover",
      "outputs": [
        {
          "name": "",
          "type": "bool"
        }
      ],
      "payable": false,
      "stateMutability": "view",
      "type": "function"
    },
    {
      "constant": false,
      "inputs": [
        {
          "name": "brandKey",
          "type": "address"
        }
      ],
      "name": "approve",
      "outputs": [],
      "payable": false,
      "stateMutability": "nonpayable",
      "type": "function"
    },
    {
      "constant": false,
      "inputs": [
        {
          "name": "brandKey",
          "type": "address"
        }
      ],
      "name": "revoke",
      "outputs": [],
      "payable": false,
      "stateMutability": "nonpayable",
      "type": "function"
    },
    {
      "constant": true,
      "inputs": [
        {
          "name": "approver",
          "type": "address"
        },
        {
          "name": "brandKey",
          "type": "address"
        }
      ],
      "name": "check",
      "outputs": [
        {
          "name": "",
          "type": "bool"
        }
      ],
      "payable": false,
      "stateMutability": "view",
      "type": "function"
    },
    {
      "constant": true,
      "inputs": [
        {
          "name": "brandKey",
          "type": "address"
        }
      ],
      "name": "checkBrand",
      "outputs": [
        {
          "name": "",
          "type": "bool"
        }
      ],
      "payable": false,
      "stateMutability": "view",
      "type": "function"
    }
  ],
  "bytecode": "0x608060405260008054600160a060020a03191633179055610a05806100256000396000f3006080604052600436106100f05763ffffffff7c01000000000000000000000000000000000000000000000000000000006000350416631785f53c81146100f557806324d7806c14610118578063428aec351461014d578063429b62e51461016e57806359a1d4711461018f5780636d218e48146101b057806370480275146101d157806374a8f103146101f257806379ba5097146102135780638da5cb5b14610228578063b3154db014610259578063b646c19414610280578063d1d2087d146102a1578063d4ee1d90146102c2578063daea85c5146102d7578063f2fde38b146102f8578063fa89035014610319575b600080fd5b34801561010157600080fd5b50610116600160a060020a036004351661033a565b005b34801561012457600080fd5b50610139600160a060020a03600435166103d0565b604080519115158252519081900360200190f35b34801561015957600080fd5b50610116600160a060020a036004351661040a565b34801561017a57600080fd5b50610139600160a060020a036004351661043f565b34801561019b57600080fd5b50610116600160a060020a0360043516610454565b3480156101bc57600080fd5b50610139600160a060020a036004351661048c565b3480156101dd57600080fd5b50610116600160a060020a03600435166104aa565b3480156101fe57600080fd5b50610116600160a060020a036004351661055e565b34801561021f57600080fd5b5061011661066b565b34801561023457600080fd5b5061023d6106f3565b60408051600160a060020a039092168252519081900360200190f35b34801561026557600080fd5b50610139600160a060020a0360043581169060243516610702565b34801561028c57600080fd5b50610116600160a060020a0360043516610730565b3480156102ad57600080fd5b50610116600160a060020a03600435166107c2565b3480156102ce57600080fd5b5061023d610854565b3480156102e357600080fd5b50610116600160a060020a0360043516610863565b34801561030457600080fd5b50610116600160a060020a0360043516610975565b34801561032557600080fd5b50610139600160a060020a03600435166109bb565b600054600160a060020a0316331461035157600080fd5b600160a060020a03811660009081526002602052604090205460ff16151561037857600080fd5b600160a060020a038116600081815260026020908152604091829020805460ff19169055815192835290517fa3b62bc36326052d97ea62d63c3d60308ed4c3ea8ac079dd8499f1e9c4f80c0f9281900390910190a150565b600160a060020a03811660009081526002602052604081205460ff16806104045750600054600160a060020a038381169116145b92915050565b610413336103d0565b151561041e57600080fd5b600160a060020a03166000908152600560205260409020805460ff19169055565b60026020526000908152604090205460ff1681565b61045d336103d0565b151561046857600080fd5b600160a060020a03166000908152600560205260409020805460ff19166001179055565b600160a060020a031660009081526005602052604090205460ff1690565b600054600160a060020a031633146104c157600080fd5b600160a060020a03811660009081526002602052604090205460ff161580156104f85750600054600160a060020a03828116911614155b151561050357600080fd5b600160a060020a038116600081815260026020908152604091829020805460ff19166001179055815192835290517f44d6d25963f097ad14f29f06854a01f575648a1ef82f30e562ccd3889717e3399281900390910190a150565b3360009081526005602052604090205460ff1615156001146105f0576040805160e560020a62461bcd02815260206004820152603160248201527f596f7520617265206e6f7420617574686f72697a656420746f207265766f6b6560448201527f206272616e647320617070726f76616c73000000000000000000000000000000606482015290519081900360840190fd5b336000818152600360209081526040808320600160a060020a038616808552908352818420805460ff199081169091556004845293829020805490941690935580519384529083019190915280517fd7426110292f20fe59e73ccf52124e0f5440a756507c91c7b0a6c50e1eb1a23a9281900390910190a150565b600154600160a060020a0316331461068257600080fd5b60015460008054604051600160a060020a0393841693909116917f8be0079c531659141344cd1fd0a4f28419497f9722a3daafe3b4186f6b6457e091a3600180546000805473ffffffffffffffffffffffffffffffffffffffff19908116600160a060020a03841617909155169055565b600054600160a060020a031681565b600160a060020a03918216600090815260036020908152604080832093909416825291909152205460ff1690565b3360009081526005602052604090205460ff161515600114610468576040805160e560020a62461bcd02815260206004820152602760248201527f596f7520617265206e6f7420617574686f72697a656420746f2061646420617060448201527f70726f7665727300000000000000000000000000000000000000000000000000606482015290519081900360840190fd5b3360009081526005602052604090205460ff16151560011461041e576040805160e560020a62461bcd02815260206004820152602a60248201527f596f7520617265206e6f7420617574686f72697a656420746f207265766f6b6560448201527f20617070726f7665727300000000000000000000000000000000000000000000606482015290519081900360840190fd5b600154600160a060020a031681565b3360009081526005602052604090205460ff1615156001146108f5576040805160e560020a62461bcd02815260206004820152602560248201527f596f7520617265206e6f7420617574686f72697a656420617070726f7665206260448201527f72616e6473000000000000000000000000000000000000000000000000000000606482015290519081900360840190fd5b336000818152600360209081526040808320600160a060020a0386168085529083528184208054600160ff199182168117909255600485529483902080549095161790935580519384529083019190915280517f3ce2da1daf10aa0a28578b70fe768ed2f390a3da82445358f9346fbc2981f6fd9281900390910190a150565b600054600160a060020a0316331461098c57600080fd5b6001805473ffffffffffffffffffffffffffffffffffffffff1916600160a060020a0392909216919091179055565b600160a060020a031660009081526004602052604090205460ff16905600a165627a7a72305820970e926f21784aaa128de56a93c2a6d1ee05c3e1bd2c88550a9b98614dc5617e0029",
  "source": "pragma solidity ^0.4.18;\n\nimport \"./DeveryRegistry.sol\";\n\n\n\ncontract DeveryTrust is Admined {\n    mapping(address => mapping(address => bool)) approval;\n    mapping(address => bool) brandApprovals;\n    mapping(address => bool) authorizedApprovers;\n    event Approve(address approver, address brandKey);\n    event Revoke(address revoker, address brandKey);\n\n    function addAproverAsAdmin(address approverAddress) public onlyAdmin{\n        authorizedApprovers[approverAddress] = true;\n    }\n\n    function revokeAproverAsAdmin(address approverAddress) public onlyAdmin{\n        authorizedApprovers[approverAddress] = false;\n    }\n\n    function addApprover(address approverAddress) public {\n        require(authorizedApprovers[msg.sender] == true,\"You are not authorized to add approvers\");\n        authorizedApprovers[approverAddress] = true;\n    }\n\n    function revokeAprover(address approverAddress) public{\n        require(authorizedApprovers[msg.sender] == true, \"You are not authorized to revoke approvers\");\n        authorizedApprovers[approverAddress] = false;\n    }\n\n    function isApprover(address addr) public constant returns (bool){\n        return authorizedApprovers[addr];\n    }\n\n\n    function approve(address brandKey) public {\n        require(authorizedApprovers[msg.sender] == true, \"You are not authorized approve brands\");\n        approval[msg.sender][brandKey] = true;\n        brandApprovals[brandKey] = true;\n        Approve(msg.sender, brandKey);\n    }\n\n    function revoke(address brandKey) public {\n        require(authorizedApprovers[msg.sender] == true, \"You are not authorized to revoke brands approvals\");\n        approval[msg.sender][brandKey] = false;\n        brandApprovals[brandKey] = false;\n        Revoke(msg.sender, brandKey);\n    }\n\n    function check(address approver, address brandKey) public constant returns (bool) {\n        return approval[approver][brandKey];\n    }\n\n    function checkBrand(address brandKey) public constant returns (bool) {\n        return brandApprovals[brandKey];\n    }\n}\n",
  "sourcePath": "/Users/victor/Documents/projects/js/deveryjs/contracts/DeveryTrust.sol",
  "compiler": {
    "name": "solc",
    "version": "0.4.26+commit.4563c3fc.Emscripten.clang"
  },
  "schemaVersion": "2.0.3",
  "updatedAt": "2020-02-11T10:46:16.985Z"
}