{
  "contractName": "DeveryRegistry",
  "abi": [
    {
      "constant": true,
      "inputs": [
        {
          "name": "",
          "type": "uint256"
        }
      ],
      "name": "brandAccounts",
      "outputs": [
        {
          "name": "",
          "type": "address"
        }
      ],
      "payable": false,
      "stateMutability": "view",
      "type": "function"
    },
    {
      "constant": true,
      "inputs": [
        {
          "name": "",
          "type": "address"
        }
      ],
      "name": "apps",
      "outputs": [
        {
          "name": "appAccount",
          "type": "address"
        },
        {
          "name": "appName",
          "type": "string"
        },
        {
          "name": "feeAccount",
          "type": "address"
        },
        {
          "name": "fee",
          "type": "uint256"
        },
        {
          "name": "active",
          "type": "bool"
        }
      ],
      "payable": false,
      "stateMutability": "view",
      "type": "function"
    },
    {
      "constant": false,
      "inputs": [
        {
          "name": "addr",
          "type": "address"
        }
      ],
      "name": "removeAdmin",
      "outputs": [],
      "payable": false,
      "stateMutability": "nonpayable",
      "type": "function"
    },
    {
      "constant": true,
      "inputs": [
        {
          "name": "addr",
          "type": "address"
        }
      ],
      "name": "isAdmin",
      "outputs": [
        {
          "name": "",
          "type": "bool"
        }
      ],
      "payable": false,
      "stateMutability": "view",
      "type": "function"
    },
    {
      "constant": true,
      "inputs": [
        {
          "name": "",
          "type": "uint256"
        }
      ],
      "name": "productAccounts",
      "outputs": [
        {
          "name": "",
          "type": "address"
        }
      ],
      "payable": false,
      "stateMutability": "view",
      "type": "function"
    },
    {
      "constant": true,
      "inputs": [
        {
          "name": "",
          "type": "address"
        }
      ],
      "name": "admins",
      "outputs": [
        {
          "name": "",
          "type": "bool"
        }
      ],
      "payable": false,
      "stateMutability": "view",
      "type": "function"
    },
    {
      "constant": true,
      "inputs": [
        {
          "name": "",
          "type": "uint256"
        }
      ],
      "name": "appAccounts",
      "outputs": [
        {
          "name": "",
          "type": "address"
        }
      ],
      "payable": false,
      "stateMutability": "view",
      "type": "function"
    },
    {
      "constant": true,
      "inputs": [
        {
          "name": "",
          "type": "address"
        }
      ],
      "name": "brands",
      "outputs": [
        {
          "name": "brandAccount",
          "type": "address"
        },
        {
          "name": "appAccount",
          "type": "address"
        },
        {
          "name": "brandName",
          "type": "string"
        },
        {
          "name": "active",
          "type": "bool"
        }
      ],
      "payable": false,
      "stateMutability": "view",
      "type": "function"
    },
    {
      "constant": true,
      "inputs": [],
      "name": "feeAccount",
      "outputs": [
        {
          "name": "",
          "type": "address"
        }
      ],
      "payable": false,
      "stateMutability": "view",
      "type": "function"
    },
    {
      "constant": false,
      "inputs": [
        {
          "name": "addr",
          "type": "address"
        }
      ],
      "name": "addAdmin",
      "outputs": [],
      "payable": false,
      "stateMutability": "nonpayable",
      "type": "function"
    },
    {
      "constant": true,
      "inputs": [
        {
          "name": "",
          "type": "address"
        }
      ],
      "name": "products",
      "outputs": [
        {
          "name": "productAccount",
          "type": "address"
        },
        {
          "name": "brandAccount",
          "type": "address"
        },
        {
          "name": "description",
          "type": "string"
        },
        {
          "name": "details",
          "type": "string"
        },
        {
          "name": "year",
          "type": "uint256"
        },
        {
          "name": "origin",
          "type": "string"
        },
        {
          "name": "active",
          "type": "bool"
        }
      ],
      "payable": false,
      "stateMutability": "view",
      "type": "function"
    },
    {
      "constant": false,
      "inputs": [],
      "name": "acceptOwnership",
      "outputs": [],
      "payable": false,
      "stateMutability": "nonpayable",
      "type": "function"
    },
    {
      "constant": true,
      "inputs": [],
      "name": "owner",
      "outputs": [
        {
          "name": "",
          "type": "address"
        }
      ],
      "payable": false,
      "stateMutability": "view",
      "type": "function"
    },
    {
      "constant": true,
      "inputs": [],
      "name": "newOwner",
      "outputs": [
        {
          "name": "",
          "type": "address"
        }
      ],
      "payable": false,
      "stateMutability": "view",
      "type": "function"
    },
    {
      "constant": true,
      "inputs": [],
      "name": "fee",
      "outputs": [
        {
          "name": "",
          "type": "uint256"
        }
      ],
      "payable": false,
      "stateMutability": "view",
      "type": "function"
    },
    {
      "constant": false,
      "inputs": [
        {
          "name": "_newOwner",
          "type": "address"
        }
      ],
      "name": "transferOwnership",
      "outputs": [],
      "payable": false,
      "stateMutability": "nonpayable",
      "type": "function"
    },
    {
      "constant": true,
      "inputs": [],
      "name": "token",
      "outputs": [
        {
          "name": "",
          "type": "address"
        }
      ],
      "payable": false,
      "stateMutability": "view",
      "type": "function"
    },
    {
      "anonymous": false,
      "inputs": [
        {
          "indexed": true,
          "name": "oldToken",
          "type": "address"
        },
        {
          "indexed": true,
          "name": "newToken",
          "type": "address"
        }
      ],
      "name": "TokenUpdated",
      "type": "event"
    },
    {
      "anonymous": false,
      "inputs": [
        {
          "indexed": true,
          "name": "oldFeeAccount",
          "type": "address"
        },
        {
          "indexed": true,
          "name": "newFeeAccount",
          "type": "address"
        },
        {
          "indexed": false,
          "name": "oldFee",
          "type": "uint256"
        },
        {
          "indexed": false,
          "name": "newFee",
          "type": "uint256"
        }
      ],
      "name": "FeeUpdated",
      "type": "event"
    },
    {
      "anonymous": false,
      "inputs": [
        {
          "indexed": true,
          "name": "appAccount",
          "type": "address"
        },
        {
          "indexed": false,
          "name": "appName",
          "type": "string"
        },
        {
          "indexed": false,
          "name": "feeAccount",
          "type": "address"
        },
        {
          "indexed": false,
          "name": "fee",
          "type": "uint256"
        },
        {
          "indexed": false,
          "name": "active",
          "type": "bool"
        }
      ],
      "name": "AppAdded",
      "type": "event"
    },
    {
      "anonymous": false,
      "inputs": [
        {
          "indexed": true,
          "name": "appAccount",
          "type": "address"
        },
        {
          "indexed": false,
          "name": "appName",
          "type": "string"
        },
        {
          "indexed": false,
          "name": "feeAccount",
          "type": "address"
        },
        {
          "indexed": false,
          "name": "fee",
          "type": "uint256"
        },
        {
          "indexed": false,
          "name": "active",
          "type": "bool"
        }
      ],
      "name": "AppUpdated",
      "type": "event"
    },
    {
      "anonymous": false,
      "inputs": [
        {
          "indexed": true,
          "name": "brandAccount",
          "type": "address"
        },
        {
          "indexed": true,
          "name": "appAccount",
          "type": "address"
        },
        {
          "indexed": false,
          "name": "brandName",
          "type": "string"
        },
        {
          "indexed": false,
          "name": "active",
          "type": "bool"
        }
      ],
      "name": "BrandAdded",
      "type": "event"
    },
    {
      "anonymous": false,
      "inputs": [
        {
          "indexed": true,
          "name": "brandAccount",
          "type": "address"
        },
        {
          "indexed": true,
          "name": "appAccount",
          "type": "address"
        },
        {
          "indexed": false,
          "name": "brandName",
          "type": "string"
        },
        {
          "indexed": false,
          "name": "active",
          "type": "bool"
        }
      ],
      "name": "BrandUpdated",
      "type": "event"
    },
    {
      "anonymous": false,
      "inputs": [
        {
          "indexed": true,
          "name": "productAccount",
          "type": "address"
        },
        {
          "indexed": true,
          "name": "brandAccount",
          "type": "address"
        },
        {
          "indexed": true,
          "name": "appAccount",
          "type": "address"
        },
        {
          "indexed": false,
          "name": "description",
          "type": "string"
        },
        {
          "indexed": false,
          "name": "active",
          "type": "bool"
        }
      ],
      "name": "ProductAdded",
      "type": "event"
    },
    {
      "anonymous": false,
      "inputs": [
        {
          "indexed": true,
          "name": "productAccount",
          "type": "address"
        },
        {
          "indexed": true,
          "name": "brandAccount",
          "type": "address"
        },
        {
          "indexed": true,
          "name": "appAccount",
          "type": "address"
        },
        {
          "indexed": false,
          "name": "description",
          "type": "string"
        },
        {
          "indexed": false,
          "name": "active",
          "type": "bool"
        }
      ],
      "name": "ProductUpdated",
      "type": "event"
    },
    {
      "anonymous": false,
      "inputs": [
        {
          "indexed": true,
          "name": "marker",
          "type": "address"
        },
        {
          "indexed": true,
          "name": "brandAccount",
          "type": "address"
        },
        {
          "indexed": false,
          "name": "permission",
          "type": "bool"
        }
      ],
      "name": "Permissioned",
      "type": "event"
    },
    {
      "anonymous": false,
      "inputs": [
        {
          "indexed": true,
          "name": "marker",
          "type": "address"
        },
        {
          "indexed": true,
          "name": "productAccount",
          "type": "address"
        },
        {
          "indexed": false,
          "name": "appFeeAccount",
          "type": "address"
        },
        {
          "indexed": false,
          "name": "feeAccount",
          "type": "address"
        },
        {
          "indexed": false,
          "name": "appFee",
          "type": "uint256"
        },
        {
          "indexed": false,
          "name": "fee",
          "type": "uint256"
        },
        {
          "indexed": false,
          "name": "itemHash",
          "type": "bytes32"
        }
      ],
      "name": "Marked",
      "type": "event"
    },
    {
      "anonymous": false,
      "inputs": [
        {
          "indexed": false,
          "name": "addr",
          "type": "address"
        }
      ],
      "name": "AdminAdded",
      "type": "event"
    },
    {
      "anonymous": false,
      "inputs": [
        {
          "indexed": false,
          "name": "addr",
          "type": "address"
        }
      ],
      "name": "AdminRemoved",
      "type": "event"
    },
    {
      "anonymous": false,
      "inputs": [
        {
          "indexed": true,
          "name": "_from",
          "type": "address"
        },
        {
          "indexed": true,
          "name": "_to",
          "type": "address"
        }
      ],
      "name": "OwnershipTransferred",
      "type": "event"
    },
    {
      "constant": false,
      "inputs": [
        {
          "name": "_token",
          "type": "address"
        }
      ],
      "name": "setToken",
      "outputs": [],
      "payable": false,
      "stateMutability": "nonpayable",
      "type": "function"
    },
    {
      "constant": false,
      "inputs": [
        {
          "name": "_feeAccount",
          "type": "address"
        },
        {
          "name": "_fee",
          "type": "uint256"
        }
      ],
      "name": "setFee",
      "outputs": [],
      "payable": false,
      "stateMutability": "nonpayable",
      "type": "function"
    },
    {
      "constant": false,
      "inputs": [
        {
          "name": "appName",
          "type": "string"
        },
        {
          "name": "_feeAccount",
          "type": "address"
        },
        {
          "name": "_fee",
          "type": "uint256"
        }
      ],
      "name": "addApp",
      "outputs": [],
      "payable": false,
      "stateMutability": "nonpayable",
      "type": "function"
    },
    {
      "constant": false,
      "inputs": [
        {
          "name": "appName",
          "type": "string"
        },
        {
          "name": "_feeAccount",
          "type": "address"
        },
        {
          "name": "_fee",
          "type": "uint256"
        },
        {
          "name": "active",
          "type": "bool"
        }
      ],
      "name": "updateApp",
      "outputs": [],
      "payable": false,
      "stateMutability": "nonpayable",
      "type": "function"
    },
    {
      "constant": true,
      "inputs": [
        {
          "name": "appAccount",
          "type": "address"
        }
      ],
      "name": "getApp",
      "outputs": [
        {
          "components": [
            {
              "name": "appAccount",
              "type": "address"
            },
            {
              "name": "appName",
              "type": "string"
            },
            {
              "name": "feeAccount",
              "type": "address"
            },
            {
              "name": "fee",
              "type": "uint256"
            },
            {
              "name": "active",
              "type": "bool"
            }
          ],
          "name": "app",
          "type": "tuple"
        }
      ],
      "payable": false,
      "stateMutability": "view",
      "type": "function"
    },
    {
      "constant": true,
      "inputs": [
        {
          "name": "appAccount",
          "type": "address"
        }
      ],
      "name": "getAppData",
      "outputs": [
        {
          "name": "_feeAccount",
          "type": "address"
        },
        {
          "name": "_fee",
          "type": "uint256"
        },
        {
          "name": "active",
          "type": "bool"
        }
      ],
      "payable": false,
      "stateMutability": "view",
      "type": "function"
    },
    {
      "constant": true,
      "inputs": [],
      "name": "appAccountsLength",
      "outputs": [
        {
          "name": "",
          "type": "uint256"
        }
      ],
      "payable": false,
      "stateMutability": "view",
      "type": "function"
    },
    {
      "constant": false,
      "inputs": [
        {
          "name": "brandAccount",
          "type": "address"
        },
        {
          "name": "brandName",
          "type": "string"
        }
      ],
      "name": "addBrand",
      "outputs": [],
      "payable": false,
      "stateMutability": "nonpayable",
      "type": "function"
    },
    {
      "constant": false,
      "inputs": [
        {
          "name": "brandAccount",
          "type": "address"
        },
        {
          "name": "brandName",
          "type": "string"
        },
        {
          "name": "active",
          "type": "bool"
        }
      ],
      "name": "updateBrand",
      "outputs": [],
      "payable": false,
      "stateMutability": "nonpayable",
      "type": "function"
    },
    {
      "constant": true,
      "inputs": [
        {
          "name": "brandAccount",
          "type": "address"
        }
      ],
      "name": "getBrand",
      "outputs": [
        {
          "components": [
            {
              "name": "brandAccount",
              "type": "address"
            },
            {
              "name": "appAccount",
              "type": "address"
            },
            {
              "name": "brandName",
              "type": "string"
            },
            {
              "name": "active",
              "type": "bool"
            }
          ],
          "name": "brand",
          "type": "tuple"
        }
      ],
      "payable": false,
      "stateMutability": "view",
      "type": "function"
    },
    {
      "constant": true,
      "inputs": [
        {
          "name": "brandAccount",
          "type": "address"
        }
      ],
      "name": "getBrandData",
      "outputs": [
        {
          "name": "appAccount",
          "type": "address"
        },
        {
          "name": "appFeeAccount",
          "type": "address"
        },
        {
          "name": "active",
          "type": "bool"
        }
      ],
      "payable": false,
      "stateMutability": "view",
      "type": "function"
    },
    {
      "constant": true,
      "inputs": [],
      "name": "brandAccountsLength",
      "outputs": [
        {
          "name": "",
          "type": "uint256"
        }
      ],
      "payable": false,
      "stateMutability": "view",
      "type": "function"
    },
    {
      "constant": false,
      "inputs": [
        {
          "name": "productAccount",
          "type": "address"
        },
        {
          "name": "description",
          "type": "string"
        },
        {
          "name": "details",
          "type": "string"
        },
        {
          "name": "year",
          "type": "uint256"
        },
        {
          "name": "origin",
          "type": "string"
        }
      ],
      "name": "addProduct",
      "outputs": [],
      "payable": false,
      "stateMutability": "nonpayable",
      "type": "function"
    },
    {
      "constant": false,
      "inputs": [
        {
          "name": "productAccount",
          "type": "address"
        },
        {
          "name": "description",
          "type": "string"
        },
        {
          "name": "details",
          "type": "string"
        },
        {
          "name": "year",
          "type": "uint256"
        },
        {
          "name": "origin",
          "type": "string"
        },
        {
          "name": "active",
          "type": "bool"
        }
      ],
      "name": "updateProduct",
      "outputs": [],
      "payable": false,
      "stateMutability": "nonpayable",
      "type": "function"
    },
    {
      "constant": true,
      "inputs": [
        {
          "name": "productAccount",
          "type": "address"
        }
      ],
      "name": "getProduct",
      "outputs": [
        {
          "components": [
            {
              "name": "productAccount",
              "type": "address"
            },
            {
              "name": "brandAccount",
              "type": "address"
            },
            {
              "name": "description",
              "type": "string"
            },
            {
              "name": "details",
              "type": "string"
            },
            {
              "name": "year",
              "type": "uint256"
            },
            {
              "name": "origin",
              "type": "string"
            },
            {
              "name": "active",
              "type": "bool"
            }
          ],
          "name": "product",
          "type": "tuple"
        }
      ],
      "payable": false,
      "stateMutability": "view",
      "type": "function"
    },
    {
      "constant": true,
      "inputs": [
        {
          "name": "productAccount",
          "type": "address"
        }
      ],
      "name": "getProductData",
      "outputs": [
        {
          "name": "brandAccount",
          "type": "address"
        },
        {
          "name": "appAccount",
          "type": "address"
        },
        {
          "name": "appFeeAccount",
          "type": "address"
        },
        {
          "name": "active",
          "type": "bool"
        }
      ],
      "payable": false,
      "stateMutability": "view",
      "type": "function"
    },
    {
      "constant": true,
      "inputs": [],
      "name": "productAccountsLength",
      "outputs": [
        {
          "name": "",
          "type": "uint256"
        }
      ],
      "payable": false,
      "stateMutability": "view",
      "type": "function"
    },
    {
      "constant": false,
      "inputs": [
        {
          "name": "marker",
          "type": "address"
        },
        {
          "name": "permission",
          "type": "bool"
        }
      ],
      "name": "permissionMarker",
      "outputs": [],
      "payable": false,
      "stateMutability": "nonpayable",
      "type": "function"
    },
    {
      "constant": true,
      "inputs": [
        {
          "name": "item",
          "type": "address"
        }
      ],
      "name": "addressHash",
      "outputs": [
        {
          "name": "hash",
          "type": "bytes32"
        }
      ],
      "payable": false,
      "stateMutability": "pure",
      "type": "function"
    },
    {
      "constant": false,
      "inputs": [
        {
          "name": "productAccount",
          "type": "address"
        },
        {
          "name": "itemHash",
          "type": "bytes32"
        }
      ],
      "name": "mark",
      "outputs": [],
      "payable": false,
      "stateMutability": "nonpayable",
      "type": "function"
    },
    {
      "constant": true,
      "inputs": [
        {
          "name": "item",
          "type": "address"
        }
      ],
      "name": "check",
      "outputs": [
        {
          "name": "productAccount",
          "type": "address"
        },
        {
          "name": "brandAccount",
          "type": "address"
        },
        {
          "name": "appAccount",
          "type": "address"
        }
      ],
      "payable": false,
      "stateMutability": "view",
      "type": "function"
    }
  ],
  "bytecode": "0x608060405260008054600160a060020a03191633179055612c3a806100256000396000f3006080604052600436106101d65763ffffffff7c0100000000000000000000000000000000000000000000000000000000600035041662adc38281146101db57806301c69452146102115780630425c4bf1461023e578063098ed807146102605780630a40fb8c146102755780631309ec4314610295578063144fa6d7146102c65780631785f53c146102e657806324d7806c146103065780632a286eda1461033357806333ca477314610353578063361893f714610382578063429b62e5146103af578063437fa667146103cf578063512570d6146103e45780635b68e09b146104045780635b7fd9b51461042457806360a72c291461045457806365e17c9d146104835780636c5954511461049857806370480275146104b857806373311631146104d8578063793a8e71146104f857806379ba50971461052b5780638da5cb5b14610540578063b94cc52f14610555578063c23697a814610575578063cccd2ea8146105a4578063d4ee1d90146105d4578063d9aba9ce146105e9578063dc3acebe14610616578063ddca3f4314610643578063e507e7a414610658578063e55156b51461066d578063f2fde38b1461068d578063f768402a146106ad578063f831fe32146106cd578063fc0c546a146106ed575b600080fd5b3480156101e757600080fd5b506101fb6101f6366004612205565b61070f565b6040516102089190612a64565b60405180910390f35b34801561021d57600080fd5b5061023161022c3660046125be565b61073f565b6040516102089190612829565b34801561024a57600080fd5b5061025e6102593660046123ff565b610767565b005b34801561026c57600080fd5b506101fb610894565b34801561028157600080fd5b5061025e61029036600461222b565b61089b565b3480156102a157600080fd5b506102b56102b0366004612205565b610930565b6040516102089594939291906129f2565b3480156102d257600080fd5b5061025e6102e1366004612205565b610a05565b3480156102f257600080fd5b5061025e610301366004612205565b610a75565b34801561031257600080fd5b50610326610321366004612205565b610b0e565b6040516102089190612a56565b34801561033f57600080fd5b5061023161034e3660046125be565b610b48565b34801561035f57600080fd5b5061037361036e366004612205565b610b56565b6040516102089392919061289d565b34801561038e57600080fd5b506103a261039d366004612205565b610bf2565b6040516102089190612b0e565b3480156103bb57600080fd5b506103266103ca366004612205565b610cdc565b3480156103db57600080fd5b506101fb610cf1565b3480156103f057600080fd5b5061025e6103ff3660046122dd565b610cf7565b34801561041057600080fd5b5061023161041f3660046125be565b610d96565b34801561043057600080fd5b5061044461043f366004612205565b610da4565b60405161020894939291906128c5565b34801561046057600080fd5b5061047461046f366004612205565b610e67565b60405161020893929190612a3b565b34801561048f57600080fd5b50610231610e9b565b3480156104a457600080fd5b5061025e6104b33660046124ec565b610eaa565b3480156104c457600080fd5b5061025e6104d3366004612205565b61100b565b3480156104e457600080fd5b5061025e6104f3366004612295565b6110b7565b34801561050457600080fd5b50610518610513366004612205565b611225565b6040516102089796959493929190612901565b34801561053757600080fd5b5061025e61140f565b34801561054c57600080fd5b5061023161148a565b34801561056157600080fd5b5061025e610570366004612265565b611499565b34801561058157600080fd5b50610595610590366004612205565b61178b565b60405161020893929190612837565b3480156105b057600080fd5b506105c46105bf366004612205565b6117f2565b604051610208949392919061285f565b3480156105e057600080fd5b506102316118dd565b3480156105f557600080fd5b50610609610604366004612205565b6118ec565b6040516102089190612b1f565b34801561062257600080fd5b50610636610631366004612205565b611b08565b6040516102089190612afd565b34801561064f57600080fd5b506101fb611c06565b34801561066457600080fd5b506101fb611c0c565b34801561067957600080fd5b5061025e610688366004612265565b611c12565b34801561069957600080fd5b5061025e6106a8366004612205565b611c99565b3480156106b957600080fd5b5061025e6106c8366004612342565b611cd2565b3480156106d957600080fd5b5061025e6106e8366004612546565b611f71565b3480156106f957600080fd5b5061070261202a565b6040516102089190612a72565b604080516c01000000000000000000000000600160a060020a039093169290920282525190819003601401902090565b600c80548290811061074d57fe5b600091825260209091200154600160a060020a0316905081565b600160a060020a03808716600090815260086020526040812060018101549092829116331461079557600080fd5b3360008181526007602052604090208054909350600160a060020a0316146107bc57600080fd5b506001810154600160a060020a03166000908152600660209081526040909120885190916107f19160028601918b0190612039565b50865161080790600385019060208a0190612039565b506004830186905584516108249060058501906020880190612039565b5060068301805460ff191685151517905580546001840154604051600160a060020a0392831692918216918c16907faf8f7fdfa11bd035e0cd7a1a852667f37f6ce16f1ccc3103b747e9927310476090610881908d908a90612aad565b60405180910390a4505050505050505050565b600d545b90565b3360009081526007602052604090208054600160a060020a031615156108c057600080fd5b600160a060020a038316600081815260096020908152604080832033808552925291829020805460ff191686151517905590519091907f8555cde94a099da074d0de799c9e9d1b6ec375a699f6e646bd11761e4210b3ec90610923908690612a56565b60405180910390a3505050565b6006602090815260009182526040918290208054600180830180548651600261010094831615949094026000190190911692909204601f8101869004860283018601909652858252600160a060020a039092169492939092908301828280156109da5780601f106109af576101008083540402835291602001916109da565b820191906000526020600020905b8154815290600101906020018083116109bd57829003601f168201915b50505050600283015460038401546004909401549293600160a060020a039091169290915060ff1685565b610a0e33610b0e565b1515610a1957600080fd5b600354604051600160a060020a038084169216907f0b1186973f810894b87ab0bfbee422fddcaad21b46dc705a561451bbb6bac11790600090a360038054600160a060020a031916600160a060020a0392909216919091179055565b600054600160a060020a03163314610a8c57600080fd5b600160a060020a03811660009081526002602052604090205460ff161515610ab357600080fd5b600160a060020a03811660009081526002602052604090819020805460ff19169055517fa3b62bc36326052d97ea62d63c3d60308ed4c3ea8ac079dd8499f1e9c4f80c0f90610b03908390612829565b60405180910390a150565b600160a060020a03811660009081526002602052604081205460ff1680610b425750600054600160a060020a038381169116145b92915050565b600d80548290811061074d57fe5b600160a060020a0380821660009081526007602052604081206001810154919283928392918391161515610b8957600080fd5b506001810154600160a060020a03908116600090815260066020526040902080549091161515610bb857600080fd5b805460028201546004830154600160a060020a0392831697509116945060ff168015610be85750600382015460ff165b9496939550505050565b610bfa6120b7565b600160a060020a038281166000908152600760209081526040918290208251608081018452815485168152600180830154909516818401526002808301805486516101009882161598909802600019011691909104601f8101859004850287018501865280875291959294860193909190830182828015610cbc5780601f10610c9157610100808354040283529160200191610cbc565b820191906000526020600020905b815481529060010190602001808311610c9f57829003601f168201915b50505091835250506003919091015460ff16151560209091015292915050565b60026020526000908152604090205460ff1681565b600b5490565b600160a060020a03808416600090815260076020526040902060018101549091163314610d2357600080fd5b8251610d389060028301906020860190612039565b5060038101805460ff19168315151790556040513390600160a060020a038616907f74e5739790e0c39675f65b0937070123c564bc6c21050a2f60a905f3b43793b990610d889087908790612aad565b60405180910390a350505050565b600b80548290811061074d57fe5b60076020908152600091825260409182902080546001808301546002808501805488516101009582161595909502600019011691909104601f8101879004870284018701909752868352600160a060020a0393841696939091169491929091830182828015610e545780601f10610e2957610100808354040283529160200191610e54565b820191906000526020600020905b815481529060010190602001808311610e3757829003601f168201915b5050506003909301549192505060ff1684565b600160a060020a03908116600090815260066020526040902060028101546003820154600490920154921692909160ff1690565b600454600160a060020a031681565b3360009081526006602052604090208054600160a060020a031615610ece57600080fd5b6040805160a081018252338082526020808301888152600160a060020a0388811685870152606085018890526001608086018190526000948552600684529590932084518154600160a060020a031916941693909317835551805193949293610f3e938501929190910190612039565b50604082810151600283018054600160a060020a0319908116600160a060020a03909316929092179055606084015160038401556080909301516004909201805460ff191692151592909217909155600b8054600181810183556000929092527f0175b7a638427703f0dbe7bb9bbf987a2551717b34e79f33b5b1008d1fa01db90180543394168417905590517f684fa4476d58f455b3ec9040249a3ef8910ab3ea2c0960052092b5e5453a45a491610ffd9188918891889190612a80565b60405180910390a250505050565b600054600160a060020a0316331461102257600080fd5b600160a060020a03811660009081526002602052604090205460ff161580156110595750600054600160a060020a03828116911614155b151561106457600080fd5b600160a060020a03811660009081526002602052604090819020805460ff19166001179055517f44d6d25963f097ad14f29f06854a01f575648a1ef82f30e562ccd3889717e33990610b03908390612829565b3360009081526006602052604081208054909190600160a060020a031615156110df57600080fd5b50600160a060020a03808416600090815260076020526040902080549091161561110857600080fd5b60408051608081018252600160a060020a038087168083523360208085019182528486018981526001606087018190526000948552600783529690932085518154908616600160a060020a031991821617825592519681018054979095169690921695909517909255518051929391926111889260028501920190612039565b50606091909101516003909101805460ff1916911515919091179055600c8054600181810183556000929092527fdf6966c971051c3d54ec59162606531493a51404a002842f56009d7e5cf4a8c7018054600160a060020a031916600160a060020a03871690811790915560405133927f45266d7ee1033749188bfdc0ce2763dfd805881ed25fb436b147b2f69562b32391610d88918891612aad565b60086020908152600091825260409182902080546001808301546002808501805488516101009582161595909502600019011691909104601f8101879004870284018701909752868352600160a060020a03938416969390911694919290918301828280156112d55780601f106112aa576101008083540402835291602001916112d5565b820191906000526020600020905b8154815290600101906020018083116112b857829003601f168201915b5050505060038301805460408051602060026001851615610100026000190190941693909304601f81018490048402820184019092528181529495949350908301828280156113655780601f1061133a57610100808354040283529160200191611365565b820191906000526020600020905b81548152906001019060200180831161134857829003601f168201915b50505050600483015460058401805460408051602060026001851615610100026000190190941693909304601f810184900484028201840190925281815295969395939450908301828280156113fc5780601f106113d1576101008083540402835291602001916113fc565b820191906000526020600020905b8154815290600101906020018083116113df57829003601f168201915b5050506006909301549192505060ff1687565b600154600160a060020a0316331461142657600080fd5b60015460008054604051600160a060020a0393841693909116917f8be0079c531659141344cd1fd0a4f28419497f9722a3daafe3b4186f6b6457e091a36001805460008054600160a060020a0319908116600160a060020a03841617909155169055565b600054600160a060020a031681565b600160a060020a038083166000908152600860205260408120600181015490928291829116158015906114d05750600684015460ff165b15156114db57600080fd5b6001840154600160a060020a039081166000908152600760205260409020805490945016158015906115115750600383015460ff165b151561151c57600080fd5b6001830154600160a060020a039081166000908152600660205260409020805490935016158015906115525750600482015460ff165b151561155d57600080fd5b503360009081526009602090815260408083208554600160a060020a0316845290915290205460ff1680151561159257600080fd5b6000858152600a6020526040908190208054600160a060020a031916600160a060020a03898116918217909255600285015460045460038701546005549551939533957fbade777cd65d2c09ba0ecc171d889389ea076d8af150d8ab205f4c9f6c14ffc49561160b958216949091169291908d906129a6565b60405180910390a36000826003015411156116cd576003805484546002850154928501546040517f23b872dd000000000000000000000000000000000000000000000000000000008152600160a060020a03938416946323b872dd946116799481169391169160040161297e565b602060405180830381600087803b15801561169357600080fd5b505af11580156116a7573d6000803e3d6000fd5b505050506040513d601f19601f820116820180604052506116cb91908101906124ce565b505b60006005541115611783576003548354600480546005546040517f23b872dd000000000000000000000000000000000000000000000000000000008152600160a060020a03958616956323b872dd9561172f959082169490911692910161297e565b602060405180830381600087803b15801561174957600080fd5b505af115801561175d573d6000803e3d6000fd5b505050506040513d601f19601f8201168201806040525061178191908101906124ce565b505b505050505050565b604080516c01000000000000000000000000600160a060020a0393841602815281519081900360140190206000908152600a602090815282822054841680835260088252838320600190810154861680855260079093529390922090920154909391921690565b600160a060020a0380821660009081526008602052604081206001810154919283928392839290918391829116151561182a57600080fd5b600160a060020a038088166000908152600760205260409020600181015490935016151561185757600080fd5b506001810154600160a060020a0390811660009081526006602052604090208054909116151561188657600080fd5b6001830154815460028301546004840154600160a060020a039384169a509183169850909116955060ff1680156118c15750600382015460ff165b80156118d15750600382015460ff165b93505050509193509193565b600154600160a060020a031681565b6118f46120df565b600160a060020a03828116600090815260086020908152604091829020825160e081018452815485168152600180830154909516818401526002808301805486516101009882161598909802600019011691909104601f81018590048502870185018652808752919592948601939091908301828280156119b65780601f1061198b576101008083540402835291602001916119b6565b820191906000526020600020905b81548152906001019060200180831161199957829003601f168201915b505050918352505060038201805460408051602060026001851615610100026000190190941693909304601f8101849004840282018401909252818152938201939291830182828015611a4a5780601f10611a1f57610100808354040283529160200191611a4a565b820191906000526020600020905b815481529060010190602001808311611a2d57829003601f168201915b5050509183525050600482015460208083019190915260058301805460408051601f60026000196101006001871615020190941693909304928301859004850281018501825282815294019392830182828015611ae85780601f10611abd57610100808354040283529160200191611ae8565b820191906000526020600020905b815481529060010190602001808311611acb57829003601f168201915b50505091835250506006919091015460ff16151560209091015292915050565b611b10612131565b600160a060020a03828116600090815260066020908152604091829020825160a08101845281549094168452600180820180548551600261010094831615949094026000190190911692909204601f8101859004850283018501909552848252919385840193919291830182828015611bca5780601f10611b9f57610100808354040283529160200191611bca565b820191906000526020600020905b815481529060010190602001808311611bad57829003601f168201915b50505091835250506002820154600160a060020a031660208201526003820154604082015260049091015460ff16151560609091015292915050565b60055481565b600c5490565b611c1b33610b0e565b1515611c2657600080fd5b600454600554604051600160a060020a038086169316917f63ca7aaf1f7741894482e56b1504c8da8fdfc969d2d5388ba289330ff0ce7a8891611c6b91908690612b30565b60405180910390a360048054600160a060020a031916600160a060020a039390931692909217909155600555565b600054600160a060020a03163314611cb057600080fd5b60018054600160a060020a031916600160a060020a0392909216919091179055565b33600090815260076020526040812080549091908190600160a060020a03161515611d32576040517f08c379a0000000000000000000000000000000000000000000000000000000008152600401611d2990612aed565b60405180910390fd5b6001830154600160a060020a0390811660009081526006602052604090208054909350161515611d8e576040517f08c379a0000000000000000000000000000000000000000000000000000000008152600401611d2990612acd565b50600160a060020a038088166000908152600860205260409020805490911615611de4576040517f08c379a0000000000000000000000000000000000000000000000000000000008152600401611d2990612add565b6040805160e081018252600160a060020a03808b168083523360208085019182528486018d8152606086018d9052608086018c905260a086018b9052600160c087018190526000948552600883529690932085518154908616600160a060020a03199182161782559251968101805497909516969092169590951790925551805192939192611e799260028501920190612039565b5060608201518051611e95916003840191602090910190612039565b506080820151600482015560a08201518051611ebb916005840191602090910190612039565b5060c091909101516006909101805460ff1916911515919091179055600d8054600181810183556000929092527fd7b6990105719101dabeb77144f2a3385c8033acd3af97e9423a695e81ad1eb5018054600160a060020a031916600160a060020a038b8116918217909255845460405192169233927fef5a80afc42df06ef4f342a1f95d294cf39231087c8eabb802e94c70806590f991611f5f918d9190612aad565b60405180910390a45050505050505050565b33600081815260066020526040902080549091600160a060020a0390911614611f9957600080fd5b8451611fae9060018301906020880190612039565b50600281018054600160a060020a031916600160a060020a0386161790556003810183905560048101805460ff191683151517905560405133907fbab94366663be4e79fe422e4d8427e79b1ede3eddc4e9e5bc383876540395ccf9061201b908890889088908890612a80565b60405180910390a25050505050565b600354600160a060020a031681565b828054600181600116156101000203166002900490600052602060002090601f016020900481019282601f1061207a57805160ff19168380011785556120a7565b828001600101855582156120a7579182015b828111156120a757825182559160200191906001019061208c565b506120b3929150612160565b5090565b6040805160808101825260008082526020820181905260609282018390529181019190915290565b60e0604051908101604052806000600160a060020a031681526020016000600160a060020a03168152602001606081526020016060815260200160008152602001606081526020016000151581525090565b6040805160a0810182526000808252606060208301819052928201819052918101829052608081019190915290565b61089891905b808211156120b35760008155600101612166565b60006121868235612b9e565b9392505050565b60006121868235612baa565b60006121868251612baa565b60006121868235610898565b6000601f820183136121c257600080fd5b81356121d56121d082612b72565b612b4b565b915080825260208301602083018583830111156121f157600080fd5b6121fc838284612bba565b50505092915050565b60006020828403121561221757600080fd5b6000612223848461217a565b949350505050565b6000806040838503121561223e57600080fd5b600061224a858561217a565b925050602061225b8582860161218d565b9150509250929050565b6000806040838503121561227857600080fd5b6000612284858561217a565b925050602061225b858286016121a5565b600080604083850312156122a857600080fd5b60006122b4858561217a565b925050602083013567ffffffffffffffff8111156122d157600080fd5b61225b858286016121b1565b6000806000606084860312156122f257600080fd5b60006122fe868661217a565b935050602084013567ffffffffffffffff81111561231b57600080fd5b612327868287016121b1565b92505060406123388682870161218d565b9150509250925092565b600080600080600060a0868803121561235a57600080fd5b6000612366888861217a565b955050602086013567ffffffffffffffff81111561238357600080fd5b61238f888289016121b1565b945050604086013567ffffffffffffffff8111156123ac57600080fd5b6123b8888289016121b1565b93505060606123c9888289016121a5565b925050608086013567ffffffffffffffff8111156123e657600080fd5b6123f2888289016121b1565b9150509295509295909350565b60008060008060008060c0878903121561241857600080fd5b6000612424898961217a565b965050602087013567ffffffffffffffff81111561244157600080fd5b61244d89828a016121b1565b955050604087013567ffffffffffffffff81111561246a57600080fd5b61247689828a016121b1565b945050606061248789828a016121a5565b935050608087013567ffffffffffffffff8111156124a457600080fd5b6124b089828a016121b1565b92505060a06124c189828a0161218d565b9150509295509295509295565b6000602082840312156124e057600080fd5b60006122238484612199565b60008060006060848603121561250157600080fd5b833567ffffffffffffffff81111561251857600080fd5b612524868287016121b1565b93505060206125358682870161217a565b9250506040612338868287016121a5565b6000806000806080858703121561255c57600080fd5b843567ffffffffffffffff81111561257357600080fd5b61257f878288016121b1565b94505060206125908782880161217a565b93505060406125a1878288016121a5565b92505060606125b28782880161218d565b91505092959194509250565b6000602082840312156125d057600080fd5b600061222384846121a5565b6125e581612b9e565b82525050565b6125e581612baa565b6125e581610898565b6125e581612baf565b600061261182612b9a565b808452612625816020860160208601612bc6565b61262e81612bf6565b9093016020019392505050565b601881527f617070206163636f756e74206973206e6f742076616c69640000000000000000602082015260400190565b601c81527f70726f64756374206163636f756e74206973206e6f742076616c696400000000602082015260400190565b601a81527f6272616e64206163636f756e74206973206e6f742076616c6964000000000000602082015260400190565b805160009060a08401906126df85826125dc565b50602083015184820360208601526126f78282612606565b915050604083015161270c60408601826125dc565b50606083015161271f60608601826125f4565b50608083015161273260808601826125eb565b509392505050565b8051600090608084019061274e85826125dc565b50602083015161276160208601826125dc565b50604083015184820360408601526127798282612606565b915050606083015161273260608601826125eb565b805160009060e08401906127a285826125dc565b5060208301516127b560208601826125dc565b50604083015184820360408601526127cd8282612606565b915050606083015184820360608601526127e78282612606565b91505060808301516127fc60808601826125f4565b5060a083015184820360a08601526128148282612606565b91505060c083015161273260c08601826125eb565b60208101610b4282846125dc565b6060810161284582866125dc565b61285260208301856125dc565b61222360408301846125dc565b6080810161286d82876125dc565b61287a60208301866125dc565b61288760408301856125dc565b61289460608301846125eb565b95945050505050565b606081016128ab82866125dc565b6128b860208301856125dc565b61222360408301846125eb565b608081016128d382876125dc565b6128e060208301866125dc565b81810360408301526128f28185612606565b905061289460608301846125eb565b60e0810161290f828a6125dc565b61291c60208301896125dc565b818103604083015261292e8188612606565b905081810360608301526129428187612606565b905061295160808301866125f4565b81810360a08301526129638185612606565b905061297260c08301846125eb565b98975050505050505050565b6060810161298c82866125dc565b61299960208301856125dc565b61222360408301846125f4565b60a081016129b482886125dc565b6129c160208301876125dc565b6129ce60408301866125f4565b6129db60608301856125f4565b6129e860808301846125f4565b9695505050505050565b60a08101612a0082886125dc565b8181036020830152612a128187612606565b9050612a2160408301866125dc565b612a2e60608301856125f4565b6129e860808301846125eb565b60608101612a4982866125dc565b6128b860208301856125f4565b60208101610b4282846125eb565b60208101610b4282846125f4565b60208101610b4282846125fd565b60808082528101612a918187612606565b9050612aa060208301866125dc565b61288760408301856125f4565b60408082528101612abe8185612606565b905061218660208301846125eb565b60208082528101610b428161263b565b60208082528101610b428161266b565b60208082528101610b428161269b565b6020808252810161218681846126cb565b60208082528101612186818461273a565b60208082528101612186818461278e565b60408101612b3e82856125f4565b61218660208301846125f4565b60405181810167ffffffffffffffff81118282101715612b6a57600080fd5b604052919050565b600067ffffffffffffffff821115612b8957600080fd5b506020601f91909101601f19160190565b5190565b600160a060020a031690565b151590565b6000610b4282612b9e565b82818337506000910152565b60005b83811015612be1578181015183820152602001612bc9565b83811115612bf0576000848401525b50505050565b601f01601f1916905600a265627a7a72305820298bbed6bb7f10d8bef01cedef7e873401f9b3454ce2ada5d4394281b8cdb3346c6578706572696d656e74616cf50037",
  "source": "pragma solidity ^0.4.17;\npragma experimental ABIEncoderV2;\n\n// ----------------------------------------------------------------------------\n// Devery Contracts - The Monolithic Registry\n//\n// Deployed to Ropsten Testnet at 0x654f4a3e3B7573D6b4bB7201AB70d718961765CD\n//\n// Enjoy.\n//\n// (c) BokkyPooBah / Bok Consulting Pty Ltd for Devery 2017. The MIT Licence.\n// ----------------------------------------------------------------------------\n\n\n// ----------------------------------------------------------------------------\n// ERC Token Standard #20 Interface\n// https://github.com/ethereum/EIPs/blob/master/EIPS/eip-20-token-standard.md\n// ----------------------------------------------------------------------------\ncontract ERC20Interface {\n    function totalSupply() public constant returns (uint);\n    function balanceOf(address tokenOwner) public constant returns (uint balance);\n    function allowance(address tokenOwner, address spender) public constant returns (uint remaining);\n    function transfer(address to, uint tokens) public returns (bool success);\n    function approve(address spender, uint tokens) public returns (bool success);\n    function transferFrom(address from, address to, uint tokens) public returns (bool success);\n\n    event Transfer(address indexed from, address indexed to, uint tokens);\n    event Approval(address indexed tokenOwner, address indexed spender, uint tokens);\n}\n\n\n// ----------------------------------------------------------------------------\n// Owned contract\n// ----------------------------------------------------------------------------\ncontract Owned {\n\n    address public owner;\n    address public newOwner;\n\n    event OwnershipTransferred(address indexed _from, address indexed _to);\n\n    modifier onlyOwner {\n        require(msg.sender == owner);\n        _;\n    }\n\n    function Owned() public {\n        owner = msg.sender;\n    }\n    function transferOwnership(address _newOwner) public onlyOwner {\n        newOwner = _newOwner;\n    }\n    function acceptOwnership() public {\n        require(msg.sender == newOwner);\n        OwnershipTransferred(owner, newOwner);\n        owner = newOwner;\n        newOwner = 0x0;\n    }\n}\n\n\n// ----------------------------------------------------------------------------\n// Administrators\n// ----------------------------------------------------------------------------\ncontract Admined is Owned {\n\n    mapping (address => bool) public admins;\n\n    event AdminAdded(address addr);\n    event AdminRemoved(address addr);\n\n    modifier onlyAdmin() {\n        require(isAdmin(msg.sender));\n        _;\n    }\n\n    function isAdmin(address addr) public constant returns (bool) {\n        return (admins[addr] || owner == addr);\n    }\n    function addAdmin(address addr) public onlyOwner {\n        require(!admins[addr] && addr != owner);\n        admins[addr] = true;\n        AdminAdded(addr);\n    }\n    function removeAdmin(address addr) public onlyOwner {\n        require(admins[addr]);\n        delete admins[addr];\n        AdminRemoved(addr);\n    }\n}\n\n\n// ----------------------------------------------------------------------------\n// Devery Registry\n// ----------------------------------------------------------------------------\ncontract DeveryRegistry is Admined {\n\n    struct App {\n        address appAccount;\n        string appName;\n        address feeAccount;\n        uint fee;\n        bool active;\n    }\n    struct Brand {\n        address brandAccount;\n        address appAccount;\n        string brandName;\n        bool active;\n    }\n    struct Product {\n        address productAccount;\n        address brandAccount;\n        string description;\n        string details;\n        uint year;\n        string origin;\n        bool active;\n    }\n\n    ERC20Interface public token;\n    address public feeAccount;\n    uint public fee;\n    mapping(address => App) public apps;\n    mapping(address => Brand) public brands;\n    mapping(address => Product) public products;\n    mapping(address => mapping(address => bool)) permissions;\n    mapping(bytes32 => address) markings;\n    address[] public appAccounts;\n    address[] public brandAccounts;\n    address[] public productAccounts;\n\n    event TokenUpdated(address indexed oldToken, address indexed newToken);\n    event FeeUpdated(address indexed oldFeeAccount, address indexed newFeeAccount, uint oldFee, uint newFee);\n    event AppAdded(address indexed appAccount, string appName, address feeAccount, uint fee, bool active);\n    event AppUpdated(address indexed appAccount, string appName, address feeAccount, uint fee, bool active);\n    event BrandAdded(address indexed brandAccount, address indexed appAccount, string brandName, bool active);\n    event BrandUpdated(address indexed brandAccount, address indexed appAccount, string brandName, bool active);\n    event ProductAdded(address indexed productAccount, address indexed brandAccount, address indexed appAccount, string description, bool active);\n    event ProductUpdated(address indexed productAccount, address indexed brandAccount, address indexed appAccount, string description, bool active);\n    event Permissioned(address indexed marker, address indexed brandAccount, bool permission);\n    event Marked(address indexed marker, address indexed productAccount, address appFeeAccount, address feeAccount, uint appFee, uint fee, bytes32 itemHash);\n\n\n    // ------------------------------------------------------------------------\n    // Token, fee account and fee\n    // ------------------------------------------------------------------------\n    function setToken(address _token) public onlyAdmin {\n        TokenUpdated(address(token), _token);\n        token = ERC20Interface(_token);\n    }\n    function setFee(address _feeAccount, uint _fee) public onlyAdmin {\n        FeeUpdated(feeAccount, _feeAccount, fee, _fee);\n        feeAccount = _feeAccount;\n        fee = _fee;\n    }\n\n    // ------------------------------------------------------------------------\n    // Account can add itself as an App account\n    // ------------------------------------------------------------------------\n    function addApp(string appName, address _feeAccount, uint _fee) public {\n        App storage e = apps[msg.sender];\n        require(e.appAccount == address(0));\n        apps[msg.sender] = App({\n            appAccount: msg.sender,\n            appName: appName,\n            feeAccount: _feeAccount,\n            fee: _fee,\n            active: true\n        });\n        appAccounts.push(msg.sender);\n        AppAdded(msg.sender, appName, _feeAccount, _fee, true);\n    }\n    function updateApp(string appName, address _feeAccount, uint _fee, bool active) public {\n        App storage e = apps[msg.sender];\n        require(msg.sender == e.appAccount);\n        e.appName = appName;\n        e.feeAccount = _feeAccount;\n        e.fee = _fee;\n        e.active = active;\n        AppUpdated(msg.sender, appName, _feeAccount, _fee, active);\n    }\n    function getApp(address appAccount) public constant returns (App app) {\n        app = apps[appAccount];\n    }\n    function getAppData(address appAccount) public constant returns (address _feeAccount, uint _fee, bool active) {\n        App storage e = apps[appAccount];\n        _feeAccount = e.feeAccount;\n        _fee = e.fee;\n        active = e.active;\n    }\n    function appAccountsLength() public constant returns (uint) {\n        return appAccounts.length;\n    }\n\n    // ------------------------------------------------------------------------\n    // App account can add Brand account\n    // ------------------------------------------------------------------------\n    function addBrand(address brandAccount, string brandName) public {\n        App storage app = apps[msg.sender];\n        require(app.appAccount != address(0));\n        Brand storage brand = brands[brandAccount];\n        require(brand.brandAccount == address(0));\n        brands[brandAccount] = Brand({\n            brandAccount: brandAccount,\n            appAccount: msg.sender,\n            brandName: brandName,\n            active: true\n        });\n        brandAccounts.push(brandAccount);\n        BrandAdded(brandAccount, msg.sender, brandName, true);\n    }\n    function updateBrand(address brandAccount, string brandName, bool active) public {\n        Brand storage brand = brands[brandAccount];\n        require(brand.appAccount == msg.sender);\n        brand.brandName = brandName;\n        brand.active = active;\n\n        BrandUpdated(brandAccount, msg.sender, brandName, active);\n    }\n    function getBrand(address brandAccount) public constant returns (Brand brand) {\n        brand = brands[brandAccount];\n    }\n    function getBrandData(address brandAccount) public constant returns (address appAccount, address appFeeAccount, bool active) {\n        Brand storage brand = brands[brandAccount];\n        require(brand.appAccount != address(0));\n        App storage app = apps[brand.appAccount];\n        require(app.appAccount != address(0));\n        appAccount = app.appAccount;\n        appFeeAccount = app.feeAccount;\n        active = app.active && brand.active;\n    }\n    function brandAccountsLength() public constant returns (uint) {\n        return brandAccounts.length;\n    }\n\n    // ------------------------------------------------------------------------\n    // Brand account can add Product account\n    // ------------------------------------------------------------------------\n    function addProduct(address productAccount, string description, string details, uint year, string origin) public {\n        Brand storage brand = brands[msg.sender];\n        require(brand.brandAccount != address(0),\"brand account is not valid\");\n        App storage app = apps[brand.appAccount];\n        require(app.appAccount != address(0),\"app account is not valid\");\n        Product storage product = products[productAccount];\n        require(product.productAccount == address(0),\"product account is not valid\");\n        products[productAccount] = Product({\n            productAccount: productAccount,\n            brandAccount: msg.sender,\n            description: description,\n            details: details,\n            year: year,\n            origin: origin,\n            active: true\n        });\n        productAccounts.push(productAccount);\n        ProductAdded(productAccount, msg.sender, app.appAccount, description, true);\n    }\n    function updateProduct(address productAccount, string description, string details, uint year, string origin, bool active) public {\n        Product storage product = products[productAccount];\n        require(product.brandAccount == msg.sender);\n        Brand storage brand = brands[msg.sender];\n        require(brand.brandAccount == msg.sender);\n        App storage app = apps[brand.appAccount];\n        product.description = description;\n        product.details = details;\n        product.year = year;\n        product.origin = origin;\n        product.active = active;\n        ProductUpdated(productAccount, product.brandAccount, app.appAccount, description, active);\n    }\n    function getProduct(address productAccount) public constant returns (Product product) {\n        product = products[productAccount];\n    }\n    function getProductData(address productAccount) public constant returns (address brandAccount, address appAccount, address appFeeAccount, bool active) {\n        Product storage product = products[productAccount];\n        require(product.brandAccount != address(0));\n        Brand storage brand = brands[brandAccount];\n        require(brand.appAccount != address(0));\n        App storage app = apps[brand.appAccount];\n        require(app.appAccount != address(0));\n        brandAccount = product.brandAccount;\n        appAccount = app.appAccount;\n        appFeeAccount = app.feeAccount;\n        active = app.active && brand.active && brand.active;\n    }\n    function productAccountsLength() public constant returns (uint) {\n        return productAccounts.length;\n    }\n\n    // ------------------------------------------------------------------------\n    // Brand account can permission accounts as markers\n    // ------------------------------------------------------------------------\n    function permissionMarker(address marker, bool permission) public {\n        Brand storage brand = brands[msg.sender];\n        require(brand.brandAccount != address(0));\n        permissions[marker][msg.sender] = permission;\n        Permissioned(marker, msg.sender, permission);\n    }\n\n    // ------------------------------------------------------------------------\n    // Compute item hash from the public key\n    // ------------------------------------------------------------------------\n    function addressHash(address item) public pure returns (bytes32 hash) {\n        hash = keccak256(item);\n    }\n\n    // ------------------------------------------------------------------------\n    // Markers can add [productAccount, sha3(itemPublicKey)]\n    // ------------------------------------------------------------------------\n    function mark(address productAccount, bytes32 itemHash) public {\n        Product storage product = products[productAccount];\n        require(product.brandAccount != address(0) && product.active);\n        Brand storage brand = brands[product.brandAccount];\n        require(brand.brandAccount != address(0) && brand.active);\n        App storage app = apps[brand.appAccount];\n        require(app.appAccount != address(0) && app.active);\n        bool permissioned = permissions[msg.sender][brand.brandAccount];\n        require(permissioned);\n        markings[itemHash] = productAccount;\n        Marked(msg.sender, productAccount, app.feeAccount, feeAccount, app.fee, fee, itemHash);\n        if (app.fee > 0) {\n            token.transferFrom(brand.brandAccount, app.feeAccount, app.fee);\n        }\n        if (fee > 0) {\n            token.transferFrom(brand.brandAccount, feeAccount, fee);\n        }\n    }\n\n    // ------------------------------------------------------------------------\n    // Check itemPublicKey has been registered\n    // ------------------------------------------------------------------------\n    function check(address item) public constant returns (address productAccount, address brandAccount, address appAccount) {\n        bytes32 hash = keccak256(item);\n        productAccount = markings[hash];\n        // require(productAccount != address(0));\n        Product storage product = products[productAccount];\n        // require(product.brandAccount != address(0));\n        Brand storage brand = brands[product.brandAccount];\n        // require(brand.brandAccount != address(0));\n        brandAccount = product.brandAccount;\n        appAccount = brand.appAccount;\n    }\n}\n",
  "sourcePath": "/Users/victor/Documents/projects/js/deveryjs/contracts/v4/DeveryRegistry.sol",
  "compiler": {
    "name": "solc",
    "version": "0.4.26+commit.4563c3fc.Emscripten.clang"
  },
  "schemaVersion": "3.4.0",
  "updatedAt": "2021-06-03T15:23:48.869Z",
  "devdoc": {
    "methods": {}
  },
  "userdoc": {
    "methods": {}
  }
}