{
  "contractName": "DeveryERC721MetadataToken",
  "abi": [
    {
      "inputs": [],
      "stateMutability": "nonpayable",
      "type": "constructor"
    },
    {
      "anonymous": false,
      "inputs": [
        {
          "indexed": false,
          "internalType": "address",
          "name": "addr",
          "type": "address"
        }
      ],
      "name": "AdminAdded",
      "type": "event"
    },
    {
      "anonymous": false,
      "inputs": [
        {
          "indexed": false,
          "internalType": "address",
          "name": "addr",
          "type": "address"
        }
      ],
      "name": "AdminRemoved",
      "type": "event"
    },
    {
      "anonymous": false,
      "inputs": [
        {
          "indexed": true,
          "internalType": "address",
          "name": "owner",
          "type": "address"
        },
        {
          "indexed": true,
          "internalType": "address",
          "name": "approved",
          "type": "address"
        },
        {
          "indexed": true,
          "internalType": "uint256",
          "name": "tokenId",
          "type": "uint256"
        }
      ],
      "name": "Approval",
      "type": "event"
    },
    {
      "anonymous": false,
      "inputs": [
        {
          "indexed": true,
          "internalType": "address",
          "name": "owner",
          "type": "address"
        },
        {
          "indexed": true,
          "internalType": "address",
          "name": "operator",
          "type": "address"
        },
        {
          "indexed": false,
          "internalType": "bool",
          "name": "approved",
          "type": "bool"
        }
      ],
      "name": "ApprovalForAll",
      "type": "event"
    },
    {
      "anonymous": false,
      "inputs": [
        {
          "indexed": true,
          "internalType": "address",
          "name": "_from",
          "type": "address"
        },
        {
          "indexed": true,
          "internalType": "address",
          "name": "_to",
          "type": "address"
        }
      ],
      "name": "OwnershipTransferred",
      "type": "event"
    },
    {
      "anonymous": false,
      "inputs": [
        {
          "indexed": true,
          "internalType": "address",
          "name": "oldToken",
          "type": "address"
        },
        {
          "indexed": true,
          "internalType": "address",
          "name": "newToken",
          "type": "address"
        }
      ],
      "name": "TokenUpdated",
      "type": "event"
    },
    {
      "anonymous": false,
      "inputs": [
        {
          "indexed": true,
          "internalType": "address",
          "name": "from",
          "type": "address"
        },
        {
          "indexed": true,
          "internalType": "address",
          "name": "to",
          "type": "address"
        },
        {
          "indexed": true,
          "internalType": "uint256",
          "name": "tokenId",
          "type": "uint256"
        }
      ],
      "name": "Transfer",
      "type": "event"
    },
    {
      "inputs": [],
      "name": "acceptOwnership",
      "outputs": [],
      "stateMutability": "nonpayable",
      "type": "function"
    },
    {
      "inputs": [
        {
          "internalType": "address",
          "name": "addr",
          "type": "address"
        }
      ],
      "name": "addAdmin",
      "outputs": [],
      "stateMutability": "nonpayable",
      "type": "function"
    },
    {
      "inputs": [
        {
          "internalType": "address",
          "name": "",
          "type": "address"
        }
      ],
      "name": "admins",
      "outputs": [
        {
          "internalType": "bool",
          "name": "",
          "type": "bool"
        }
      ],
      "stateMutability": "view",
      "type": "function"
    },
    {
      "inputs": [
        {
          "internalType": "address",
          "name": "to",
          "type": "address"
        },
        {
          "internalType": "uint256",
          "name": "tokenId",
          "type": "uint256"
        }
      ],
      "name": "approve",
      "outputs": [],
      "stateMutability": "nonpayable",
      "type": "function"
    },
    {
      "inputs": [
        {
          "internalType": "address",
          "name": "owner",
          "type": "address"
        }
      ],
      "name": "balanceOf",
      "outputs": [
        {
          "internalType": "uint256",
          "name": "",
          "type": "uint256"
        }
      ],
      "stateMutability": "view",
      "type": "function"
    },
    {
      "inputs": [],
      "name": "baseURI",
      "outputs": [
        {
          "internalType": "string",
          "name": "",
          "type": "string"
        }
      ],
      "stateMutability": "view",
      "type": "function"
    },
    {
      "inputs": [
        {
          "internalType": "uint256",
          "name": "tokenId",
          "type": "uint256"
        }
      ],
      "name": "getApproved",
      "outputs": [
        {
          "internalType": "address",
          "name": "",
          "type": "address"
        }
      ],
      "stateMutability": "view",
      "type": "function"
    },
    {
      "inputs": [
        {
          "internalType": "address",
          "name": "addr",
          "type": "address"
        }
      ],
      "name": "isAdmin",
      "outputs": [
        {
          "internalType": "bool",
          "name": "",
          "type": "bool"
        }
      ],
      "stateMutability": "nonpayable",
      "type": "function"
    },
    {
      "inputs": [
        {
          "internalType": "address",
          "name": "owner",
          "type": "address"
        },
        {
          "internalType": "address",
          "name": "operator",
          "type": "address"
        }
      ],
      "name": "isApprovedForAll",
      "outputs": [
        {
          "internalType": "bool",
          "name": "",
          "type": "bool"
        }
      ],
      "stateMutability": "view",
      "type": "function"
    },
    {
      "inputs": [],
      "name": "name",
      "outputs": [
        {
          "internalType": "string",
          "name": "",
          "type": "string"
        }
      ],
      "stateMutability": "view",
      "type": "function"
    },
    {
      "inputs": [],
      "name": "newOwner",
      "outputs": [
        {
          "internalType": "address",
          "name": "",
          "type": "address"
        }
      ],
      "stateMutability": "view",
      "type": "function"
    },
    {
      "inputs": [],
      "name": "owner",
      "outputs": [
        {
          "internalType": "address",
          "name": "",
          "type": "address"
        }
      ],
      "stateMutability": "view",
      "type": "function"
    },
    {
      "inputs": [
        {
          "internalType": "uint256",
          "name": "tokenId",
          "type": "uint256"
        }
      ],
      "name": "ownerOf",
      "outputs": [
        {
          "internalType": "address",
          "name": "",
          "type": "address"
        }
      ],
      "stateMutability": "view",
      "type": "function"
    },
    {
      "inputs": [
        {
          "internalType": "address",
          "name": "addr",
          "type": "address"
        }
      ],
      "name": "removeAdmin",
      "outputs": [],
      "stateMutability": "nonpayable",
      "type": "function"
    },
    {
      "inputs": [
        {
          "internalType": "address",
          "name": "from",
          "type": "address"
        },
        {
          "internalType": "address",
          "name": "to",
          "type": "address"
        },
        {
          "internalType": "uint256",
          "name": "tokenId",
          "type": "uint256"
        }
      ],
      "name": "safeTransferFrom",
      "outputs": [],
      "stateMutability": "nonpayable",
      "type": "function"
    },
    {
      "inputs": [
        {
          "internalType": "address",
          "name": "from",
          "type": "address"
        },
        {
          "internalType": "address",
          "name": "to",
          "type": "address"
        },
        {
          "internalType": "uint256",
          "name": "tokenId",
          "type": "uint256"
        },
        {
          "internalType": "bytes",
          "name": "_data",
          "type": "bytes"
        }
      ],
      "name": "safeTransferFrom",
      "outputs": [],
      "stateMutability": "nonpayable",
      "type": "function"
    },
    {
      "inputs": [
        {
          "internalType": "address",
          "name": "operator",
          "type": "address"
        },
        {
          "internalType": "bool",
          "name": "approved",
          "type": "bool"
        }
      ],
      "name": "setApprovalForAll",
      "outputs": [],
      "stateMutability": "nonpayable",
      "type": "function"
    },
    {
      "inputs": [
        {
          "internalType": "bytes4",
          "name": "interfaceId",
          "type": "bytes4"
        }
      ],
      "name": "supportsInterface",
      "outputs": [
        {
          "internalType": "bool",
          "name": "",
          "type": "bool"
        }
      ],
      "stateMutability": "view",
      "type": "function"
    },
    {
      "inputs": [],
      "name": "symbol",
      "outputs": [
        {
          "internalType": "string",
          "name": "",
          "type": "string"
        }
      ],
      "stateMutability": "view",
      "type": "function"
    },
    {
      "inputs": [],
      "name": "token",
      "outputs": [
        {
          "internalType": "contract IERC20",
          "name": "",
          "type": "address"
        }
      ],
      "stateMutability": "view",
      "type": "function"
    },
    {
      "inputs": [
        {
          "internalType": "uint256",
          "name": "index",
          "type": "uint256"
        }
      ],
      "name": "tokenByIndex",
      "outputs": [
        {
          "internalType": "uint256",
          "name": "",
          "type": "uint256"
        }
      ],
      "stateMutability": "view",
      "type": "function"
    },
    {
      "inputs": [
        {
          "internalType": "uint256",
          "name": "",
          "type": "uint256"
        }
      ],
      "name": "tokenIdToProduct",
      "outputs": [
        {
          "internalType": "address",
          "name": "",
          "type": "address"
        }
      ],
      "stateMutability": "view",
      "type": "function"
    },
    {
      "inputs": [
        {
          "internalType": "address",
          "name": "owner",
          "type": "address"
        },
        {
          "internalType": "uint256",
          "name": "index",
          "type": "uint256"
        }
      ],
      "name": "tokenOfOwnerByIndex",
      "outputs": [
        {
          "internalType": "uint256",
          "name": "",
          "type": "uint256"
        }
      ],
      "stateMutability": "view",
      "type": "function"
    },
    {
      "inputs": [
        {
          "internalType": "uint256",
          "name": "tokenId",
          "type": "uint256"
        }
      ],
      "name": "tokenURI",
      "outputs": [
        {
          "internalType": "string",
          "name": "",
          "type": "string"
        }
      ],
      "stateMutability": "view",
      "type": "function"
    },
    {
      "inputs": [
        {
          "internalType": "address",
          "name": "",
          "type": "address"
        }
      ],
      "name": "totalAllowedProducts",
      "outputs": [
        {
          "internalType": "uint256",
          "name": "",
          "type": "uint256"
        }
      ],
      "stateMutability": "view",
      "type": "function"
    },
    {
      "inputs": [
        {
          "internalType": "address",
          "name": "",
          "type": "address"
        }
      ],
      "name": "totalMintedProducts",
      "outputs": [
        {
          "internalType": "uint256",
          "name": "",
          "type": "uint256"
        }
      ],
      "stateMutability": "view",
      "type": "function"
    },
    {
      "inputs": [],
      "name": "totalSupply",
      "outputs": [
        {
          "internalType": "uint256",
          "name": "",
          "type": "uint256"
        }
      ],
      "stateMutability": "view",
      "type": "function"
    },
    {
      "inputs": [
        {
          "internalType": "address",
          "name": "from",
          "type": "address"
        },
        {
          "internalType": "address",
          "name": "to",
          "type": "address"
        },
        {
          "internalType": "uint256",
          "name": "tokenId",
          "type": "uint256"
        }
      ],
      "name": "transferFrom",
      "outputs": [],
      "stateMutability": "nonpayable",
      "type": "function"
    },
    {
      "inputs": [
        {
          "internalType": "address",
          "name": "_newOwner",
          "type": "address"
        }
      ],
      "name": "transferOwnership",
      "outputs": [],
      "stateMutability": "nonpayable",
      "type": "function"
    },
    {
      "inputs": [
        {
          "internalType": "address",
          "name": "_token",
          "type": "address"
        }
      ],
      "name": "setToken",
      "outputs": [],
      "stateMutability": "nonpayable",
      "type": "function"
    },
    {
      "inputs": [
        {
          "internalType": "address",
          "name": "_deveryRegistryAddress",
          "type": "address"
        }
      ],
      "name": "setDeveryRegistryAddress",
      "outputs": [],
      "stateMutability": "nonpayable",
      "type": "function"
    },
    {
      "inputs": [
        {
          "internalType": "address",
          "name": "_productAddress",
          "type": "address"
        },
        {
          "internalType": "uint256",
          "name": "_quantity",
          "type": "uint256"
        }
      ],
      "name": "setMaximumMintableQuantity",
      "outputs": [],
      "stateMutability": "nonpayable",
      "type": "function"
    },
    {
      "inputs": [
        {
          "internalType": "address",
          "name": "_productAddress",
          "type": "address"
        },
        {
          "internalType": "uint256",
          "name": "_quantity",
          "type": "uint256"
        }
      ],
      "name": "claimProduct",
      "outputs": [],
      "stateMutability": "nonpayable",
      "type": "function"
    },
    {
      "inputs": [
        {
          "internalType": "address",
          "name": "_owner",
          "type": "address"
        }
      ],
      "name": "getProductsByOwner",
      "outputs": [
        {
          "internalType": "address[]",
          "name": "",
          "type": "address[]"
        }
      ],
      "stateMutability": "view",
      "type": "function"
    },
    {
      "inputs": [
        {
          "internalType": "uint256",
          "name": "tokenId",
          "type": "uint256"
        },
        {
          "internalType": "string",
          "name": "tokenUri",
          "type": "string"
        }
      ],
      "name": "setTokenUri",
      "outputs": [],
      "stateMutability": "nonpayable",
      "type": "function"
    }
  ],
  "bytecode": "0x60806040523480156200001157600080fd5b50604080518082018252601981527f4465766572794552433732314d65746164617461546f6b656e000000000000006020808301919091528251808401909352600683526511559153919560d21b9083015290620000766301ffc9a760e01b620000f2565b81516200008b90600690602085019062000177565b508051620000a190600790602084019062000177565b50620000b46380ac58cd60e01b620000f2565b620000c6635b5e139f60e01b620000f2565b620000d863780e9d6360e01b620000f2565b5050600a80546001600160a01b0319163317905562000223565b6001600160e01b0319808216141562000152576040805162461bcd60e51b815260206004820152601c60248201527f4552433136353a20696e76616c696420696e7465726661636520696400000000604482015290519081900360640190fd5b6001600160e01b0319166000908152602081905260409020805460ff19166001179055565b828054600181600116156101000203166002900490600052602060002090601f016020900481019282620001af5760008555620001fa565b82601f10620001ca57805160ff1916838001178555620001fa565b82800160010185558215620001fa579182015b82811115620001fa578251825591602001919060010190620001dd565b50620002089291506200020c565b5090565b5b808211156200020857600081556001016200020d565b61329780620002336000396000f3fe608060405234801561001057600080fd5b50600436106102115760003560e01c806357f7789e11610125578063b6f949c3116100ad578063d4ee1d901161007c578063d4ee1d9014610816578063e985e9c51461081e578063f2fde38b1461084c578063f5a2755614610872578063fc0c546a1461089857610211565b8063b6f949c3146106f2578063b88d4fde1461070f578063bc68118b146107d3578063c87b56dd146107f957610211565b806370a08231116100f457806370a082311461068657806379ba5097146106ac5780638da5cb5b146106b457806395d89b41146106bc578063a22cb465146106c457610211565b806357f7789e146105905780636352211e1461063b5780636c0360eb14610658578063704802751461066057610211565b806323b872dd116101a85780633dc7426e116101775780633dc7426e146104c557806342842e0e146104f1578063429b62e51461052757806344cb8f791461054d5780634f6ccce71461057357610211565b806323b872dd1461041157806324d7806c146104475780632f745c591461046d57806338ecdca91461049957610211565b80630fecef48116101e45780630fecef4814610335578063144fa6d7146103ab5780631785f53c146103d157806318160ddd146103f757610211565b806301ffc9a71461021657806306fdde0314610251578063081812fc146102ce578063095ea7b314610307575b600080fd5b61023d6004803603602081101561022c57600080fd5b50356001600160e01b0319166108a0565b604080519115158252519081900360200190f35b6102596108c3565b6040805160208082528351818301528351919283929083019185019080838360005b8381101561029357818101518382015260200161027b565b50505050905090810190601f1680156102c05780820380516001836020036101000a031916815260200191505b509250505060405180910390f35b6102eb600480360360208110156102e457600080fd5b5035610959565b604080516001600160a01b039092168252519081900360200190f35b6103336004803603604081101561031d57600080fd5b506001600160a01b0381351690602001356109bb565b005b61035b6004803603602081101561034b57600080fd5b50356001600160a01b0316610a96565b60408051602080825283518183015283519192839290830191858101910280838360005b8381101561039757818101518382015260200161037f565b505050509050019250505060405180910390f35b610333600480360360208110156103c157600080fd5b50356001600160a01b0316610b7c565b610333600480360360208110156103e757600080fd5b50356001600160a01b0316610bea565b6103ff610c7e565b60408051918252519081900360200190f35b6103336004803603606081101561042757600080fd5b506001600160a01b03813581169160208101359091169060400135610c8f565b61023d6004803603602081101561045d57600080fd5b50356001600160a01b0316610ce6565b6103ff6004803603604081101561048357600080fd5b506001600160a01b038135169060200135610d20565b610333600480360360408110156104af57600080fd5b506001600160a01b038135169060200135610d49565b610333600480360360408110156104db57600080fd5b506001600160a01b03813516906020013561186a565b6103336004803603606081101561050757600080fd5b506001600160a01b03813581169160208101359091169060400135611b72565b61023d6004803603602081101561053d57600080fd5b50356001600160a01b0316611b8d565b6103ff6004803603602081101561056357600080fd5b50356001600160a01b0316611ba2565b6103ff6004803603602081101561058957600080fd5b5035611bb4565b610333600480360360408110156105a657600080fd5b81359190810190604081016020820135600160201b8111156105c757600080fd5b8201836020820111156105d957600080fd5b803590602001918460018302840111600160201b831117156105fa57600080fd5b91908080601f016020809104026020016040519081016040528093929190818152602001838380828437600092019190915250929550611bca945050505050565b6102eb6004803603602081101561065157600080fd5b5035611bf5565b610259611c1d565b6103336004803603602081101561067657600080fd5b50356001600160a01b0316611c7e565b6103ff6004803603602081101561069c57600080fd5b50356001600160a01b0316611d30565b610333611d98565b6102eb611e15565b610259611e24565b610333600480360360408110156106da57600080fd5b506001600160a01b0381351690602001351515611e85565b6102eb6004803603602081101561070857600080fd5b5035611f8a565b6103336004803603608081101561072557600080fd5b6001600160a01b03823581169260208101359091169160408201359190810190608081016060820135600160201b81111561075f57600080fd5b82018360208201111561077157600080fd5b803590602001918460018302840111600160201b8311171561079257600080fd5b91908080601f016020809104026020016040519081016040528093929190818152602001838380828437600092019190915250929550611fb4945050505050565b610333600480360360208110156107e957600080fd5b50356001600160a01b0316612012565b6102596004803603602081101561080f57600080fd5b5035612046565b6102eb6122c9565b61023d6004803603604081101561083457600080fd5b506001600160a01b03813581169160200135166122d8565b6103336004803603602081101561086257600080fd5b50356001600160a01b0316612306565b6103ff6004803603602081101561088857600080fd5b50356001600160a01b031661233f565b6102eb612351565b6001600160e01b0319811660009081526020819052604090205460ff165b919050565b60068054604080516020601f600260001961010060018816150201909516949094049384018190048102820181019092528281526060939092909183018282801561094f5780601f106109245761010080835404028352916020019161094f565b820191906000526020600020905b81548152906001019060200180831161093257829003601f168201915b5050505050905090565b600061096482612360565b61099f5760405162461bcd60e51b815260040180806020018281038252602c815260200180613160602c913960400191505060405180910390fd5b506000908152600460205260409020546001600160a01b031690565b60006109c682611bf5565b9050806001600160a01b0316836001600160a01b03161415610a195760405162461bcd60e51b81526004018080602001828103825260218152602001806132106021913960400191505060405180910390fd5b806001600160a01b0316610a2b61236d565b6001600160a01b03161480610a4c5750610a4c81610a4761236d565b6122d8565b610a875760405162461bcd60e51b81526004018080602001828103825260388152602001806130b36038913960400191505060405180910390fd5b610a918383612371565b505050565b606080610aa283611d30565b67ffffffffffffffff81118015610ab857600080fd5b50604051908082528060200260200182016040528015610ae2578160200160208202803683370190505b5090506000805b600d54811015610b7357846001600160a01b0316610b0682611bf5565b6001600160a01b03161415610b6b57600d8181548110610b2257fe5b9060005260206000200160009054906101000a90046001600160a01b0316838381518110610b4c57fe5b6001600160a01b03909216602092830291909101909101526001909101905b600101610ae9565b50909392505050565b610b8533610ce6565b610b8e57600080fd5b6011546040516001600160a01b038084169216907f0b1186973f810894b87ab0bfbee422fddcaad21b46dc705a561451bbb6bac11790600090a3601180546001600160a01b0319166001600160a01b0392909216919091179055565b600a546001600160a01b03163314610c0157600080fd5b6001600160a01b0381166000908152600c602052604090205460ff16610c2657600080fd5b6001600160a01b0381166000818152600c6020908152604091829020805460ff19169055815192835290517fa3b62bc36326052d97ea62d63c3d60308ed4c3ea8ac079dd8499f1e9c4f80c0f9281900390910190a150565b6000610c8a60026123df565b905090565b610ca0610c9a61236d565b826123ea565b610cdb5760405162461bcd60e51b81526004018080602001828103825260318152602001806132316031913960400191505060405180910390fd5b610a9183838361248e565b6001600160a01b0381166000908152600c602052604081205460ff1680610d1a5750600a546001600160a01b038381169116145b92915050565b6001600160a01b0382166000908152600160205260408120610d4290836125da565b9392505050565b6010546040805163793a8e7160e01b81526001600160a01b03808616600483015291518593600093169163793a8e719160248083019286929190829003018186803b158015610d9757600080fd5b505afa158015610dab573d6000803e3d6000fd5b505050506040513d6000823e601f3d908101601f1916820160405260e0811015610dd457600080fd5b81516020830151604080850180519151939592948301929184600160201b821115610dfe57600080fd5b908301906020820185811115610e1357600080fd5b8251600160201b811182820188101715610e2c57600080fd5b82525081516020918201929091019080838360005b83811015610e59578181015183820152602001610e41565b50505050905090810190601f168015610e865780820380516001836020036101000a031916815260200191505b5060405260200180516040519392919084600160201b821115610ea857600080fd5b908301906020820185811115610ebd57600080fd5b8251600160201b811182820188101715610ed657600080fd5b82525081516020918201929091019080838360005b83811015610f03578181015183820152602001610eeb565b50505050905090810190601f168015610f305780820380516001836020036101000a031916815260200191505b50604081815260208301519201805192949193919284600160201b821115610f5757600080fd5b908301906020820185811115610f6c57600080fd5b8251600160201b811182820188101715610f8557600080fd5b82525081516020918201929091019080838360005b83811015610fb2578181015183820152602001610f9a565b50505050905090810190601f168015610fdf5780820380516001836020036101000a031916815260200191505b506040525095975050506001600160a01b03861633149450611005935050505057600080fd5b6001600160a01b0384166000908152600e6020526040902054158061105057506001600160a01b0384166000908152600f6020908152604080832054600e9092529091205490840111155b61105957600080fd5b6010546040805163793a8e7160e01b81526001600160a01b038781166004830152915160009384938493849384938493169163793a8e719160248083019286929190829003018186803b1580156110af57600080fd5b505afa1580156110c3573d6000803e3d6000fd5b505050506040513d6000823e601f3d908101601f1916820160405260e08110156110ec57600080fd5b81516020830151604080850180519151939592948301929184600160201b82111561111657600080fd5b90830190602082018581111561112b57600080fd5b8251600160201b81118282018810171561114457600080fd5b82525081516020918201929091019080838360005b83811015611171578181015183820152602001611159565b50505050905090810190601f16801561119e5780820380516001836020036101000a031916815260200191505b5060405260200180516040519392919084600160201b8211156111c057600080fd5b9083019060208201858111156111d557600080fd5b8251600160201b8111828201881017156111ee57600080fd5b82525081516020918201929091019080838360005b8381101561121b578181015183820152602001611203565b50505050905090810190601f1680156112485780820380516001836020036101000a031916815260200191505b50604081815260208301519201805192949193919284600160201b82111561126f57600080fd5b90830190602082018581111561128457600080fd5b8251600160201b81118282018810171561129d57600080fd5b82525081516020918201929091019080838360005b838110156112ca5781810151838201526020016112b2565b50505050905090810190601f1680156112f75780820380516001836020036101000a031916815260200191505b50604052602001805190602001909291905050509091929394955090919293509091925090915090505080965050601060009054906101000a90046001600160a01b03166001600160a01b0316635b7fd9b5876040518263ffffffff1660e01b815260040180826001600160a01b0316815260200191505060006040518083038186803b15801561138757600080fd5b505afa15801561139b573d6000803e3d6000fd5b505050506040513d6000823e601f3d908101601f1916820160405260808110156113c457600080fd5b81516020830151604080850180519151939592948301929184600160201b8211156113ee57600080fd5b90830190602082018581111561140357600080fd5b8251600160201b81118282018810171561141c57600080fd5b82525081516020918201929091019080838360005b83811015611449578181015183820152602001611431565b50505050905090810190601f1680156114765780820380516001836020036101000a031916815260200191505b506040818152601054631309ec4360e01b83526001600160a01b0380891660048501529151979d50169650631309ec43956024808301965060009550909350908390030190508186803b1580156114cc57600080fd5b505afa1580156114e0573d6000803e3d6000fd5b505050506040513d6000823e601f3d908101601f1916820160405260a081101561150957600080fd5b815160208301805160405192949293830192919084600160201b82111561152f57600080fd5b90830190602082018581111561154457600080fd5b8251600160201b81118282018810171561155d57600080fd5b82525081516020918201929091019080838360005b8381101561158a578181015183820152602001611572565b50505050905090810190601f1680156115b75780820380516001836020036101000a031916815260200191505b5060408181526020838101519382015160105463ddca3f4360e01b85529251949c5099506001600160a01b03909116965063ddca3f4395506004808301955090935090829003018186803b15801561160e57600080fd5b505afa158015611622573d6000803e3d6000fd5b505050506040513d602081101561163857600080fd5b5051601054604080516365e17c9d60e01b815290519293506001600160a01b03909116916365e17c9d91600480820192602092909190829003018186803b15801561168257600080fd5b505afa158015611696573d6000803e3d6000fd5b505050506040513d60208110156116ac57600080fd5b50519250811561174257601154604080516323b872dd60e01b81526001600160a01b0389811660048301528781166024830152858d026044830152915191909216916323b872dd9160648083019260209291908290030181600087803b15801561171557600080fd5b505af1158015611729573d6000803e3d6000fd5b505050506040513d602081101561173f57600080fd5b50505b80156117d457601154604080516323b872dd60e01b81526001600160a01b0389811660048301528681166024830152848d026044830152915191909216916323b872dd9160648083019260209291908290030181600087803b1580156117a757600080fd5b505af11580156117bb573d6000803e3d6000fd5b505050506040513d60208110156117d157600080fd5b50505b60005b8981101561183e57600d80546001810182556000919091527fd7b6990105719101dabeb77144f2a3385c8033acd3af97e9423a695e81ad1eb5810180546001600160a01b0319166001600160a01b038e1617905561183533826125e6565b506001016117d7565b5050506001600160a01b039097166000908152600f602052604090208054909601909555505050505050565b6010546040805163793a8e7160e01b81526001600160a01b03808616600483015291518593600093169163793a8e719160248083019286929190829003018186803b1580156118b857600080fd5b505afa1580156118cc573d6000803e3d6000fd5b505050506040513d6000823e601f3d908101601f1916820160405260e08110156118f557600080fd5b81516020830151604080850180519151939592948301929184600160201b82111561191f57600080fd5b90830190602082018581111561193457600080fd5b8251600160201b81118282018810171561194d57600080fd5b82525081516020918201929091019080838360005b8381101561197a578181015183820152602001611962565b50505050905090810190601f1680156119a75780820380516001836020036101000a031916815260200191505b5060405260200180516040519392919084600160201b8211156119c957600080fd5b9083019060208201858111156119de57600080fd5b8251600160201b8111828201881017156119f757600080fd5b82525081516020918201929091019080838360005b83811015611a24578181015183820152602001611a0c565b50505050905090810190601f168015611a515780820380516001836020036101000a031916815260200191505b50604081815260208301519201805192949193919284600160201b821115611a7857600080fd5b908301906020820185811115611a8d57600080fd5b8251600160201b811182820188101715611aa657600080fd5b82525081516020918201929091019080838360005b83811015611ad3578181015183820152602001611abb565b50505050905090810190601f168015611b005780820380516001836020036101000a031916815260200191505b506040525095975050506001600160a01b03861633149450611b26935050505057600080fd5b6001600160a01b0384166000908152600f602052604090205483101580611b4b575082155b611b5457600080fd5b50506001600160a01b039091166000908152600e6020526040902055565b610a9183838360405180602001604052806000815250611fb4565b600c6020526000908152604090205460ff1681565b600e6020526000908152604090205481565b600080611bc2600284612714565b509392505050565b33611bd483611bf5565b6001600160a01b031614611be757600080fd5b611bf18282612730565b5050565b6000610d1a826040518060600160405280602981526020016131156029913960029190612793565b60098054604080516020601f600260001961010060018816150201909516949094049384018190048102820181019092528281526060939092909183018282801561094f5780601f106109245761010080835404028352916020019161094f565b600a546001600160a01b03163314611c9557600080fd5b6001600160a01b0381166000908152600c602052604090205460ff16158015611ccc5750600a546001600160a01b03828116911614155b611cd557600080fd5b6001600160a01b0381166000818152600c6020908152604091829020805460ff19166001179055815192835290517f44d6d25963f097ad14f29f06854a01f575648a1ef82f30e562ccd3889717e3399281900390910190a150565b60006001600160a01b038216611d775760405162461bcd60e51b815260040180806020018281038252602a8152602001806130eb602a913960400191505060405180910390fd5b6001600160a01b0382166000908152600160205260409020610d1a906123df565b600b546001600160a01b03163314611daf57600080fd5b600b54600a546040516001600160a01b0392831692909116907f8be0079c531659141344cd1fd0a4f28419497f9722a3daafe3b4186f6b6457e090600090a3600b8054600a80546001600160a01b03199081166001600160a01b03841617909155169055565b600a546001600160a01b031681565b60078054604080516020601f600260001961010060018816150201909516949094049384018190048102820181019092528281526060939092909183018282801561094f5780601f106109245761010080835404028352916020019161094f565b611e8d61236d565b6001600160a01b0316826001600160a01b03161415611ef3576040805162461bcd60e51b815260206004820152601960248201527f4552433732313a20617070726f766520746f2063616c6c657200000000000000604482015290519081900360640190fd5b8060056000611f0061236d565b6001600160a01b03908116825260208083019390935260409182016000908120918716808252919093529120805460ff191692151592909217909155611f4461236d565b6001600160a01b03167f17307eab39ab6107e8899845ad3d59bd9653f200f220920489ca2b5937696c318360405180821515815260200191505060405180910390a35050565b600d8181548110611f9a57600080fd5b6000918252602090912001546001600160a01b0316905081565b611fc5611fbf61236d565b836123ea565b6120005760405162461bcd60e51b81526004018080602001828103825260318152602001806132316031913960400191505060405180910390fd5b61200c848484846127a0565b50505050565b61201b33610ce6565b61202457600080fd5b601080546001600160a01b0319166001600160a01b0392909216919091179055565b606061205182612360565b61208c5760405162461bcd60e51b815260040180806020018281038252602f8152602001806131e1602f913960400191505060405180910390fd5b60008281526008602090815260409182902080548351601f60026000196101006001861615020190931692909204918201849004840281018401909452808452606093928301828280156121215780601f106120f657610100808354040283529160200191612121565b820191906000526020600020905b81548152906001019060200180831161210457829003601f168201915b505050505090506060612132611c1d565b9050805160001415612146575090506108be565b8151156122075780826040516020018083805190602001908083835b602083106121815780518252601f199092019160209182019101612162565b51815160209384036101000a600019018019909216911617905285519190930192850191508083835b602083106121c95780518252601f1990920191602091820191016121aa565b6001836020036101000a03801982511681845116808217855250505050505090500192505050604051602081830303815290604052925050506108be565b80612211856127f2565b6040516020018083805190602001908083835b602083106122435780518252601f199092019160209182019101612224565b51815160209384036101000a600019018019909216911617905285519190930192850191508083835b6020831061228b5780518252601f19909201916020918201910161226c565b6001836020036101000a0380198251168184511680821785525050505050509050019250505060405160208183030381529060405292505050919050565b600b546001600160a01b031681565b6001600160a01b03918216600090815260056020908152604080832093909416825291909152205460ff1690565b600a546001600160a01b0316331461231d57600080fd5b600b80546001600160a01b0319166001600160a01b0392909216919091179055565b600f6020526000908152604090205481565b6011546001600160a01b031681565b6000610d1a6002836128cd565b3390565b600081815260046020526040902080546001600160a01b0319166001600160a01b03841690811790915581906123a682611bf5565b6001600160a01b03167f8c5be1e5ebec7d5bd14f71427d1e84f3dd0314c0f7b2291e5b200ac8c7c3b92560405160405180910390a45050565b6000610d1a826128d9565b60006123f582612360565b6124305760405162461bcd60e51b815260040180806020018281038252602c815260200180613087602c913960400191505060405180910390fd5b600061243b83611bf5565b9050806001600160a01b0316846001600160a01b031614806124765750836001600160a01b031661246b84610959565b6001600160a01b0316145b80612486575061248681856122d8565b949350505050565b826001600160a01b03166124a182611bf5565b6001600160a01b0316146124e65760405162461bcd60e51b81526004018080602001828103825260298152602001806131b86029913960400191505060405180910390fd5b6001600160a01b03821661252b5760405162461bcd60e51b81526004018080602001828103825260248152602001806130636024913960400191505060405180910390fd5b612536838383610a91565b612541600082612371565b6001600160a01b038316600090815260016020526040902061256390826128dd565b506001600160a01b038216600090815260016020526040902061258690826128e9565b50612593600282846128f5565b5080826001600160a01b0316846001600160a01b03167fddf252ad1be2c89b69c2b068fc378daa952ba7f163c4a11628f55a4df523b3ef60405160405180910390a4505050565b6000610d42838361290b565b6001600160a01b038216612641576040805162461bcd60e51b815260206004820181905260248201527f4552433732313a206d696e7420746f20746865207a65726f2061646472657373604482015290519081900360640190fd5b61264a81612360565b1561269c576040805162461bcd60e51b815260206004820152601c60248201527f4552433732313a20746f6b656e20616c7265616479206d696e74656400000000604482015290519081900360640190fd5b6126a860008383610a91565b6001600160a01b03821660009081526001602052604090206126ca90826128e9565b506126d7600282846128f5565b5060405181906001600160a01b038416906000907fddf252ad1be2c89b69c2b068fc378daa952ba7f163c4a11628f55a4df523b3ef908290a45050565b6000808080612723868661296f565b9097909650945050505050565b61273982612360565b6127745760405162461bcd60e51b815260040180806020018281038252602c81526020018061318c602c913960400191505060405180910390fd5b60008281526008602090815260409091208251610a9192840190612f6d565b60006124868484846129ea565b6127ab84848461248e565b6127b784848484612ab4565b61200c5760405162461bcd60e51b81526004018080602001828103825260328152602001806130316032913960400191505060405180910390fd5b60608161281757506040805180820190915260018152600360fc1b60208201526108be565b8160005b811561282f57600101600a8204915061281b565b60608167ffffffffffffffff8111801561284857600080fd5b506040519080825280601f01601f191660200182016040528015612873576020820181803683370190505b50859350905060001982015b83156128c457600a840660300160f81b828280600190039350815181106128a257fe5b60200101906001600160f81b031916908160001a905350600a8404935061287f565b50949350505050565b6000610d428383612c1c565b5490565b6000610d428383612c34565b6000610d428383612cfa565b600061248684846001600160a01b038516612d44565b8154600090821061294d5760405162461bcd60e51b815260040180806020018281038252602281526020018061300f6022913960400191505060405180910390fd5b82600001828154811061295c57fe5b9060005260206000200154905092915050565b8154600090819083106129b35760405162461bcd60e51b815260040180806020018281038252602281526020018061313e6022913960400191505060405180910390fd5b60008460000184815481106129c457fe5b906000526020600020906002020190508060000154816001015492509250509250929050565b60008281526001840160205260408120548281612a855760405162461bcd60e51b81526004018080602001828103825283818151815260200191508051906020019080838360005b83811015612a4a578181015183820152602001612a32565b50505050905090810190601f168015612a775780820380516001836020036101000a031916815260200191505b509250505060405180910390fd5b50846000016001820381548110612a9857fe5b9060005260206000209060020201600101549150509392505050565b6000612ac8846001600160a01b0316612ddb565b612ad457506001612486565b6060612be2630a85bd0160e11b612ae961236d565b88878760405160240180856001600160a01b03168152602001846001600160a01b0316815260200183815260200180602001828103825283818151815260200191508051906020019080838360005b83811015612b50578181015183820152602001612b38565b50505050905090810190601f168015612b7d5780820380516001836020036101000a031916815260200191505b5095505050505050604051602081830303815290604052906001600160e01b0319166020820180516001600160e01b038381831617835250505050604051806060016040528060328152602001613031603291396001600160a01b0388169190612de1565b90506000818060200190516020811015612bfb57600080fd5b50516001600160e01b031916630a85bd0160e11b1492505050949350505050565b60009081526001919091016020526040902054151590565b60008181526001830160205260408120548015612cf05783546000198083019190810190600090879083908110612c6757fe5b9060005260206000200154905080876000018481548110612c8457fe5b600091825260208083209091019290925582815260018981019092526040902090840190558654879080612cb457fe5b60019003818190600052602060002001600090559055866001016000878152602001908152602001600020600090556001945050505050610d1a565b6000915050610d1a565b6000612d068383612c1c565b612d3c57508154600181810184556000848152602080822090930184905584548482528286019093526040902091909155610d1a565b506000610d1a565b600082815260018401602052604081205480612da9575050604080518082018252838152602080820184815286546001818101895560008981528481209551600290930290950191825591519082015586548684528188019092529290912055610d42565b82856000016001830381548110612dbc57fe5b9060005260206000209060020201600101819055506000915050610d42565b3b151590565b6060612486848460008585612df585612ddb565b612e46576040805162461bcd60e51b815260206004820152601d60248201527f416464726573733a2063616c6c20746f206e6f6e2d636f6e7472616374000000604482015290519081900360640190fd5b60006060866001600160a01b031685876040518082805190602001908083835b60208310612e855780518252601f199092019160209182019101612e66565b6001836020036101000a03801982511681845116808217855250505050505090500191505060006040518083038185875af1925050503d8060008114612ee7576040519150601f19603f3d011682016040523d82523d6000602084013e612eec565b606091505b5091509150612efc828286612f07565b979650505050505050565b60608315612f16575081610d42565b825115612f265782518084602001fd5b60405162461bcd60e51b8152602060048201818152845160248401528451859391928392604401919085019080838360008315612a4a578181015183820152602001612a32565b828054600181600116156101000203166002900490600052602060002090601f016020900481019282612fa35760008555612fe9565b82601f10612fbc57805160ff1916838001178555612fe9565b82800160010185558215612fe9579182015b82811115612fe9578251825591602001919060010190612fce565b50612ff5929150612ff9565b5090565b5b80821115612ff55760008155600101612ffa56fe456e756d657261626c655365743a20696e646578206f7574206f6620626f756e64734552433732313a207472616e7366657220746f206e6f6e20455243373231526563656976657220696d706c656d656e7465724552433732313a207472616e7366657220746f20746865207a65726f20616464726573734552433732313a206f70657261746f7220717565727920666f72206e6f6e6578697374656e7420746f6b656e4552433732313a20617070726f76652063616c6c6572206973206e6f74206f776e6572206e6f7220617070726f76656420666f7220616c6c4552433732313a2062616c616e636520717565727920666f7220746865207a65726f20616464726573734552433732313a206f776e657220717565727920666f72206e6f6e6578697374656e7420746f6b656e456e756d657261626c654d61703a20696e646578206f7574206f6620626f756e64734552433732313a20617070726f76656420717565727920666f72206e6f6e6578697374656e7420746f6b656e4552433732314d657461646174613a2055524920736574206f66206e6f6e6578697374656e7420746f6b656e4552433732313a207472616e73666572206f6620746f6b656e2074686174206973206e6f74206f776e4552433732314d657461646174613a2055524920717565727920666f72206e6f6e6578697374656e7420746f6b656e4552433732313a20617070726f76616c20746f2063757272656e74206f776e65724552433732313a207472616e736665722063616c6c6572206973206e6f74206f776e6572206e6f7220617070726f766564a264697066735822122087b53f24b4ca24f7eac750be534c046e9a4fe2c580729166c47d6d4a520e554164736f6c63430007040033",
  "immutableReferences": {},
  "source": "// SPDX-License-Identifier: MIT\n\npragma solidity >=0.6.0 <0.8.0;\n\n\n// ----------------------------------------------------------------------------\n// Owned contract\n// ----------------------------------------------------------------------------\ncontract Owned {\n\n    address public owner;\n    address public newOwner;\n\n    event OwnershipTransferred(address indexed _from, address indexed _to);\n\n    modifier onlyOwner {\n        require(msg.sender == owner);\n        _;\n    }\n\n    constructor() public {\n        owner = msg.sender;\n    }\n    function transferOwnership(address _newOwner) public onlyOwner {\n        newOwner = _newOwner;\n    }\n    function acceptOwnership() public {\n        require(msg.sender == newOwner);\n        emit OwnershipTransferred(owner, newOwner);\n        owner = newOwner;\n        newOwner = 0x0000000000000000000000000000000000000000;\n    }\n}\n\n\n// ----------------------------------------------------------------------------\n// Administrators\n// ----------------------------------------------------------------------------\ncontract Admined is Owned {\n\n    mapping (address => bool) public admins;\n\n    event AdminAdded(address addr);\n    event AdminRemoved(address addr);\n\n    modifier onlyAdmin() {\n        require(isAdmin(msg.sender));\n        _;\n    }\n\n    function isAdmin(address addr) public returns (bool) {\n        return (admins[addr] || owner == addr);\n    }\n    function addAdmin(address addr) public onlyOwner {\n        require(!admins[addr] && addr != owner);\n        admins[addr] = true;\n        AdminAdded(addr);\n    }\n    function removeAdmin(address addr) public onlyOwner {\n        require(admins[addr]);\n        delete admins[addr];\n        AdminRemoved(addr);\n    }\n}\n\n\n/**\n * @dev Interface of the ERC165 standard, as defined in the\n * https://eips.ethereum.org/EIPS/eip-165[EIP].\n *\n * Implementers can declare support of contract interfaces, which can then be\n * queried by others ({ERC165Checker}).\n *\n * For an implementation, see {ERC165}.\n */\ninterface IERC165 {\n    /**\n     * @dev Returns true if this contract implements the interface defined by\n     * `interfaceId`. See the corresponding\n     * https://eips.ethereum.org/EIPS/eip-165#how-interfaces-are-identified[EIP section]\n     * to learn more about how these ids are created.\n     *\n     * This function call must use less than 30 000 gas.\n     */\n    function supportsInterface(bytes4 interfaceId) external view returns (bool);\n}\n\n\n\n\n/**\n * @dev Required interface of an ERC721 compliant contract.\n */\ninterface IERC721 is IERC165 {\n    /**\n     * @dev Emitted when `tokenId` token is transferred from `from` to `to`.\n     */\n    event Transfer(address indexed from, address indexed to, uint256 indexed tokenId);\n\n    /**\n     * @dev Emitted when `owner` enables `approved` to manage the `tokenId` token.\n     */\n    event Approval(address indexed owner, address indexed approved, uint256 indexed tokenId);\n\n    /**\n     * @dev Emitted when `owner` enables or disables (`approved`) `operator` to manage all of its assets.\n     */\n    event ApprovalForAll(address indexed owner, address indexed operator, bool approved);\n\n    /**\n     * @dev Returns the number of tokens in ``owner``'s account.\n     */\n    function balanceOf(address owner) external view returns (uint256 balance);\n\n    /**\n     * @dev Returns the owner of the `tokenId` token.\n     *\n     * Requirements:\n     *\n     * - `tokenId` must exist.\n     */\n    function ownerOf(uint256 tokenId) external view returns (address owner);\n\n    /**\n     * @dev Safely transfers `tokenId` token from `from` to `to`, checking first that contract recipients\n     * are aware of the ERC721 protocol to prevent tokens from being forever locked.\n     *\n     * Requirements:\n     *\n     * - `from` cannot be the zero address.\n     * - `to` cannot be the zero address.\n     * - `tokenId` token must exist and be owned by `from`.\n     * - If the caller is not `from`, it must be have been allowed to move this token by either {approve} or {setApprovalForAll}.\n     * - If `to` refers to a smart contract, it must implement {IERC721Receiver-onERC721Received}, which is called upon a safe transfer.\n     *\n     * Emits a {Transfer} event.\n     */\n    function safeTransferFrom(address from, address to, uint256 tokenId) external;\n\n    /**\n     * @dev Transfers `tokenId` token from `from` to `to`.\n     *\n     * WARNING: Usage of this method is discouraged, use {safeTransferFrom} whenever possible.\n     *\n     * Requirements:\n     *\n     * - `from` cannot be the zero address.\n     * - `to` cannot be the zero address.\n     * - `tokenId` token must be owned by `from`.\n     * - If the caller is not `from`, it must be approved to move this token by either {approve} or {setApprovalForAll}.\n     *\n     * Emits a {Transfer} event.\n     */\n    function transferFrom(address from, address to, uint256 tokenId) external;\n\n    /**\n     * @dev Gives permission to `to` to transfer `tokenId` token to another account.\n     * The approval is cleared when the token is transferred.\n     *\n     * Only a single account can be approved at a time, so approving the zero address clears previous approvals.\n     *\n     * Requirements:\n     *\n     * - The caller must own the token or be an approved operator.\n     * - `tokenId` must exist.\n     *\n     * Emits an {Approval} event.\n     */\n    function approve(address to, uint256 tokenId) external;\n\n    /**\n     * @dev Returns the account approved for `tokenId` token.\n     *\n     * Requirements:\n     *\n     * - `tokenId` must exist.\n     */\n    function getApproved(uint256 tokenId) external view returns (address operator);\n\n    /**\n     * @dev Approve or remove `operator` as an operator for the caller.\n     * Operators can call {transferFrom} or {safeTransferFrom} for any token owned by the caller.\n     *\n     * Requirements:\n     *\n     * - The `operator` cannot be the caller.\n     *\n     * Emits an {ApprovalForAll} event.\n     */\n    function setApprovalForAll(address operator, bool _approved) external;\n\n    /**\n     * @dev Returns if the `operator` is allowed to manage all of the assets of `owner`.\n     *\n     * See {setApprovalForAll}\n     */\n    function isApprovedForAll(address owner, address operator) external view returns (bool);\n\n    /**\n      * @dev Safely transfers `tokenId` token from `from` to `to`.\n      *\n      * Requirements:\n      *\n      * - `from` cannot be the zero address.\n      * - `to` cannot be the zero address.\n      * - `tokenId` token must exist and be owned by `from`.\n      * - If the caller is not `from`, it must be approved to move this token by either {approve} or {setApprovalForAll}.\n      * - If `to` refers to a smart contract, it must implement {IERC721Receiver-onERC721Received}, which is called upon a safe transfer.\n      *\n      * Emits a {Transfer} event.\n      */\n    function safeTransferFrom(address from, address to, uint256 tokenId, bytes calldata data) external;\n}\n\n\n\n\n/**\n * @dev String operations.\n */\nlibrary Strings {\n    /**\n     * @dev Converts a `uint256` to its ASCII `string` representation.\n     */\n    function toString(uint256 value) internal pure returns (string memory) {\n        // Inspired by OraclizeAPI's implementation - MIT licence\n        // https://github.com/oraclize/ethereum-api/blob/b42146b063c7d6ee1358846c198246239e9360e8/oraclizeAPI_0.4.25.sol\n\n        if (value == 0) {\n            return \"0\";\n        }\n        uint256 temp = value;\n        uint256 digits;\n        while (temp != 0) {\n            digits++;\n            temp /= 10;\n        }\n        bytes memory buffer = new bytes(digits);\n        uint256 index = digits - 1;\n        temp = value;\n        while (temp != 0) {\n            buffer[index--] = bytes1(uint8(48 + temp % 10));\n            temp /= 10;\n        }\n        return string(buffer);\n    }\n}\n\n\n\n\n\n\n/**\n * @title ERC-721 Non-Fungible Token Standard, optional metadata extension\n * @dev See https://eips.ethereum.org/EIPS/eip-721\n */\ninterface IERC721Metadata is IERC721 {\n\n    /**\n     * @dev Returns the token collection name.\n     */\n    function name() external view returns (string memory);\n\n    /**\n     * @dev Returns the token collection symbol.\n     */\n    function symbol() external view returns (string memory);\n\n    /**\n     * @dev Returns the Uniform Resource Identifier (URI) for `tokenId` token.\n     */\n    function tokenURI(uint256 tokenId) external view returns (string memory);\n}\n\n\n\n\n\n\n\n\n/*\n * @dev Provides information about the current execution context, including the\n * sender of the transaction and its data. While these are generally available\n * via msg.sender and msg.data, they should not be accessed in such a direct\n * manner, since when dealing with GSN meta-transactions the account sending and\n * paying for execution may not be the actual sender (as far as an application\n * is concerned).\n *\n * This contract is only required for intermediate, library-like contracts.\n */\nabstract contract Context {\n    function _msgSender() internal view virtual returns (address payable) {\n        return msg.sender;\n    }\n\n    function _msgData() internal view virtual returns (bytes memory) {\n        this; // silence state mutability warning without generating bytecode - see https://github.com/ethereum/solidity/issues/2691\n        return msg.data;\n    }\n}\n\n\n\n\n\n\n\n\n\n/**\n * @title ERC-721 Non-Fungible Token Standard, optional enumeration extension\n * @dev See https://eips.ethereum.org/EIPS/eip-721\n */\ninterface IERC721Enumerable is IERC721 {\n\n    /**\n     * @dev Returns the total amount of tokens stored by the contract.\n     */\n    function totalSupply() external view returns (uint256);\n\n    /**\n     * @dev Returns a token ID owned by `owner` at a given `index` of its token list.\n     * Use along with {balanceOf} to enumerate all of ``owner``'s tokens.\n     */\n    function tokenOfOwnerByIndex(address owner, uint256 index) external view returns (uint256 tokenId);\n\n    /**\n     * @dev Returns a token ID at a given `index` of all the tokens stored by the contract.\n     * Use along with {totalSupply} to enumerate all tokens.\n     */\n    function tokenByIndex(uint256 index) external view returns (uint256);\n}\n\n\n\n\n\n/**\n * @title ERC721 token receiver interface\n * @dev Interface for any contract that wants to support safeTransfers\n * from ERC721 asset contracts.\n */\ninterface IERC721Receiver {\n    /**\n     * @dev Whenever an {IERC721} `tokenId` token is transferred to this contract via {IERC721-safeTransferFrom}\n     * by `operator` from `from`, this function is called.\n     *\n     * It must return its Solidity selector to confirm the token transfer.\n     * If any other value is returned or the interface is not implemented by the recipient, the transfer will be reverted.\n     *\n     * The selector can be obtained in Solidity with `IERC721.onERC721Received.selector`.\n     */\n    function onERC721Received(address operator, address from, uint256 tokenId, bytes calldata data) external returns (bytes4);\n}\n\n\n\n\n\n\n\n/**\n * @dev Implementation of the {IERC165} interface.\n *\n * Contracts may inherit from this and call {_registerInterface} to declare\n * their support of an interface.\n */\nabstract contract ERC165 is IERC165 {\n    /*\n     * bytes4(keccak256('supportsInterface(bytes4)')) == 0x01ffc9a7\n     */\n    bytes4 private constant _INTERFACE_ID_ERC165 = 0x01ffc9a7;\n\n    /**\n     * @dev Mapping of interface ids to whether or not it's supported.\n     */\n    mapping(bytes4 => bool) private _supportedInterfaces;\n\n    constructor () internal {\n        // Derived contracts need only register support for their own interfaces,\n        // we register support for ERC165 itself here\n        _registerInterface(_INTERFACE_ID_ERC165);\n    }\n\n    /**\n     * @dev See {IERC165-supportsInterface}.\n     *\n     * Time complexity O(1), guaranteed to always use less than 30 000 gas.\n     */\n    function supportsInterface(bytes4 interfaceId) public view virtual override returns (bool) {\n        return _supportedInterfaces[interfaceId];\n    }\n\n    /**\n     * @dev Registers the contract as an implementer of the interface defined by\n     * `interfaceId`. Support of the actual ERC165 interface is automatic and\n     * registering its interface id is not required.\n     *\n     * See {IERC165-supportsInterface}.\n     *\n     * Requirements:\n     *\n     * - `interfaceId` cannot be the ERC165 invalid interface (`0xffffffff`).\n     */\n    function _registerInterface(bytes4 interfaceId) internal virtual {\n        require(interfaceId != 0xffffffff, \"ERC165: invalid interface id\");\n        _supportedInterfaces[interfaceId] = true;\n    }\n}\n\n\n\n\n\n/**\n * @dev Wrappers over Solidity's arithmetic operations with added overflow\n * checks.\n *\n * Arithmetic operations in Solidity wrap on overflow. This can easily result\n * in bugs, because programmers usually assume that an overflow raises an\n * error, which is the standard behavior in high level programming languages.\n * `SafeMath` restores this intuition by reverting the transaction when an\n * operation overflows.\n *\n * Using this library instead of the unchecked operations eliminates an entire\n * class of bugs, so it's recommended to use it always.\n */\nlibrary SafeMath {\n    /**\n     * @dev Returns the addition of two unsigned integers, with an overflow flag.\n     *\n     * _Available since v3.4._\n     */\n    function tryAdd(uint256 a, uint256 b) internal pure returns (bool, uint256) {\n        uint256 c = a + b;\n        if (c < a) return (false, 0);\n        return (true, c);\n    }\n\n    /**\n     * @dev Returns the substraction of two unsigned integers, with an overflow flag.\n     *\n     * _Available since v3.4._\n     */\n    function trySub(uint256 a, uint256 b) internal pure returns (bool, uint256) {\n        if (b > a) return (false, 0);\n        return (true, a - b);\n    }\n\n    /**\n     * @dev Returns the multiplication of two unsigned integers, with an overflow flag.\n     *\n     * _Available since v3.4._\n     */\n    function tryMul(uint256 a, uint256 b) internal pure returns (bool, uint256) {\n        // Gas optimization: this is cheaper than requiring 'a' not being zero, but the\n        // benefit is lost if 'b' is also tested.\n        // See: https://github.com/OpenZeppelin/openzeppelin-contracts/pull/522\n        if (a == 0) return (true, 0);\n        uint256 c = a * b;\n        if (c / a != b) return (false, 0);\n        return (true, c);\n    }\n\n    /**\n     * @dev Returns the division of two unsigned integers, with a division by zero flag.\n     *\n     * _Available since v3.4._\n     */\n    function tryDiv(uint256 a, uint256 b) internal pure returns (bool, uint256) {\n        if (b == 0) return (false, 0);\n        return (true, a / b);\n    }\n\n    /**\n     * @dev Returns the remainder of dividing two unsigned integers, with a division by zero flag.\n     *\n     * _Available since v3.4._\n     */\n    function tryMod(uint256 a, uint256 b) internal pure returns (bool, uint256) {\n        if (b == 0) return (false, 0);\n        return (true, a % b);\n    }\n\n    /**\n     * @dev Returns the addition of two unsigned integers, reverting on\n     * overflow.\n     *\n     * Counterpart to Solidity's `+` operator.\n     *\n     * Requirements:\n     *\n     * - Addition cannot overflow.\n     */\n    function add(uint256 a, uint256 b) internal pure returns (uint256) {\n        uint256 c = a + b;\n        require(c >= a, \"SafeMath: addition overflow\");\n        return c;\n    }\n\n    /**\n     * @dev Returns the subtraction of two unsigned integers, reverting on\n     * overflow (when the result is negative).\n     *\n     * Counterpart to Solidity's `-` operator.\n     *\n     * Requirements:\n     *\n     * - Subtraction cannot overflow.\n     */\n    function sub(uint256 a, uint256 b) internal pure returns (uint256) {\n        require(b <= a, \"SafeMath: subtraction overflow\");\n        return a - b;\n    }\n\n    /**\n     * @dev Returns the multiplication of two unsigned integers, reverting on\n     * overflow.\n     *\n     * Counterpart to Solidity's `*` operator.\n     *\n     * Requirements:\n     *\n     * - Multiplication cannot overflow.\n     */\n    function mul(uint256 a, uint256 b) internal pure returns (uint256) {\n        if (a == 0) return 0;\n        uint256 c = a * b;\n        require(c / a == b, \"SafeMath: multiplication overflow\");\n        return c;\n    }\n\n    /**\n     * @dev Returns the integer division of two unsigned integers, reverting on\n     * division by zero. The result is rounded towards zero.\n     *\n     * Counterpart to Solidity's `/` operator. Note: this function uses a\n     * `revert` opcode (which leaves remaining gas untouched) while Solidity\n     * uses an invalid opcode to revert (consuming all remaining gas).\n     *\n     * Requirements:\n     *\n     * - The divisor cannot be zero.\n     */\n    function div(uint256 a, uint256 b) internal pure returns (uint256) {\n        require(b > 0, \"SafeMath: division by zero\");\n        return a / b;\n    }\n\n    /**\n     * @dev Returns the remainder of dividing two unsigned integers. (unsigned integer modulo),\n     * reverting when dividing by zero.\n     *\n     * Counterpart to Solidity's `%` operator. This function uses a `revert`\n     * opcode (which leaves remaining gas untouched) while Solidity uses an\n     * invalid opcode to revert (consuming all remaining gas).\n     *\n     * Requirements:\n     *\n     * - The divisor cannot be zero.\n     */\n    function mod(uint256 a, uint256 b) internal pure returns (uint256) {\n        require(b > 0, \"SafeMath: modulo by zero\");\n        return a % b;\n    }\n\n    /**\n     * @dev Returns the subtraction of two unsigned integers, reverting with custom message on\n     * overflow (when the result is negative).\n     *\n     * CAUTION: This function is deprecated because it requires allocating memory for the error\n     * message unnecessarily. For custom revert reasons use {trySub}.\n     *\n     * Counterpart to Solidity's `-` operator.\n     *\n     * Requirements:\n     *\n     * - Subtraction cannot overflow.\n     */\n    function sub(uint256 a, uint256 b, string memory errorMessage) internal pure returns (uint256) {\n        require(b <= a, errorMessage);\n        return a - b;\n    }\n\n    /**\n     * @dev Returns the integer division of two unsigned integers, reverting with custom message on\n     * division by zero. The result is rounded towards zero.\n     *\n     * CAUTION: This function is deprecated because it requires allocating memory for the error\n     * message unnecessarily. For custom revert reasons use {tryDiv}.\n     *\n     * Counterpart to Solidity's `/` operator. Note: this function uses a\n     * `revert` opcode (which leaves remaining gas untouched) while Solidity\n     * uses an invalid opcode to revert (consuming all remaining gas).\n     *\n     * Requirements:\n     *\n     * - The divisor cannot be zero.\n     */\n    function div(uint256 a, uint256 b, string memory errorMessage) internal pure returns (uint256) {\n        require(b > 0, errorMessage);\n        return a / b;\n    }\n\n    /**\n     * @dev Returns the remainder of dividing two unsigned integers. (unsigned integer modulo),\n     * reverting with custom message when dividing by zero.\n     *\n     * CAUTION: This function is deprecated because it requires allocating memory for the error\n     * message unnecessarily. For custom revert reasons use {tryMod}.\n     *\n     * Counterpart to Solidity's `%` operator. This function uses a `revert`\n     * opcode (which leaves remaining gas untouched) while Solidity uses an\n     * invalid opcode to revert (consuming all remaining gas).\n     *\n     * Requirements:\n     *\n     * - The divisor cannot be zero.\n     */\n    function mod(uint256 a, uint256 b, string memory errorMessage) internal pure returns (uint256) {\n        require(b > 0, errorMessage);\n        return a % b;\n    }\n}\n\n\n\n\n\n/**\n * @dev Collection of functions related to the address type\n */\nlibrary Address {\n    /**\n     * @dev Returns true if `account` is a contract.\n     *\n     * [IMPORTANT]\n     * ====\n     * It is unsafe to assume that an address for which this function returns\n     * false is an externally-owned account (EOA) and not a contract.\n     *\n     * Among others, `isContract` will return false for the following\n     * types of addresses:\n     *\n     *  - an externally-owned account\n     *  - a contract in construction\n     *  - an address where a contract will be created\n     *  - an address where a contract lived, but was destroyed\n     * ====\n     */\n    function isContract(address account) internal view returns (bool) {\n        // This method relies on extcodesize, which returns 0 for contracts in\n        // construction, since the code is only stored at the end of the\n        // constructor execution.\n\n        uint256 size;\n        // solhint-disable-next-line no-inline-assembly\n        assembly { size := extcodesize(account) }\n        return size > 0;\n    }\n\n    /**\n     * @dev Replacement for Solidity's `transfer`: sends `amount` wei to\n     * `recipient`, forwarding all available gas and reverting on errors.\n     *\n     * https://eips.ethereum.org/EIPS/eip-1884[EIP1884] increases the gas cost\n     * of certain opcodes, possibly making contracts go over the 2300 gas limit\n     * imposed by `transfer`, making them unable to receive funds via\n     * `transfer`. {sendValue} removes this limitation.\n     *\n     * https://diligence.consensys.net/posts/2019/09/stop-using-soliditys-transfer-now/[Learn more].\n     *\n     * IMPORTANT: because control is transferred to `recipient`, care must be\n     * taken to not create reentrancy vulnerabilities. Consider using\n     * {ReentrancyGuard} or the\n     * https://solidity.readthedocs.io/en/v0.5.11/security-considerations.html#use-the-checks-effects-interactions-pattern[checks-effects-interactions pattern].\n     */\n    function sendValue(address payable recipient, uint256 amount) internal {\n        require(address(this).balance >= amount, \"Address: insufficient balance\");\n\n        // solhint-disable-next-line avoid-low-level-calls, avoid-call-value\n        (bool success, ) = recipient.call{ value: amount }(\"\");\n        require(success, \"Address: unable to send value, recipient may have reverted\");\n    }\n\n    /**\n     * @dev Performs a Solidity function call using a low level `call`. A\n     * plain`call` is an unsafe replacement for a function call: use this\n     * function instead.\n     *\n     * If `target` reverts with a revert reason, it is bubbled up by this\n     * function (like regular Solidity function calls).\n     *\n     * Returns the raw returned data. To convert to the expected return value,\n     * use https://solidity.readthedocs.io/en/latest/units-and-global-variables.html?highlight=abi.decode#abi-encoding-and-decoding-functions[`abi.decode`].\n     *\n     * Requirements:\n     *\n     * - `target` must be a contract.\n     * - calling `target` with `data` must not revert.\n     *\n     * _Available since v3.1._\n     */\n    function functionCall(address target, bytes memory data) internal returns (bytes memory) {\n      return functionCall(target, data, \"Address: low-level call failed\");\n    }\n\n    /**\n     * @dev Same as {xref-Address-functionCall-address-bytes-}[`functionCall`], but with\n     * `errorMessage` as a fallback revert reason when `target` reverts.\n     *\n     * _Available since v3.1._\n     */\n    function functionCall(address target, bytes memory data, string memory errorMessage) internal returns (bytes memory) {\n        return functionCallWithValue(target, data, 0, errorMessage);\n    }\n\n    /**\n     * @dev Same as {xref-Address-functionCall-address-bytes-}[`functionCall`],\n     * but also transferring `value` wei to `target`.\n     *\n     * Requirements:\n     *\n     * - the calling contract must have an ETH balance of at least `value`.\n     * - the called Solidity function must be `payable`.\n     *\n     * _Available since v3.1._\n     */\n    function functionCallWithValue(address target, bytes memory data, uint256 value) internal returns (bytes memory) {\n        return functionCallWithValue(target, data, value, \"Address: low-level call with value failed\");\n    }\n\n    /**\n     * @dev Same as {xref-Address-functionCallWithValue-address-bytes-uint256-}[`functionCallWithValue`], but\n     * with `errorMessage` as a fallback revert reason when `target` reverts.\n     *\n     * _Available since v3.1._\n     */\n    function functionCallWithValue(address target, bytes memory data, uint256 value, string memory errorMessage) internal returns (bytes memory) {\n        require(address(this).balance >= value, \"Address: insufficient balance for call\");\n        require(isContract(target), \"Address: call to non-contract\");\n\n        // solhint-disable-next-line avoid-low-level-calls\n        (bool success, bytes memory returndata) = target.call{ value: value }(data);\n        return _verifyCallResult(success, returndata, errorMessage);\n    }\n\n    /**\n     * @dev Same as {xref-Address-functionCall-address-bytes-}[`functionCall`],\n     * but performing a static call.\n     *\n     * _Available since v3.3._\n     */\n    function functionStaticCall(address target, bytes memory data) internal view returns (bytes memory) {\n        return functionStaticCall(target, data, \"Address: low-level static call failed\");\n    }\n\n    /**\n     * @dev Same as {xref-Address-functionCall-address-bytes-string-}[`functionCall`],\n     * but performing a static call.\n     *\n     * _Available since v3.3._\n     */\n    function functionStaticCall(address target, bytes memory data, string memory errorMessage) internal view returns (bytes memory) {\n        require(isContract(target), \"Address: static call to non-contract\");\n\n        // solhint-disable-next-line avoid-low-level-calls\n        (bool success, bytes memory returndata) = target.staticcall(data);\n        return _verifyCallResult(success, returndata, errorMessage);\n    }\n\n    /**\n     * @dev Same as {xref-Address-functionCall-address-bytes-}[`functionCall`],\n     * but performing a delegate call.\n     *\n     * _Available since v3.4._\n     */\n    function functionDelegateCall(address target, bytes memory data) internal returns (bytes memory) {\n        return functionDelegateCall(target, data, \"Address: low-level delegate call failed\");\n    }\n\n    /**\n     * @dev Same as {xref-Address-functionCall-address-bytes-string-}[`functionCall`],\n     * but performing a delegate call.\n     *\n     * _Available since v3.4._\n     */\n    function functionDelegateCall(address target, bytes memory data, string memory errorMessage) internal returns (bytes memory) {\n        require(isContract(target), \"Address: delegate call to non-contract\");\n\n        // solhint-disable-next-line avoid-low-level-calls\n        (bool success, bytes memory returndata) = target.delegatecall(data);\n        return _verifyCallResult(success, returndata, errorMessage);\n    }\n\n    function _verifyCallResult(bool success, bytes memory returndata, string memory errorMessage) private pure returns(bytes memory) {\n        if (success) {\n            return returndata;\n        } else {\n            // Look for revert reason and bubble it up if present\n            if (returndata.length > 0) {\n                // The easiest way to bubble the revert reason is using memory via assembly\n\n                // solhint-disable-next-line no-inline-assembly\n                assembly {\n                    let returndata_size := mload(returndata)\n                    revert(add(32, returndata), returndata_size)\n                }\n            } else {\n                revert(errorMessage);\n            }\n        }\n    }\n}\n\n\n\n\n\n/**\n * @dev Library for managing\n * https://en.wikipedia.org/wiki/Set_(abstract_data_type)[sets] of primitive\n * types.\n *\n * Sets have the following properties:\n *\n * - Elements are added, removed, and checked for existence in constant time\n * (O(1)).\n * - Elements are enumerated in O(n). No guarantees are made on the ordering.\n *\n * ```\n * contract Example {\n *     // Add the library methods\n *     using EnumerableSet for EnumerableSet.AddressSet;\n *\n *     // Declare a set state variable\n *     EnumerableSet.AddressSet private mySet;\n * }\n * ```\n *\n * As of v3.3.0, sets of type `bytes32` (`Bytes32Set`), `address` (`AddressSet`)\n * and `uint256` (`UintSet`) are supported.\n */\nlibrary EnumerableSet {\n    // To implement this library for multiple types with as little code\n    // repetition as possible, we write it in terms of a generic Set type with\n    // bytes32 values.\n    // The Set implementation uses private functions, and user-facing\n    // implementations (such as AddressSet) are just wrappers around the\n    // underlying Set.\n    // This means that we can only create new EnumerableSets for types that fit\n    // in bytes32.\n\n    struct Set {\n        // Storage of set values\n        bytes32[] _values;\n\n        // Position of the value in the `values` array, plus 1 because index 0\n        // means a value is not in the set.\n        mapping (bytes32 => uint256) _indexes;\n    }\n\n    /**\n     * @dev Add a value to a set. O(1).\n     *\n     * Returns true if the value was added to the set, that is if it was not\n     * already present.\n     */\n    function _add(Set storage set, bytes32 value) private returns (bool) {\n        if (!_contains(set, value)) {\n            set._values.push(value);\n            // The value is stored at length-1, but we add 1 to all indexes\n            // and use 0 as a sentinel value\n            set._indexes[value] = set._values.length;\n            return true;\n        } else {\n            return false;\n        }\n    }\n\n    /**\n     * @dev Removes a value from a set. O(1).\n     *\n     * Returns true if the value was removed from the set, that is if it was\n     * present.\n     */\n    function _remove(Set storage set, bytes32 value) private returns (bool) {\n        // We read and store the value's index to prevent multiple reads from the same storage slot\n        uint256 valueIndex = set._indexes[value];\n\n        if (valueIndex != 0) { // Equivalent to contains(set, value)\n            // To delete an element from the _values array in O(1), we swap the element to delete with the last one in\n            // the array, and then remove the last element (sometimes called as 'swap and pop').\n            // This modifies the order of the array, as noted in {at}.\n\n            uint256 toDeleteIndex = valueIndex - 1;\n            uint256 lastIndex = set._values.length - 1;\n\n            // When the value to delete is the last one, the swap operation is unnecessary. However, since this occurs\n            // so rarely, we still do the swap anyway to avoid the gas cost of adding an 'if' statement.\n\n            bytes32 lastvalue = set._values[lastIndex];\n\n            // Move the last value to the index where the value to delete is\n            set._values[toDeleteIndex] = lastvalue;\n            // Update the index for the moved value\n            set._indexes[lastvalue] = toDeleteIndex + 1; // All indexes are 1-based\n\n            // Delete the slot where the moved value was stored\n            set._values.pop();\n\n            // Delete the index for the deleted slot\n            delete set._indexes[value];\n\n            return true;\n        } else {\n            return false;\n        }\n    }\n\n    /**\n     * @dev Returns true if the value is in the set. O(1).\n     */\n    function _contains(Set storage set, bytes32 value) private view returns (bool) {\n        return set._indexes[value] != 0;\n    }\n\n    /**\n     * @dev Returns the number of values on the set. O(1).\n     */\n    function _length(Set storage set) private view returns (uint256) {\n        return set._values.length;\n    }\n\n   /**\n    * @dev Returns the value stored at position `index` in the set. O(1).\n    *\n    * Note that there are no guarantees on the ordering of values inside the\n    * array, and it may change when more values are added or removed.\n    *\n    * Requirements:\n    *\n    * - `index` must be strictly less than {length}.\n    */\n    function _at(Set storage set, uint256 index) private view returns (bytes32) {\n        require(set._values.length > index, \"EnumerableSet: index out of bounds\");\n        return set._values[index];\n    }\n\n    // Bytes32Set\n\n    struct Bytes32Set {\n        Set _inner;\n    }\n\n    /**\n     * @dev Add a value to a set. O(1).\n     *\n     * Returns true if the value was added to the set, that is if it was not\n     * already present.\n     */\n    function add(Bytes32Set storage set, bytes32 value) internal returns (bool) {\n        return _add(set._inner, value);\n    }\n\n    /**\n     * @dev Removes a value from a set. O(1).\n     *\n     * Returns true if the value was removed from the set, that is if it was\n     * present.\n     */\n    function remove(Bytes32Set storage set, bytes32 value) internal returns (bool) {\n        return _remove(set._inner, value);\n    }\n\n    /**\n     * @dev Returns true if the value is in the set. O(1).\n     */\n    function contains(Bytes32Set storage set, bytes32 value) internal view returns (bool) {\n        return _contains(set._inner, value);\n    }\n\n    /**\n     * @dev Returns the number of values in the set. O(1).\n     */\n    function length(Bytes32Set storage set) internal view returns (uint256) {\n        return _length(set._inner);\n    }\n\n   /**\n    * @dev Returns the value stored at position `index` in the set. O(1).\n    *\n    * Note that there are no guarantees on the ordering of values inside the\n    * array, and it may change when more values are added or removed.\n    *\n    * Requirements:\n    *\n    * - `index` must be strictly less than {length}.\n    */\n    function at(Bytes32Set storage set, uint256 index) internal view returns (bytes32) {\n        return _at(set._inner, index);\n    }\n\n    // AddressSet\n\n    struct AddressSet {\n        Set _inner;\n    }\n\n    /**\n     * @dev Add a value to a set. O(1).\n     *\n     * Returns true if the value was added to the set, that is if it was not\n     * already present.\n     */\n    function add(AddressSet storage set, address value) internal returns (bool) {\n        return _add(set._inner, bytes32(uint256(uint160(value))));\n    }\n\n    /**\n     * @dev Removes a value from a set. O(1).\n     *\n     * Returns true if the value was removed from the set, that is if it was\n     * present.\n     */\n    function remove(AddressSet storage set, address value) internal returns (bool) {\n        return _remove(set._inner, bytes32(uint256(uint160(value))));\n    }\n\n    /**\n     * @dev Returns true if the value is in the set. O(1).\n     */\n    function contains(AddressSet storage set, address value) internal view returns (bool) {\n        return _contains(set._inner, bytes32(uint256(uint160(value))));\n    }\n\n    /**\n     * @dev Returns the number of values in the set. O(1).\n     */\n    function length(AddressSet storage set) internal view returns (uint256) {\n        return _length(set._inner);\n    }\n\n   /**\n    * @dev Returns the value stored at position `index` in the set. O(1).\n    *\n    * Note that there are no guarantees on the ordering of values inside the\n    * array, and it may change when more values are added or removed.\n    *\n    * Requirements:\n    *\n    * - `index` must be strictly less than {length}.\n    */\n    function at(AddressSet storage set, uint256 index) internal view returns (address) {\n        return address(uint160(uint256(_at(set._inner, index))));\n    }\n\n\n    // UintSet\n\n    struct UintSet {\n        Set _inner;\n    }\n\n    /**\n     * @dev Add a value to a set. O(1).\n     *\n     * Returns true if the value was added to the set, that is if it was not\n     * already present.\n     */\n    function add(UintSet storage set, uint256 value) internal returns (bool) {\n        return _add(set._inner, bytes32(value));\n    }\n\n    /**\n     * @dev Removes a value from a set. O(1).\n     *\n     * Returns true if the value was removed from the set, that is if it was\n     * present.\n     */\n    function remove(UintSet storage set, uint256 value) internal returns (bool) {\n        return _remove(set._inner, bytes32(value));\n    }\n\n    /**\n     * @dev Returns true if the value is in the set. O(1).\n     */\n    function contains(UintSet storage set, uint256 value) internal view returns (bool) {\n        return _contains(set._inner, bytes32(value));\n    }\n\n    /**\n     * @dev Returns the number of values on the set. O(1).\n     */\n    function length(UintSet storage set) internal view returns (uint256) {\n        return _length(set._inner);\n    }\n\n   /**\n    * @dev Returns the value stored at position `index` in the set. O(1).\n    *\n    * Note that there are no guarantees on the ordering of values inside the\n    * array, and it may change when more values are added or removed.\n    *\n    * Requirements:\n    *\n    * - `index` must be strictly less than {length}.\n    */\n    function at(UintSet storage set, uint256 index) internal view returns (uint256) {\n        return uint256(_at(set._inner, index));\n    }\n}\n\n\n\n\n\n/**\n * @dev Library for managing an enumerable variant of Solidity's\n * https://solidity.readthedocs.io/en/latest/types.html#mapping-types[`mapping`]\n * type.\n *\n * Maps have the following properties:\n *\n * - Entries are added, removed, and checked for existence in constant time\n * (O(1)).\n * - Entries are enumerated in O(n). No guarantees are made on the ordering.\n *\n * ```\n * contract Example {\n *     // Add the library methods\n *     using EnumerableMap for EnumerableMap.UintToAddressMap;\n *\n *     // Declare a set state variable\n *     EnumerableMap.UintToAddressMap private myMap;\n * }\n * ```\n *\n * As of v3.0.0, only maps of type `uint256 -> address` (`UintToAddressMap`) are\n * supported.\n */\nlibrary EnumerableMap {\n    // To implement this library for multiple types with as little code\n    // repetition as possible, we write it in terms of a generic Map type with\n    // bytes32 keys and values.\n    // The Map implementation uses private functions, and user-facing\n    // implementations (such as Uint256ToAddressMap) are just wrappers around\n    // the underlying Map.\n    // This means that we can only create new EnumerableMaps for types that fit\n    // in bytes32.\n\n    struct MapEntry {\n        bytes32 _key;\n        bytes32 _value;\n    }\n\n    struct Map {\n        // Storage of map keys and values\n        MapEntry[] _entries;\n\n        // Position of the entry defined by a key in the `entries` array, plus 1\n        // because index 0 means a key is not in the map.\n        mapping (bytes32 => uint256) _indexes;\n    }\n\n    /**\n     * @dev Adds a key-value pair to a map, or updates the value for an existing\n     * key. O(1).\n     *\n     * Returns true if the key was added to the map, that is if it was not\n     * already present.\n     */\n    function _set(Map storage map, bytes32 key, bytes32 value) private returns (bool) {\n        // We read and store the key's index to prevent multiple reads from the same storage slot\n        uint256 keyIndex = map._indexes[key];\n\n        if (keyIndex == 0) { // Equivalent to !contains(map, key)\n            map._entries.push(MapEntry({ _key: key, _value: value }));\n            // The entry is stored at length-1, but we add 1 to all indexes\n            // and use 0 as a sentinel value\n            map._indexes[key] = map._entries.length;\n            return true;\n        } else {\n            map._entries[keyIndex - 1]._value = value;\n            return false;\n        }\n    }\n\n    /**\n     * @dev Removes a key-value pair from a map. O(1).\n     *\n     * Returns true if the key was removed from the map, that is if it was present.\n     */\n    function _remove(Map storage map, bytes32 key) private returns (bool) {\n        // We read and store the key's index to prevent multiple reads from the same storage slot\n        uint256 keyIndex = map._indexes[key];\n\n        if (keyIndex != 0) { // Equivalent to contains(map, key)\n            // To delete a key-value pair from the _entries array in O(1), we swap the entry to delete with the last one\n            // in the array, and then remove the last entry (sometimes called as 'swap and pop').\n            // This modifies the order of the array, as noted in {at}.\n\n            uint256 toDeleteIndex = keyIndex - 1;\n            uint256 lastIndex = map._entries.length - 1;\n\n            // When the entry to delete is the last one, the swap operation is unnecessary. However, since this occurs\n            // so rarely, we still do the swap anyway to avoid the gas cost of adding an 'if' statement.\n\n            MapEntry storage lastEntry = map._entries[lastIndex];\n\n            // Move the last entry to the index where the entry to delete is\n            map._entries[toDeleteIndex] = lastEntry;\n            // Update the index for the moved entry\n            map._indexes[lastEntry._key] = toDeleteIndex + 1; // All indexes are 1-based\n\n            // Delete the slot where the moved entry was stored\n            map._entries.pop();\n\n            // Delete the index for the deleted slot\n            delete map._indexes[key];\n\n            return true;\n        } else {\n            return false;\n        }\n    }\n\n    /**\n     * @dev Returns true if the key is in the map. O(1).\n     */\n    function _contains(Map storage map, bytes32 key) private view returns (bool) {\n        return map._indexes[key] != 0;\n    }\n\n    /**\n     * @dev Returns the number of key-value pairs in the map. O(1).\n     */\n    function _length(Map storage map) private view returns (uint256) {\n        return map._entries.length;\n    }\n\n   /**\n    * @dev Returns the key-value pair stored at position `index` in the map. O(1).\n    *\n    * Note that there are no guarantees on the ordering of entries inside the\n    * array, and it may change when more entries are added or removed.\n    *\n    * Requirements:\n    *\n    * - `index` must be strictly less than {length}.\n    */\n    function _at(Map storage map, uint256 index) private view returns (bytes32, bytes32) {\n        require(map._entries.length > index, \"EnumerableMap: index out of bounds\");\n\n        MapEntry storage entry = map._entries[index];\n        return (entry._key, entry._value);\n    }\n\n    /**\n     * @dev Tries to returns the value associated with `key`.  O(1).\n     * Does not revert if `key` is not in the map.\n     */\n    function _tryGet(Map storage map, bytes32 key) private view returns (bool, bytes32) {\n        uint256 keyIndex = map._indexes[key];\n        if (keyIndex == 0) return (false, 0); // Equivalent to contains(map, key)\n        return (true, map._entries[keyIndex - 1]._value); // All indexes are 1-based\n    }\n\n    /**\n     * @dev Returns the value associated with `key`.  O(1).\n     *\n     * Requirements:\n     *\n     * - `key` must be in the map.\n     */\n    function _get(Map storage map, bytes32 key) private view returns (bytes32) {\n        uint256 keyIndex = map._indexes[key];\n        require(keyIndex != 0, \"EnumerableMap: nonexistent key\"); // Equivalent to contains(map, key)\n        return map._entries[keyIndex - 1]._value; // All indexes are 1-based\n    }\n\n    /**\n     * @dev Same as {_get}, with a custom error message when `key` is not in the map.\n     *\n     * CAUTION: This function is deprecated because it requires allocating memory for the error\n     * message unnecessarily. For custom revert reasons use {_tryGet}.\n     */\n    function _get(Map storage map, bytes32 key, string memory errorMessage) private view returns (bytes32) {\n        uint256 keyIndex = map._indexes[key];\n        require(keyIndex != 0, errorMessage); // Equivalent to contains(map, key)\n        return map._entries[keyIndex - 1]._value; // All indexes are 1-based\n    }\n\n    // UintToAddressMap\n\n    struct UintToAddressMap {\n        Map _inner;\n    }\n\n    /**\n     * @dev Adds a key-value pair to a map, or updates the value for an existing\n     * key. O(1).\n     *\n     * Returns true if the key was added to the map, that is if it was not\n     * already present.\n     */\n    function set(UintToAddressMap storage map, uint256 key, address value) internal returns (bool) {\n        return _set(map._inner, bytes32(key), bytes32(uint256(uint160(value))));\n    }\n\n    /**\n     * @dev Removes a value from a set. O(1).\n     *\n     * Returns true if the key was removed from the map, that is if it was present.\n     */\n    function remove(UintToAddressMap storage map, uint256 key) internal returns (bool) {\n        return _remove(map._inner, bytes32(key));\n    }\n\n    /**\n     * @dev Returns true if the key is in the map. O(1).\n     */\n    function contains(UintToAddressMap storage map, uint256 key) internal view returns (bool) {\n        return _contains(map._inner, bytes32(key));\n    }\n\n    /**\n     * @dev Returns the number of elements in the map. O(1).\n     */\n    function length(UintToAddressMap storage map) internal view returns (uint256) {\n        return _length(map._inner);\n    }\n\n   /**\n    * @dev Returns the element stored at position `index` in the set. O(1).\n    * Note that there are no guarantees on the ordering of values inside the\n    * array, and it may change when more values are added or removed.\n    *\n    * Requirements:\n    *\n    * - `index` must be strictly less than {length}.\n    */\n    function at(UintToAddressMap storage map, uint256 index) internal view returns (uint256, address) {\n        (bytes32 key, bytes32 value) = _at(map._inner, index);\n        return (uint256(key), address(uint160(uint256(value))));\n    }\n\n    /**\n     * @dev Tries to returns the value associated with `key`.  O(1).\n     * Does not revert if `key` is not in the map.\n     *\n     * _Available since v3.4._\n     */\n    function tryGet(UintToAddressMap storage map, uint256 key) internal view returns (bool, address) {\n        (bool success, bytes32 value) = _tryGet(map._inner, bytes32(key));\n        return (success, address(uint160(uint256(value))));\n    }\n\n    /**\n     * @dev Returns the value associated with `key`.  O(1).\n     *\n     * Requirements:\n     *\n     * - `key` must be in the map.\n     */\n    function get(UintToAddressMap storage map, uint256 key) internal view returns (address) {\n        return address(uint160(uint256(_get(map._inner, bytes32(key)))));\n    }\n\n    /**\n     * @dev Same as {get}, with a custom error message when `key` is not in the map.\n     *\n     * CAUTION: This function is deprecated because it requires allocating memory for the error\n     * message unnecessarily. For custom revert reasons use {tryGet}.\n     */\n    function get(UintToAddressMap storage map, uint256 key, string memory errorMessage) internal view returns (address) {\n        return address(uint160(uint256(_get(map._inner, bytes32(key), errorMessage))));\n    }\n}\n\n\n\n/**\n * @title ERC721 Non-Fungible Token Standard basic implementation\n * @dev see https://eips.ethereum.org/EIPS/eip-721\n */\ncontract ERC721 is Context, ERC165, IERC721, IERC721Metadata, IERC721Enumerable {\n    using SafeMath for uint256;\n    using Address for address;\n    using EnumerableSet for EnumerableSet.UintSet;\n    using EnumerableMap for EnumerableMap.UintToAddressMap;\n    using Strings for uint256;\n\n    // Equals to `bytes4(keccak256(\"onERC721Received(address,address,uint256,bytes)\"))`\n    // which can be also obtained as `IERC721Receiver(0).onERC721Received.selector`\n    bytes4 private constant _ERC721_RECEIVED = 0x150b7a02;\n\n    // Mapping from holder address to their (enumerable) set of owned tokens\n    mapping (address => EnumerableSet.UintSet) private _holderTokens;\n\n    // Enumerable mapping from token ids to their owners\n    EnumerableMap.UintToAddressMap private _tokenOwners;\n\n    // Mapping from token ID to approved address\n    mapping (uint256 => address) private _tokenApprovals;\n\n    // Mapping from owner to operator approvals\n    mapping (address => mapping (address => bool)) private _operatorApprovals;\n\n    // Token name\n    string private _name;\n\n    // Token symbol\n    string private _symbol;\n\n    // Optional mapping for token URIs\n    mapping (uint256 => string) private _tokenURIs;\n\n    // Base URI\n    string private _baseURI;\n\n    /*\n     *     bytes4(keccak256('balanceOf(address)')) == 0x70a08231\n     *     bytes4(keccak256('ownerOf(uint256)')) == 0x6352211e\n     *     bytes4(keccak256('approve(address,uint256)')) == 0x095ea7b3\n     *     bytes4(keccak256('getApproved(uint256)')) == 0x081812fc\n     *     bytes4(keccak256('setApprovalForAll(address,bool)')) == 0xa22cb465\n     *     bytes4(keccak256('isApprovedForAll(address,address)')) == 0xe985e9c5\n     *     bytes4(keccak256('transferFrom(address,address,uint256)')) == 0x23b872dd\n     *     bytes4(keccak256('safeTransferFrom(address,address,uint256)')) == 0x42842e0e\n     *     bytes4(keccak256('safeTransferFrom(address,address,uint256,bytes)')) == 0xb88d4fde\n     *\n     *     => 0x70a08231 ^ 0x6352211e ^ 0x095ea7b3 ^ 0x081812fc ^\n     *        0xa22cb465 ^ 0xe985e9c5 ^ 0x23b872dd ^ 0x42842e0e ^ 0xb88d4fde == 0x80ac58cd\n     */\n    bytes4 private constant _INTERFACE_ID_ERC721 = 0x80ac58cd;\n\n    /*\n     *     bytes4(keccak256('name()')) == 0x06fdde03\n     *     bytes4(keccak256('symbol()')) == 0x95d89b41\n     *     bytes4(keccak256('tokenURI(uint256)')) == 0xc87b56dd\n     *\n     *     => 0x06fdde03 ^ 0x95d89b41 ^ 0xc87b56dd == 0x5b5e139f\n     */\n    bytes4 private constant _INTERFACE_ID_ERC721_METADATA = 0x5b5e139f;\n\n    /*\n     *     bytes4(keccak256('totalSupply()')) == 0x18160ddd\n     *     bytes4(keccak256('tokenOfOwnerByIndex(address,uint256)')) == 0x2f745c59\n     *     bytes4(keccak256('tokenByIndex(uint256)')) == 0x4f6ccce7\n     *\n     *     => 0x18160ddd ^ 0x2f745c59 ^ 0x4f6ccce7 == 0x780e9d63\n     */\n    bytes4 private constant _INTERFACE_ID_ERC721_ENUMERABLE = 0x780e9d63;\n\n    /**\n     * @dev Initializes the contract by setting a `name` and a `symbol` to the token collection.\n     */\n    constructor (string memory name_, string memory symbol_) public {\n        _name = name_;\n        _symbol = symbol_;\n\n        // register the supported interfaces to conform to ERC721 via ERC165\n        _registerInterface(_INTERFACE_ID_ERC721);\n        _registerInterface(_INTERFACE_ID_ERC721_METADATA);\n        _registerInterface(_INTERFACE_ID_ERC721_ENUMERABLE);\n    }\n\n    /**\n     * @dev See {IERC721-balanceOf}.\n     */\n    function balanceOf(address owner) public view virtual override returns (uint256) {\n        require(owner != address(0), \"ERC721: balance query for the zero address\");\n        return _holderTokens[owner].length();\n    }\n\n    /**\n     * @dev See {IERC721-ownerOf}.\n     */\n    function ownerOf(uint256 tokenId) public view virtual override returns (address) {\n        return _tokenOwners.get(tokenId, \"ERC721: owner query for nonexistent token\");\n    }\n\n    /**\n     * @dev See {IERC721Metadata-name}.\n     */\n    function name() public view virtual override returns (string memory) {\n        return _name;\n    }\n\n    /**\n     * @dev See {IERC721Metadata-symbol}.\n     */\n    function symbol() public view virtual override returns (string memory) {\n        return _symbol;\n    }\n\n    /**\n     * @dev See {IERC721Metadata-tokenURI}.\n     */\n    function tokenURI(uint256 tokenId) public view virtual override returns (string memory) {\n        require(_exists(tokenId), \"ERC721Metadata: URI query for nonexistent token\");\n\n        string memory _tokenURI = _tokenURIs[tokenId];\n        string memory base = baseURI();\n\n        // If there is no base URI, return the token URI.\n        if (bytes(base).length == 0) {\n            return _tokenURI;\n        }\n        // If both are set, concatenate the baseURI and tokenURI (via abi.encodePacked).\n        if (bytes(_tokenURI).length > 0) {\n            return string(abi.encodePacked(base, _tokenURI));\n        }\n        // If there is a baseURI but no tokenURI, concatenate the tokenID to the baseURI.\n        return string(abi.encodePacked(base, tokenId.toString()));\n    }\n\n    /**\n    * @dev Returns the base URI set via {_setBaseURI}. This will be\n    * automatically added as a prefix in {tokenURI} to each token's URI, or\n    * to the token ID if no specific URI is set for that token ID.\n    */\n    function baseURI() public view virtual returns (string memory) {\n        return _baseURI;\n    }\n\n    /**\n     * @dev See {IERC721Enumerable-tokenOfOwnerByIndex}.\n     */\n    function tokenOfOwnerByIndex(address owner, uint256 index) public view virtual override returns (uint256) {\n        return _holderTokens[owner].at(index);\n    }\n\n    /**\n     * @dev See {IERC721Enumerable-totalSupply}.\n     */\n    function totalSupply() public view virtual override returns (uint256) {\n        // _tokenOwners are indexed by tokenIds, so .length() returns the number of tokenIds\n        return _tokenOwners.length();\n    }\n\n    /**\n     * @dev See {IERC721Enumerable-tokenByIndex}.\n     */\n    function tokenByIndex(uint256 index) public view virtual override returns (uint256) {\n        (uint256 tokenId, ) = _tokenOwners.at(index);\n        return tokenId;\n    }\n\n    /**\n     * @dev See {IERC721-approve}.\n     */\n    function approve(address to, uint256 tokenId) public virtual override {\n        address owner = ERC721.ownerOf(tokenId);\n        require(to != owner, \"ERC721: approval to current owner\");\n\n        require(_msgSender() == owner || ERC721.isApprovedForAll(owner, _msgSender()),\n            \"ERC721: approve caller is not owner nor approved for all\"\n        );\n\n        _approve(to, tokenId);\n    }\n\n    /**\n     * @dev See {IERC721-getApproved}.\n     */\n    function getApproved(uint256 tokenId) public view virtual override returns (address) {\n        require(_exists(tokenId), \"ERC721: approved query for nonexistent token\");\n\n        return _tokenApprovals[tokenId];\n    }\n\n    /**\n     * @dev See {IERC721-setApprovalForAll}.\n     */\n    function setApprovalForAll(address operator, bool approved) public virtual override {\n        require(operator != _msgSender(), \"ERC721: approve to caller\");\n\n        _operatorApprovals[_msgSender()][operator] = approved;\n        emit ApprovalForAll(_msgSender(), operator, approved);\n    }\n\n    /**\n     * @dev See {IERC721-isApprovedForAll}.\n     */\n    function isApprovedForAll(address owner, address operator) public view virtual override returns (bool) {\n        return _operatorApprovals[owner][operator];\n    }\n\n    /**\n     * @dev See {IERC721-transferFrom}.\n     */\n    function transferFrom(address from, address to, uint256 tokenId) public virtual override {\n        //solhint-disable-next-line max-line-length\n        require(_isApprovedOrOwner(_msgSender(), tokenId), \"ERC721: transfer caller is not owner nor approved\");\n\n        _transfer(from, to, tokenId);\n    }\n\n    /**\n     * @dev See {IERC721-safeTransferFrom}.\n     */\n    function safeTransferFrom(address from, address to, uint256 tokenId) public virtual override {\n        safeTransferFrom(from, to, tokenId, \"\");\n    }\n\n    /**\n     * @dev See {IERC721-safeTransferFrom}.\n     */\n    function safeTransferFrom(address from, address to, uint256 tokenId, bytes memory _data) public virtual override {\n        require(_isApprovedOrOwner(_msgSender(), tokenId), \"ERC721: transfer caller is not owner nor approved\");\n        _safeTransfer(from, to, tokenId, _data);\n    }\n\n    /**\n     * @dev Safely transfers `tokenId` token from `from` to `to`, checking first that contract recipients\n     * are aware of the ERC721 protocol to prevent tokens from being forever locked.\n     *\n     * `_data` is additional data, it has no specified format and it is sent in call to `to`.\n     *\n     * This internal function is equivalent to {safeTransferFrom}, and can be used to e.g.\n     * implement alternative mechanisms to perform token transfer, such as signature-based.\n     *\n     * Requirements:\n     *\n     * - `from` cannot be the zero address.\n     * - `to` cannot be the zero address.\n     * - `tokenId` token must exist and be owned by `from`.\n     * - If `to` refers to a smart contract, it must implement {IERC721Receiver-onERC721Received}, which is called upon a safe transfer.\n     *\n     * Emits a {Transfer} event.\n     */\n    function _safeTransfer(address from, address to, uint256 tokenId, bytes memory _data) internal virtual {\n        _transfer(from, to, tokenId);\n        require(_checkOnERC721Received(from, to, tokenId, _data), \"ERC721: transfer to non ERC721Receiver implementer\");\n    }\n\n    /**\n     * @dev Returns whether `tokenId` exists.\n     *\n     * Tokens can be managed by their owner or approved accounts via {approve} or {setApprovalForAll}.\n     *\n     * Tokens start existing when they are minted (`_mint`),\n     * and stop existing when they are burned (`_burn`).\n     */\n    function _exists(uint256 tokenId) internal view virtual returns (bool) {\n        return _tokenOwners.contains(tokenId);\n    }\n\n    /**\n     * @dev Returns whether `spender` is allowed to manage `tokenId`.\n     *\n     * Requirements:\n     *\n     * - `tokenId` must exist.\n     */\n    function _isApprovedOrOwner(address spender, uint256 tokenId) internal view virtual returns (bool) {\n        require(_exists(tokenId), \"ERC721: operator query for nonexistent token\");\n        address owner = ERC721.ownerOf(tokenId);\n        return (spender == owner || getApproved(tokenId) == spender || ERC721.isApprovedForAll(owner, spender));\n    }\n\n    /**\n     * @dev Safely mints `tokenId` and transfers it to `to`.\n     *\n     * Requirements:\n     d*\n     * - `tokenId` must not exist.\n     * - If `to` refers to a smart contract, it must implement {IERC721Receiver-onERC721Received}, which is called upon a safe transfer.\n     *\n     * Emits a {Transfer} event.\n     */\n    function _safeMint(address to, uint256 tokenId) internal virtual {\n        _safeMint(to, tokenId, \"\");\n    }\n\n    /**\n     * @dev Same as {xref-ERC721-_safeMint-address-uint256-}[`_safeMint`], with an additional `data` parameter which is\n     * forwarded in {IERC721Receiver-onERC721Received} to contract recipients.\n     */\n    function _safeMint(address to, uint256 tokenId, bytes memory _data) internal virtual {\n        _mint(to, tokenId);\n        require(_checkOnERC721Received(address(0), to, tokenId, _data), \"ERC721: transfer to non ERC721Receiver implementer\");\n    }\n\n    /**\n     * @dev Mints `tokenId` and transfers it to `to`.\n     *\n     * WARNING: Usage of this method is discouraged, use {_safeMint} whenever possible\n     *\n     * Requirements:\n     *\n     * - `tokenId` must not exist.\n     * - `to` cannot be the zero address.\n     *\n     * Emits a {Transfer} event.\n     */\n    function _mint(address to, uint256 tokenId) internal virtual {\n        require(to != address(0), \"ERC721: mint to the zero address\");\n        require(!_exists(tokenId), \"ERC721: token already minted\");\n\n        _beforeTokenTransfer(address(0), to, tokenId);\n\n        _holderTokens[to].add(tokenId);\n\n        _tokenOwners.set(tokenId, to);\n\n        emit Transfer(address(0), to, tokenId);\n    }\n\n    /**\n     * @dev Destroys `tokenId`.\n     * The approval is cleared when the token is burned.\n     *\n     * Requirements:\n     *\n     * - `tokenId` must exist.\n     *\n     * Emits a {Transfer} event.\n     */\n    function _burn(uint256 tokenId) internal virtual {\n        address owner = ERC721.ownerOf(tokenId); // internal owner\n\n        _beforeTokenTransfer(owner, address(0), tokenId);\n\n        // Clear approvals\n        _approve(address(0), tokenId);\n\n        // Clear metadata (if any)\n        if (bytes(_tokenURIs[tokenId]).length != 0) {\n            delete _tokenURIs[tokenId];\n        }\n\n        _holderTokens[owner].remove(tokenId);\n\n        _tokenOwners.remove(tokenId);\n\n        emit Transfer(owner, address(0), tokenId);\n    }\n\n    /**\n     * @dev Transfers `tokenId` from `from` to `to`.\n     *  As opposed to {transferFrom}, this imposes no restrictions on msg.sender.\n     *\n     * Requirements:\n     *\n     * - `to` cannot be the zero address.\n     * - `tokenId` token must be owned by `from`.\n     *\n     * Emits a {Transfer} event.\n     */\n    function _transfer(address from, address to, uint256 tokenId) internal virtual {\n        require(ERC721.ownerOf(tokenId) == from, \"ERC721: transfer of token that is not own\"); // internal owner\n        require(to != address(0), \"ERC721: transfer to the zero address\");\n\n        _beforeTokenTransfer(from, to, tokenId);\n\n        // Clear approvals from the previous owner\n        _approve(address(0), tokenId);\n\n        _holderTokens[from].remove(tokenId);\n        _holderTokens[to].add(tokenId);\n\n        _tokenOwners.set(tokenId, to);\n\n        emit Transfer(from, to, tokenId);\n    }\n\n    /**\n     * @dev Sets `_tokenURI` as the tokenURI of `tokenId`.\n     *\n     * Requirements:\n     *\n     * - `tokenId` must exist.\n     */\n    function _setTokenURI(uint256 tokenId, string memory _tokenURI) internal virtual {\n        require(_exists(tokenId), \"ERC721Metadata: URI set of nonexistent token\");\n        _tokenURIs[tokenId] = _tokenURI;\n    }\n\n    /**\n     * @dev Internal function to set the base URI for all token IDs. It is\n     * automatically added as a prefix to the value returned in {tokenURI},\n     * or to the token ID if {tokenURI} is empty.\n     */\n    function _setBaseURI(string memory baseURI_) internal virtual {\n        _baseURI = baseURI_;\n    }\n\n    /**\n     * @dev Internal function to invoke {IERC721Receiver-onERC721Received} on a target address.\n     * The call is not executed if the target address is not a contract.\n     *\n     * @param from address representing the previous owner of the given token ID\n     * @param to target address that will receive the tokens\n     * @param tokenId uint256 ID of the token to be transferred\n     * @param _data bytes optional data to send along with the call\n     * @return bool whether the call correctly returned the expected magic value\n     */\n    function _checkOnERC721Received(address from, address to, uint256 tokenId, bytes memory _data)\n        private returns (bool)\n    {\n        if (!to.isContract()) {\n            return true;\n        }\n        bytes memory returndata = to.functionCall(abi.encodeWithSelector(\n            IERC721Receiver(to).onERC721Received.selector,\n            _msgSender(),\n            from,\n            tokenId,\n            _data\n        ), \"ERC721: transfer to non ERC721Receiver implementer\");\n        bytes4 retval = abi.decode(returndata, (bytes4));\n        return (retval == _ERC721_RECEIVED);\n    }\n\n    /**\n     * @dev Approve `to` to operate on `tokenId`\n     *\n     * Emits an {Approval} event.\n     */\n    function _approve(address to, uint256 tokenId) internal virtual {\n        _tokenApprovals[tokenId] = to;\n        emit Approval(ERC721.ownerOf(tokenId), to, tokenId); // internal owner\n    }\n\n    /**\n     * @dev Hook that is called before any token transfer. This includes minting\n     * and burning.\n     *\n     * Calling conditions:\n     *\n     * - When `from` and `to` are both non-zero, ``from``'s `tokenId` will be\n     * transferred to `to`.\n     * - When `from` is zero, `tokenId` will be minted for `to`.\n     * - When `to` is zero, ``from``'s `tokenId` will be burned.\n     * - `from` cannot be the zero address.\n     * - `to` cannot be the zero address.\n     *\n     * To learn more about hooks, head to xref:ROOT:extending-contracts.adoc#using-hooks[Using Hooks].\n     */\n    function _beforeTokenTransfer(address from, address to, uint256 tokenId) internal virtual { }\n}\n\n\ninterface IERC20 {\n  function totalSupply() external view returns (uint256);\n\n  function balanceOf(address who) external view returns (uint256);\n\n  function allowance(address owner, address spender)\n    external view returns (uint256);\n\n  function transfer(address to, uint256 value) external returns (bool);\n\n  function approve(address spender, uint256 value)\n    external returns (bool);\n\n  function transferFrom(address from, address to, uint256 value)\n    external returns (bool);\n\n  event Transfer(\n    address indexed from,\n    address indexed to,\n    uint256 value\n  );\n\n  event Approval(\n    address indexed owner,\n    address indexed spender,\n    uint256 value\n  );\n}\n\ncontract DeveryRegistry{\n    struct App {\n        address appAccount;\n        string appName;\n        address feeAccount;\n        uint fee;\n        bool active;\n    }\n    struct Brand {\n        address brandAccount;\n        address appAccount;\n        string brandName;\n        bool active;\n    }\n    struct Product {\n        address productAccount;\n        address brandAccount;\n        string description;\n        string details;\n        uint year;\n        string origin;\n        bool active;\n    }\n    \n    address public feeAccount;\n    uint public fee;\n    mapping(address => App) public apps;\n    mapping(address => Brand) public brands;\n    mapping(address => Product) public products;\n}\n\n\ncontract DeveryERC721MetadataToken is ERC721,Admined {\n\n    constructor() ERC721(\"DeveryERC721MetadataToken\", \"EVENFT\") public {\n      \n    }\n\n    address[] public tokenIdToProduct;\n    mapping(address => uint) public totalAllowedProducts;\n    mapping(address => uint) public totalMintedProducts;\n    DeveryRegistry deveryRegistry;\n    IERC20 public token;\n\n    event TokenUpdated(address indexed oldToken, address indexed newToken);\n\n\n    function setToken(address _token) public onlyAdmin   {\n        TokenUpdated(address(token), _token);\n        token = IERC20(_token);\n    }\n\n    /**\n      * @dev modifier to enforce that only the brand that created a given product can change it\n      * this modifier will check the core devery registry to fetch the brand address.\n      */\n    modifier brandOwnerOnly(address _productAddress){\n        address productBrandAddress;\n        (,productBrandAddress,,,,,) = deveryRegistry.products(_productAddress);\n        require(productBrandAddress == msg.sender);\n        _;\n    }\n\n    /**\n      * @dev Allow contract admins to set the address of Core Devery Registry contract\n      */\n    function setDeveryRegistryAddress(address _deveryRegistryAddress) external onlyAdmin  {\n        deveryRegistry = DeveryRegistry(_deveryRegistryAddress);\n    }\n\n    /**\n      * @dev adjusts the maximum mintable amount of a certain product\n      */\n    function setMaximumMintableQuantity(address _productAddress, uint _quantity) public brandOwnerOnly(_productAddress) {\n        require(_quantity >= totalMintedProducts[_productAddress] || _quantity == 0);\n        totalAllowedProducts[_productAddress] = _quantity;\n    }\n\n    /**\n     * @dev mint a new ERC721 token for a given product and assing it to the original product brand;\n     */\n    function claimProduct(address _productAddress,uint _quantity) public  brandOwnerOnly(_productAddress) {\n        require(totalAllowedProducts[_productAddress] == 0 || totalAllowedProducts[_productAddress] >= totalMintedProducts[_productAddress] + _quantity);\n        //********************************************************************charges the fee****************************************\n        address productBrandAddress;\n        address appAccountAddress;\n        address appFeeAccount;\n        address deveryFeeAccount;\n        uint appFee;\n        uint deveryFee;\n        (,productBrandAddress,,,,,) = deveryRegistry.products(_productAddress);\n        (,appAccountAddress,,) = deveryRegistry.brands(productBrandAddress);\n        (,,appFeeAccount,appFee,) = deveryRegistry.apps(appAccountAddress);\n        deveryFee = deveryRegistry.fee();\n        deveryFeeAccount = deveryRegistry.feeAccount();\n        if (appFee > 0) {\n            token.transferFrom(productBrandAddress, appFeeAccount, appFee*_quantity);\n        }\n        if (deveryFee > 0) {\n            token.transferFrom(productBrandAddress, deveryFeeAccount, deveryFee*_quantity);\n        }\n        //********************************************************************charges the fee****************************************\n        for(uint i = 0;i<_quantity;i++){\n            uint nextId = tokenIdToProduct.length;\n            tokenIdToProduct.push(_productAddress);\n            _mint(msg.sender,nextId);\n        }\n\n        totalMintedProducts[_productAddress]+=_quantity;\n    }\n\n    /**\n      * @dev returns the products owned by a given ethereum address\n      */\n    function getProductsByOwner(address _owner) external view returns (address[] memory){\n        address[] memory products = new address[](balanceOf(_owner));\n        uint counter = 0;\n        for(uint i = 0; i < tokenIdToProduct.length;i++){\n            if(ownerOf(i) == _owner){\n                products[counter] = tokenIdToProduct[i];\n                counter++;\n            }\n        }\n        return products;\n    }\n    \n    function setTokenUri(uint tokenId,string memory tokenUri) public {\n        //\"only the token owner is allowed to do this\"\n        require(ownerOf(tokenId) == msg.sender);\n        _setTokenURI(tokenId, tokenUri);\n    }\n}\n",
  "sourcePath": "/Users/victor/Documents/projects/js/deveryjs/contracts/v6/DeveryERC721MetadataToken.sol",
  "compiler": {
    "name": "solc",
    "version": "0.7.4+commit.3f05b770.Emscripten.clang"
  },
  "schemaVersion": "3.4.0",
  "updatedAt": "2021-06-03T15:23:23.097Z",
  "devdoc": {
    "kind": "dev",
    "methods": {
      "approve(address,uint256)": {
        "details": "See {IERC721-approve}."
      },
      "balanceOf(address)": {
        "details": "See {IERC721-balanceOf}."
      },
      "baseURI()": {
        "details": "Returns the base URI set via {_setBaseURI}. This will be automatically added as a prefix in {tokenURI} to each token's URI, or to the token ID if no specific URI is set for that token ID."
      },
      "claimProduct(address,uint256)": {
        "details": "mint a new ERC721 token for a given product and assing it to the original product brand;"
      },
      "getApproved(uint256)": {
        "details": "See {IERC721-getApproved}."
      },
      "getProductsByOwner(address)": {
        "details": "returns the products owned by a given ethereum address"
      },
      "isApprovedForAll(address,address)": {
        "details": "See {IERC721-isApprovedForAll}."
      },
      "name()": {
        "details": "See {IERC721Metadata-name}."
      },
      "ownerOf(uint256)": {
        "details": "See {IERC721-ownerOf}."
      },
      "safeTransferFrom(address,address,uint256)": {
        "details": "See {IERC721-safeTransferFrom}."
      },
      "safeTransferFrom(address,address,uint256,bytes)": {
        "details": "See {IERC721-safeTransferFrom}."
      },
      "setApprovalForAll(address,bool)": {
        "details": "See {IERC721-setApprovalForAll}."
      },
      "setDeveryRegistryAddress(address)": {
        "details": "Allow contract admins to set the address of Core Devery Registry contract"
      },
      "setMaximumMintableQuantity(address,uint256)": {
        "details": "adjusts the maximum mintable amount of a certain product"
      },
      "supportsInterface(bytes4)": {
        "details": "See {IERC165-supportsInterface}. Time complexity O(1), guaranteed to always use less than 30 000 gas."
      },
      "symbol()": {
        "details": "See {IERC721Metadata-symbol}."
      },
      "tokenByIndex(uint256)": {
        "details": "See {IERC721Enumerable-tokenByIndex}."
      },
      "tokenOfOwnerByIndex(address,uint256)": {
        "details": "See {IERC721Enumerable-tokenOfOwnerByIndex}."
      },
      "tokenURI(uint256)": {
        "details": "See {IERC721Metadata-tokenURI}."
      },
      "totalSupply()": {
        "details": "See {IERC721Enumerable-totalSupply}."
      },
      "transferFrom(address,address,uint256)": {
        "details": "See {IERC721-transferFrom}."
      }
    },
    "version": 1
  },
  "userdoc": {
    "kind": "user",
    "methods": {},
    "version": 1
  }
}