{
  "contractName": "DeveryRegistry",
  "abi": [
    {
      "constant": true,
      "inputs": [
        {
          "name": "",
          "type": "uint256"
        }
      ],
      "name": "brandAccounts",
      "outputs": [
        {
          "name": "",
          "type": "address"
        }
      ],
      "payable": false,
      "stateMutability": "view",
      "type": "function"
    },
    {
      "constant": true,
      "inputs": [
        {
          "name": "",
          "type": "address"
        }
      ],
      "name": "apps",
      "outputs": [
        {
          "name": "appAccount",
          "type": "address"
        },
        {
          "name": "appName",
          "type": "string"
        },
        {
          "name": "feeAccount",
          "type": "address"
        },
        {
          "name": "fee",
          "type": "uint256"
        },
        {
          "name": "active",
          "type": "bool"
        }
      ],
      "payable": false,
      "stateMutability": "view",
      "type": "function"
    },
    {
      "constant": false,
      "inputs": [
        {
          "name": "addr",
          "type": "address"
        }
      ],
      "name": "removeAdmin",
      "outputs": [],
      "payable": false,
      "stateMutability": "nonpayable",
      "type": "function"
    },
    {
      "constant": true,
      "inputs": [
        {
          "name": "addr",
          "type": "address"
        }
      ],
      "name": "isAdmin",
      "outputs": [
        {
          "name": "",
          "type": "bool"
        }
      ],
      "payable": false,
      "stateMutability": "view",
      "type": "function"
    },
    {
      "constant": true,
      "inputs": [
        {
          "name": "",
          "type": "uint256"
        }
      ],
      "name": "productAccounts",
      "outputs": [
        {
          "name": "",
          "type": "address"
        }
      ],
      "payable": false,
      "stateMutability": "view",
      "type": "function"
    },
    {
      "constant": true,
      "inputs": [
        {
          "name": "",
          "type": "address"
        }
      ],
      "name": "admins",
      "outputs": [
        {
          "name": "",
          "type": "bool"
        }
      ],
      "payable": false,
      "stateMutability": "view",
      "type": "function"
    },
    {
      "constant": true,
      "inputs": [
        {
          "name": "",
          "type": "uint256"
        }
      ],
      "name": "appAccounts",
      "outputs": [
        {
          "name": "",
          "type": "address"
        }
      ],
      "payable": false,
      "stateMutability": "view",
      "type": "function"
    },
    {
      "constant": true,
      "inputs": [
        {
          "name": "",
          "type": "address"
        }
      ],
      "name": "brands",
      "outputs": [
        {
          "name": "brandAccount",
          "type": "address"
        },
        {
          "name": "appAccount",
          "type": "address"
        },
        {
          "name": "brandName",
          "type": "string"
        },
        {
          "name": "active",
          "type": "bool"
        }
      ],
      "payable": false,
      "stateMutability": "view",
      "type": "function"
    },
    {
      "constant": true,
      "inputs": [],
      "name": "feeAccount",
      "outputs": [
        {
          "name": "",
          "type": "address"
        }
      ],
      "payable": false,
      "stateMutability": "view",
      "type": "function"
    },
    {
      "constant": false,
      "inputs": [
        {
          "name": "addr",
          "type": "address"
        }
      ],
      "name": "addAdmin",
      "outputs": [],
      "payable": false,
      "stateMutability": "nonpayable",
      "type": "function"
    },
    {
      "constant": true,
      "inputs": [
        {
          "name": "",
          "type": "address"
        }
      ],
      "name": "products",
      "outputs": [
        {
          "name": "productAccount",
          "type": "address"
        },
        {
          "name": "brandAccount",
          "type": "address"
        },
        {
          "name": "description",
          "type": "string"
        },
        {
          "name": "details",
          "type": "string"
        },
        {
          "name": "year",
          "type": "uint256"
        },
        {
          "name": "origin",
          "type": "string"
        },
        {
          "name": "active",
          "type": "bool"
        }
      ],
      "payable": false,
      "stateMutability": "view",
      "type": "function"
    },
    {
      "constant": false,
      "inputs": [],
      "name": "acceptOwnership",
      "outputs": [],
      "payable": false,
      "stateMutability": "nonpayable",
      "type": "function"
    },
    {
      "constant": true,
      "inputs": [],
      "name": "owner",
      "outputs": [
        {
          "name": "",
          "type": "address"
        }
      ],
      "payable": false,
      "stateMutability": "view",
      "type": "function"
    },
    {
      "constant": true,
      "inputs": [],
      "name": "newOwner",
      "outputs": [
        {
          "name": "",
          "type": "address"
        }
      ],
      "payable": false,
      "stateMutability": "view",
      "type": "function"
    },
    {
      "constant": true,
      "inputs": [],
      "name": "fee",
      "outputs": [
        {
          "name": "",
          "type": "uint256"
        }
      ],
      "payable": false,
      "stateMutability": "view",
      "type": "function"
    },
    {
      "constant": false,
      "inputs": [
        {
          "name": "_newOwner",
          "type": "address"
        }
      ],
      "name": "transferOwnership",
      "outputs": [],
      "payable": false,
      "stateMutability": "nonpayable",
      "type": "function"
    },
    {
      "constant": true,
      "inputs": [],
      "name": "token",
      "outputs": [
        {
          "name": "",
          "type": "address"
        }
      ],
      "payable": false,
      "stateMutability": "view",
      "type": "function"
    },
    {
      "anonymous": false,
      "inputs": [
        {
          "indexed": true,
          "name": "oldToken",
          "type": "address"
        },
        {
          "indexed": true,
          "name": "newToken",
          "type": "address"
        }
      ],
      "name": "TokenUpdated",
      "type": "event"
    },
    {
      "anonymous": false,
      "inputs": [
        {
          "indexed": true,
          "name": "oldFeeAccount",
          "type": "address"
        },
        {
          "indexed": true,
          "name": "newFeeAccount",
          "type": "address"
        },
        {
          "indexed": false,
          "name": "oldFee",
          "type": "uint256"
        },
        {
          "indexed": false,
          "name": "newFee",
          "type": "uint256"
        }
      ],
      "name": "FeeUpdated",
      "type": "event"
    },
    {
      "anonymous": false,
      "inputs": [
        {
          "indexed": true,
          "name": "appAccount",
          "type": "address"
        },
        {
          "indexed": false,
          "name": "appName",
          "type": "string"
        },
        {
          "indexed": false,
          "name": "feeAccount",
          "type": "address"
        },
        {
          "indexed": false,
          "name": "fee",
          "type": "uint256"
        },
        {
          "indexed": false,
          "name": "active",
          "type": "bool"
        }
      ],
      "name": "AppAdded",
      "type": "event"
    },
    {
      "anonymous": false,
      "inputs": [
        {
          "indexed": true,
          "name": "appAccount",
          "type": "address"
        },
        {
          "indexed": false,
          "name": "appName",
          "type": "string"
        },
        {
          "indexed": false,
          "name": "feeAccount",
          "type": "address"
        },
        {
          "indexed": false,
          "name": "fee",
          "type": "uint256"
        },
        {
          "indexed": false,
          "name": "active",
          "type": "bool"
        }
      ],
      "name": "AppUpdated",
      "type": "event"
    },
    {
      "anonymous": false,
      "inputs": [
        {
          "indexed": true,
          "name": "brandAccount",
          "type": "address"
        },
        {
          "indexed": true,
          "name": "appAccount",
          "type": "address"
        },
        {
          "indexed": false,
          "name": "brandName",
          "type": "string"
        },
        {
          "indexed": false,
          "name": "active",
          "type": "bool"
        }
      ],
      "name": "BrandAdded",
      "type": "event"
    },
    {
      "anonymous": false,
      "inputs": [
        {
          "indexed": true,
          "name": "brandAccount",
          "type": "address"
        },
        {
          "indexed": true,
          "name": "appAccount",
          "type": "address"
        },
        {
          "indexed": false,
          "name": "brandName",
          "type": "string"
        },
        {
          "indexed": false,
          "name": "active",
          "type": "bool"
        }
      ],
      "name": "BrandUpdated",
      "type": "event"
    },
    {
      "anonymous": false,
      "inputs": [
        {
          "indexed": true,
          "name": "productAccount",
          "type": "address"
        },
        {
          "indexed": true,
          "name": "brandAccount",
          "type": "address"
        },
        {
          "indexed": true,
          "name": "appAccount",
          "type": "address"
        },
        {
          "indexed": false,
          "name": "description",
          "type": "string"
        },
        {
          "indexed": false,
          "name": "active",
          "type": "bool"
        }
      ],
      "name": "ProductAdded",
      "type": "event"
    },
    {
      "anonymous": false,
      "inputs": [
        {
          "indexed": true,
          "name": "productAccount",
          "type": "address"
        },
        {
          "indexed": true,
          "name": "brandAccount",
          "type": "address"
        },
        {
          "indexed": true,
          "name": "appAccount",
          "type": "address"
        },
        {
          "indexed": false,
          "name": "description",
          "type": "string"
        },
        {
          "indexed": false,
          "name": "active",
          "type": "bool"
        }
      ],
      "name": "ProductUpdated",
      "type": "event"
    },
    {
      "anonymous": false,
      "inputs": [
        {
          "indexed": true,
          "name": "marker",
          "type": "address"
        },
        {
          "indexed": true,
          "name": "brandAccount",
          "type": "address"
        },
        {
          "indexed": false,
          "name": "permission",
          "type": "bool"
        }
      ],
      "name": "Permissioned",
      "type": "event"
    },
    {
      "anonymous": false,
      "inputs": [
        {
          "indexed": true,
          "name": "marker",
          "type": "address"
        },
        {
          "indexed": true,
          "name": "productAccount",
          "type": "address"
        },
        {
          "indexed": false,
          "name": "appFeeAccount",
          "type": "address"
        },
        {
          "indexed": false,
          "name": "feeAccount",
          "type": "address"
        },
        {
          "indexed": false,
          "name": "appFee",
          "type": "uint256"
        },
        {
          "indexed": false,
          "name": "fee",
          "type": "uint256"
        },
        {
          "indexed": false,
          "name": "itemHash",
          "type": "bytes32"
        }
      ],
      "name": "Marked",
      "type": "event"
    },
    {
      "anonymous": false,
      "inputs": [
        {
          "indexed": false,
          "name": "addr",
          "type": "address"
        }
      ],
      "name": "AdminAdded",
      "type": "event"
    },
    {
      "anonymous": false,
      "inputs": [
        {
          "indexed": false,
          "name": "addr",
          "type": "address"
        }
      ],
      "name": "AdminRemoved",
      "type": "event"
    },
    {
      "anonymous": false,
      "inputs": [
        {
          "indexed": true,
          "name": "_from",
          "type": "address"
        },
        {
          "indexed": true,
          "name": "_to",
          "type": "address"
        }
      ],
      "name": "OwnershipTransferred",
      "type": "event"
    },
    {
      "constant": false,
      "inputs": [
        {
          "name": "_token",
          "type": "address"
        }
      ],
      "name": "setToken",
      "outputs": [],
      "payable": false,
      "stateMutability": "nonpayable",
      "type": "function"
    },
    {
      "constant": false,
      "inputs": [
        {
          "name": "_feeAccount",
          "type": "address"
        },
        {
          "name": "_fee",
          "type": "uint256"
        }
      ],
      "name": "setFee",
      "outputs": [],
      "payable": false,
      "stateMutability": "nonpayable",
      "type": "function"
    },
    {
      "constant": false,
      "inputs": [
        {
          "name": "appName",
          "type": "string"
        },
        {
          "name": "_feeAccount",
          "type": "address"
        },
        {
          "name": "_fee",
          "type": "uint256"
        }
      ],
      "name": "addApp",
      "outputs": [],
      "payable": false,
      "stateMutability": "nonpayable",
      "type": "function"
    },
    {
      "constant": false,
      "inputs": [
        {
          "name": "appName",
          "type": "string"
        },
        {
          "name": "_feeAccount",
          "type": "address"
        },
        {
          "name": "_fee",
          "type": "uint256"
        },
        {
          "name": "active",
          "type": "bool"
        }
      ],
      "name": "updateApp",
      "outputs": [],
      "payable": false,
      "stateMutability": "nonpayable",
      "type": "function"
    },
    {
      "constant": true,
      "inputs": [
        {
          "name": "appAccount",
          "type": "address"
        }
      ],
      "name": "getApp",
      "outputs": [
        {
          "components": [
            {
              "name": "appAccount",
              "type": "address"
            },
            {
              "name": "appName",
              "type": "string"
            },
            {
              "name": "feeAccount",
              "type": "address"
            },
            {
              "name": "fee",
              "type": "uint256"
            },
            {
              "name": "active",
              "type": "bool"
            }
          ],
          "name": "app",
          "type": "tuple"
        }
      ],
      "payable": false,
      "stateMutability": "view",
      "type": "function"
    },
    {
      "constant": true,
      "inputs": [
        {
          "name": "appAccount",
          "type": "address"
        }
      ],
      "name": "getAppData",
      "outputs": [
        {
          "name": "_feeAccount",
          "type": "address"
        },
        {
          "name": "_fee",
          "type": "uint256"
        },
        {
          "name": "active",
          "type": "bool"
        }
      ],
      "payable": false,
      "stateMutability": "view",
      "type": "function"
    },
    {
      "constant": true,
      "inputs": [],
      "name": "appAccountsLength",
      "outputs": [
        {
          "name": "",
          "type": "uint256"
        }
      ],
      "payable": false,
      "stateMutability": "view",
      "type": "function"
    },
    {
      "constant": false,
      "inputs": [
        {
          "name": "brandAccount",
          "type": "address"
        },
        {
          "name": "brandName",
          "type": "string"
        }
      ],
      "name": "addBrand",
      "outputs": [],
      "payable": false,
      "stateMutability": "nonpayable",
      "type": "function"
    },
    {
      "constant": false,
      "inputs": [
        {
          "name": "brandAccount",
          "type": "address"
        },
        {
          "name": "brandName",
          "type": "string"
        },
        {
          "name": "active",
          "type": "bool"
        }
      ],
      "name": "updateBrand",
      "outputs": [],
      "payable": false,
      "stateMutability": "nonpayable",
      "type": "function"
    },
    {
      "constant": true,
      "inputs": [
        {
          "name": "brandAccount",
          "type": "address"
        }
      ],
      "name": "getBrand",
      "outputs": [
        {
          "components": [
            {
              "name": "brandAccount",
              "type": "address"
            },
            {
              "name": "appAccount",
              "type": "address"
            },
            {
              "name": "brandName",
              "type": "string"
            },
            {
              "name": "active",
              "type": "bool"
            }
          ],
          "name": "brand",
          "type": "tuple"
        }
      ],
      "payable": false,
      "stateMutability": "view",
      "type": "function"
    },
    {
      "constant": true,
      "inputs": [
        {
          "name": "brandAccount",
          "type": "address"
        }
      ],
      "name": "getBrandData",
      "outputs": [
        {
          "name": "appAccount",
          "type": "address"
        },
        {
          "name": "appFeeAccount",
          "type": "address"
        },
        {
          "name": "active",
          "type": "bool"
        }
      ],
      "payable": false,
      "stateMutability": "view",
      "type": "function"
    },
    {
      "constant": true,
      "inputs": [],
      "name": "brandAccountsLength",
      "outputs": [
        {
          "name": "",
          "type": "uint256"
        }
      ],
      "payable": false,
      "stateMutability": "view",
      "type": "function"
    },
    {
      "constant": false,
      "inputs": [
        {
          "name": "productAccount",
          "type": "address"
        },
        {
          "name": "description",
          "type": "string"
        },
        {
          "name": "details",
          "type": "string"
        },
        {
          "name": "year",
          "type": "uint256"
        },
        {
          "name": "origin",
          "type": "string"
        }
      ],
      "name": "addProduct",
      "outputs": [],
      "payable": false,
      "stateMutability": "nonpayable",
      "type": "function"
    },
    {
      "constant": false,
      "inputs": [
        {
          "name": "productAccount",
          "type": "address"
        },
        {
          "name": "description",
          "type": "string"
        },
        {
          "name": "details",
          "type": "string"
        },
        {
          "name": "year",
          "type": "uint256"
        },
        {
          "name": "origin",
          "type": "string"
        },
        {
          "name": "active",
          "type": "bool"
        }
      ],
      "name": "updateProduct",
      "outputs": [],
      "payable": false,
      "stateMutability": "nonpayable",
      "type": "function"
    },
    {
      "constant": true,
      "inputs": [
        {
          "name": "productAccount",
          "type": "address"
        }
      ],
      "name": "getProduct",
      "outputs": [
        {
          "components": [
            {
              "name": "productAccount",
              "type": "address"
            },
            {
              "name": "brandAccount",
              "type": "address"
            },
            {
              "name": "description",
              "type": "string"
            },
            {
              "name": "details",
              "type": "string"
            },
            {
              "name": "year",
              "type": "uint256"
            },
            {
              "name": "origin",
              "type": "string"
            },
            {
              "name": "active",
              "type": "bool"
            }
          ],
          "name": "product",
          "type": "tuple"
        }
      ],
      "payable": false,
      "stateMutability": "view",
      "type": "function"
    },
    {
      "constant": true,
      "inputs": [
        {
          "name": "productAccount",
          "type": "address"
        }
      ],
      "name": "getProductData",
      "outputs": [
        {
          "name": "brandAccount",
          "type": "address"
        },
        {
          "name": "appAccount",
          "type": "address"
        },
        {
          "name": "appFeeAccount",
          "type": "address"
        },
        {
          "name": "active",
          "type": "bool"
        }
      ],
      "payable": false,
      "stateMutability": "view",
      "type": "function"
    },
    {
      "constant": true,
      "inputs": [],
      "name": "productAccountsLength",
      "outputs": [
        {
          "name": "",
          "type": "uint256"
        }
      ],
      "payable": false,
      "stateMutability": "view",
      "type": "function"
    },
    {
      "constant": false,
      "inputs": [
        {
          "name": "marker",
          "type": "address"
        },
        {
          "name": "permission",
          "type": "bool"
        }
      ],
      "name": "permissionMarker",
      "outputs": [],
      "payable": false,
      "stateMutability": "nonpayable",
      "type": "function"
    },
    {
      "constant": true,
      "inputs": [
        {
          "name": "item",
          "type": "address"
        }
      ],
      "name": "addressHash",
      "outputs": [
        {
          "name": "hash",
          "type": "bytes32"
        }
      ],
      "payable": false,
      "stateMutability": "pure",
      "type": "function"
    },
    {
      "constant": false,
      "inputs": [
        {
          "name": "productAccount",
          "type": "address"
        },
        {
          "name": "itemHash",
          "type": "bytes32"
        }
      ],
      "name": "mark",
      "outputs": [],
      "payable": false,
      "stateMutability": "nonpayable",
      "type": "function"
    },
    {
      "constant": true,
      "inputs": [
        {
          "name": "item",
          "type": "address"
        }
      ],
      "name": "check",
      "outputs": [
        {
          "name": "productAccount",
          "type": "address"
        },
        {
          "name": "brandAccount",
          "type": "address"
        },
        {
          "name": "appAccount",
          "type": "address"
        }
      ],
      "payable": false,
      "stateMutability": "view",
      "type": "function"
    }
  ],
  "bytecode": "0x6060604052336000806101000a81548173ffffffffffffffffffffffffffffffffffffffff021916908373ffffffffffffffffffffffffffffffffffffffff160217905550614db0806100536000396000f3006060604052600436106101d7576000357c0100000000000000000000000000000000000000000000000000000000900463ffffffff168062adc382146101dc57806301c69452146102315780630425c4bf14610294578063098ed807146103aa5780630a40fb8c146103d35780631309ec4314610417578063144fa6d71461055e5780631785f53c1461059757806324d7806c146105d05780632a286eda1461062157806333ca477314610684578063361893f71461073b578063429b62e514610788578063437fa667146107d9578063512570d6146108025780635b68e09b146108895780635b7fd9b5146108ec57806360a72c2914610a2c57806365e17c9d14610ab75780636c59545114610b0c5780637048027514610b915780637331163114610bca578063793a8e7114610c4657806379ba509714610e9f5780638da5cb5b14610eb4578063b94cc52f14610f09578063c23697a814610f4f578063cccd2ea81461102e578063d4ee1d9014611118578063d9aba9ce1461116d578063dc3acebe146111ba578063ddca3f4314611207578063e507e7a414611230578063e55156b514611259578063f2fde38b1461129b578063f768402a146112d4578063f831fe32146113df578063fc0c546a1461146f575b600080fd5b34156101e757600080fd5b610213600480803573ffffffffffffffffffffffffffffffffffffffff169060200190919050506114c4565b60405180826000191660001916815260200191505060405180910390f35b341561023c57600080fd5b610252600480803590602001909190505061151e565b604051808273ffffffffffffffffffffffffffffffffffffffff1673ffffffffffffffffffffffffffffffffffffffff16815260200191505060405180910390f35b341561029f57600080fd5b6103a8600480803573ffffffffffffffffffffffffffffffffffffffff1690602001909190803590602001908201803590602001908080601f0160208091040260200160405190810160405280939291908181526020018383808284378201915050505050509190803590602001908201803590602001908080601f0160208091040260200160405190810160405280939291908181526020018383808284378201915050505050509190803590602001909190803590602001908201803590602001908080601f01602080910402602001604051908101604052809392919081815260200183838082843782019150505050505091908035151590602001909190505061155d565b005b34156103b557600080fd5b6103bd6118b5565b6040518082815260200191505060405180910390f35b34156103de57600080fd5b610415600480803573ffffffffffffffffffffffffffffffffffffffff1690602001909190803515159060200190919050506118c2565b005b341561042257600080fd5b61044e600480803573ffffffffffffffffffffffffffffffffffffffff16906020019091905050611a67565b604051808673ffffffffffffffffffffffffffffffffffffffff1673ffffffffffffffffffffffffffffffffffffffff168152602001806020018573ffffffffffffffffffffffffffffffffffffffff1673ffffffffffffffffffffffffffffffffffffffff1681526020018481526020018315151515815260200182810382528681815460018160011615610100020316600290048152602001915080546001816001161561010002031660029004801561054b5780601f106105205761010080835404028352916020019161054b565b820191906000526020600020905b81548152906001019060200180831161052e57829003601f168201915b5050965050505050505060405180910390f35b341561056957600080fd5b610595600480803573ffffffffffffffffffffffffffffffffffffffff16906020019091905050611ae9565b005b34156105a257600080fd5b6105ce600480803573ffffffffffffffffffffffffffffffffffffffff16906020019091905050611bbd565b005b34156105db57600080fd5b610607600480803573ffffffffffffffffffffffffffffffffffffffff16906020019091905050611d25565b604051808215151515815260200191505060405180910390f35b341561062c57600080fd5b6106426004808035906020019091905050611dd2565b604051808273ffffffffffffffffffffffffffffffffffffffff1673ffffffffffffffffffffffffffffffffffffffff16815260200191505060405180910390f35b341561068f57600080fd5b6106bb600480803573ffffffffffffffffffffffffffffffffffffffff16906020019091905050611e11565b604051808473ffffffffffffffffffffffffffffffffffffffff1673ffffffffffffffffffffffffffffffffffffffff1681526020018373ffffffffffffffffffffffffffffffffffffffff1673ffffffffffffffffffffffffffffffffffffffff16815260200182151515158152602001935050505060405180910390f35b341561074657600080fd5b610772600480803573ffffffffffffffffffffffffffffffffffffffff16906020019091905050612004565b6040518082815260200191505060405180910390f35b341561079357600080fd5b6107bf600480803573ffffffffffffffffffffffffffffffffffffffff169060200190919050506121c7565b604051808215151515815260200191505060405180910390f35b34156107e457600080fd5b6107ec6121e7565b6040518082815260200191505060405180910390f35b341561080d57600080fd5b610887600480803573ffffffffffffffffffffffffffffffffffffffff1690602001909190803590602001908201803590602001908080601f0160208091040260200160405190810160405280939291908181526020018383808284378201915050505050509190803515159060200190919050506121f4565b005b341561089457600080fd5b6108aa60048080359060200190919050506123a6565b604051808273ffffffffffffffffffffffffffffffffffffffff1673ffffffffffffffffffffffffffffffffffffffff16815260200191505060405180910390f35b34156108f757600080fd5b610923600480803573ffffffffffffffffffffffffffffffffffffffff169060200190919050506123e5565b604051808573ffffffffffffffffffffffffffffffffffffffff1673ffffffffffffffffffffffffffffffffffffffff1681526020018473ffffffffffffffffffffffffffffffffffffffff1673ffffffffffffffffffffffffffffffffffffffff1681526020018060200183151515158152602001828103825284818154600181600116156101000203166002900481526020019150805460018160011615610100020316600290048015610a1a5780601f106109ef57610100808354040283529160200191610a1a565b820191906000526020600020905b8154815290600101906020018083116109fd57829003601f168201915b50509550505050505060405180910390f35b3415610a3757600080fd5b610a63600480803573ffffffffffffffffffffffffffffffffffffffff16906020019091905050612461565b604051808473ffffffffffffffffffffffffffffffffffffffff1673ffffffffffffffffffffffffffffffffffffffff16815260200183815260200182151515158152602001935050505060405180910390f35b3415610ac257600080fd5b610aca6124f2565b604051808273ffffffffffffffffffffffffffffffffffffffff1673ffffffffffffffffffffffffffffffffffffffff16815260200191505060405180910390f35b3415610b1757600080fd5b610b8f600480803590602001908201803590602001908080601f0160208091040260200160405190810160405280939291908181526020018383808284378201915050505050509190803573ffffffffffffffffffffffffffffffffffffffff16906020019091908035906020019091905050612518565b005b3415610b9c57600080fd5b610bc8600480803573ffffffffffffffffffffffffffffffffffffffff1690602001909190505061288d565b005b3415610bd557600080fd5b610c44600480803573ffffffffffffffffffffffffffffffffffffffff1690602001909190803590602001908201803590602001908080601f01602080910402602001604051908101604052809392919081815260200183838082843782019150505050505091905050612a58565b005b3415610c5157600080fd5b610c7d600480803573ffffffffffffffffffffffffffffffffffffffff16906020019091905050612e3a565b604051808873ffffffffffffffffffffffffffffffffffffffff1673ffffffffffffffffffffffffffffffffffffffff1681526020018773ffffffffffffffffffffffffffffffffffffffff1673ffffffffffffffffffffffffffffffffffffffff16815260200180602001806020018681526020018060200185151515158152602001848103845289818154600181600116156101000203166002900481526020019150805460018160011615610100020316600290048015610d825780601f10610d5757610100808354040283529160200191610d82565b820191906000526020600020905b815481529060010190602001808311610d6557829003601f168201915b5050848103835288818154600181600116156101000203166002900481526020019150805460018160011615610100020316600290048015610e055780601f10610dda57610100808354040283529160200191610e05565b820191906000526020600020905b815481529060010190602001808311610de857829003601f168201915b5050848103825286818154600181600116156101000203166002900481526020019150805460018160011615610100020316600290048015610e885780601f10610e5d57610100808354040283529160200191610e88565b820191906000526020600020905b815481529060010190602001808311610e6b57829003601f168201915b50509a505050505050505050505060405180910390f35b3415610eaa57600080fd5b610eb2612ec6565b005b3415610ebf57600080fd5b610ec7613065565b604051808273ffffffffffffffffffffffffffffffffffffffff1673ffffffffffffffffffffffffffffffffffffffff16815260200191505060405180910390f35b3415610f1457600080fd5b610f4d600480803573ffffffffffffffffffffffffffffffffffffffff169060200190919080356000191690602001909190505061308a565b005b3415610f5a57600080fd5b610f86600480803573ffffffffffffffffffffffffffffffffffffffff16906020019091905050613840565b604051808473ffffffffffffffffffffffffffffffffffffffff1673ffffffffffffffffffffffffffffffffffffffff1681526020018373ffffffffffffffffffffffffffffffffffffffff1673ffffffffffffffffffffffffffffffffffffffff1681526020018273ffffffffffffffffffffffffffffffffffffffff1673ffffffffffffffffffffffffffffffffffffffff168152602001935050505060405180910390f35b341561103957600080fd5b611065600480803573ffffffffffffffffffffffffffffffffffffffff169060200190919050506139d8565b604051808573ffffffffffffffffffffffffffffffffffffffff1673ffffffffffffffffffffffffffffffffffffffff1681526020018473ffffffffffffffffffffffffffffffffffffffff1673ffffffffffffffffffffffffffffffffffffffff1681526020018373ffffffffffffffffffffffffffffffffffffffff1673ffffffffffffffffffffffffffffffffffffffff1681526020018215151515815260200194505050505060405180910390f35b341561112357600080fd5b61112b613cb1565b604051808273ffffffffffffffffffffffffffffffffffffffff1673ffffffffffffffffffffffffffffffffffffffff16815260200191505060405180910390f35b341561117857600080fd5b6111a4600480803573ffffffffffffffffffffffffffffffffffffffff16906020019091905050613cd7565b6040518082815260200191505060405180910390f35b34156111c557600080fd5b6111f1600480803573ffffffffffffffffffffffffffffffffffffffff16906020019091905050613fe8565b6040518082815260200191505060405180910390f35b341561121257600080fd5b61121a6141b5565b6040518082815260200191505060405180910390f35b341561123b57600080fd5b6112436141bb565b6040518082815260200191505060405180910390f35b341561126457600080fd5b611299600480803573ffffffffffffffffffffffffffffffffffffffff169060200190919080359060200190919050506141c8565b005b34156112a657600080fd5b6112d2600480803573ffffffffffffffffffffffffffffffffffffffff169060200190919050506142b9565b005b34156112df57600080fd5b6113dd600480803573ffffffffffffffffffffffffffffffffffffffff1690602001909190803590602001908201803590602001908080601f0160208091040260200160405190810160405280939291908181526020018383808284378201915050505050509190803590602001908201803590602001908080601f0160208091040260200160405190810160405280939291908181526020018383808284378201915050505050509190803590602001909190803590602001908201803590602001908080601f01602080910402602001604051908101604052809392919081815260200183838082843782019150505050505091905050614358565b005b34156113ea57600080fd5b61146d600480803590602001908201803590602001908080601f0160208091040260200160405190810160405280939291908181526020018383808284378201915050505050509190803573ffffffffffffffffffffffffffffffffffffffff169060200190919080359060200190919080351515906020019091905050614896565b005b341561147a57600080fd5b611482614aba565b604051808273ffffffffffffffffffffffffffffffffffffffff1673ffffffffffffffffffffffffffffffffffffffff16815260200191505060405180910390f35b600081604051808273ffffffffffffffffffffffffffffffffffffffff1673ffffffffffffffffffffffffffffffffffffffff166c0100000000000000000000000002815260140191505060405180910390209050919050565b600c8181548110151561152d57fe5b90600052602060002090016000915054906101000a900473ffffffffffffffffffffffffffffffffffffffff1681565b6000806000600860008a73ffffffffffffffffffffffffffffffffffffffff1673ffffffffffffffffffffffffffffffffffffffff16815260200190815260200160002092503373ffffffffffffffffffffffffffffffffffffffff168360010160009054906101000a900473ffffffffffffffffffffffffffffffffffffffff1673ffffffffffffffffffffffffffffffffffffffff1614151561160157600080fd5b600760003373ffffffffffffffffffffffffffffffffffffffff1673ffffffffffffffffffffffffffffffffffffffff16815260200190815260200160002091503373ffffffffffffffffffffffffffffffffffffffff168260000160009054906101000a900473ffffffffffffffffffffffffffffffffffffffff1673ffffffffffffffffffffffffffffffffffffffff161415156116a057600080fd5b600660008360010160009054906101000a900473ffffffffffffffffffffffffffffffffffffffff1673ffffffffffffffffffffffffffffffffffffffff1673ffffffffffffffffffffffffffffffffffffffff16815260200190815260200160002090508783600201908051906020019061171d929190614ae0565b5086836003019080519060200190611736929190614ae0565b5085836004018190555084836005019080519060200190611758929190614ae0565b50838360060160006101000a81548160ff0219169083151502179055508060000160009054906101000a900473ffffffffffffffffffffffffffffffffffffffff1673ffffffffffffffffffffffffffffffffffffffff168360010160009054906101000a900473ffffffffffffffffffffffffffffffffffffffff1673ffffffffffffffffffffffffffffffffffffffff168a73ffffffffffffffffffffffffffffffffffffffff167faf8f7fdfa11bd035e0cd7a1a852667f37f6ce16f1ccc3103b747e992731047608b88604051808060200183151515158152602001828103825284818151815260200191508051906020019080838360005b8381101561186f578082015181840152602081019050611854565b50505050905090810190601f16801561189c5780820380516001836020036101000a031916815260200191505b50935050505060405180910390a4505050505050505050565b6000600d80549050905090565b6000600760003373ffffffffffffffffffffffffffffffffffffffff1673ffffffffffffffffffffffffffffffffffffffff1681526020019081526020016000209050600073ffffffffffffffffffffffffffffffffffffffff168160000160009054906101000a900473ffffffffffffffffffffffffffffffffffffffff1673ffffffffffffffffffffffffffffffffffffffff161415151561196557600080fd5b81600960008573ffffffffffffffffffffffffffffffffffffffff1673ffffffffffffffffffffffffffffffffffffffff16815260200190815260200160002060003373ffffffffffffffffffffffffffffffffffffffff1673ffffffffffffffffffffffffffffffffffffffff16815260200190815260200160002060006101000a81548160ff0219169083151502179055503373ffffffffffffffffffffffffffffffffffffffff168373ffffffffffffffffffffffffffffffffffffffff167f8555cde94a099da074d0de799c9e9d1b6ec375a699f6e646bd11761e4210b3ec84604051808215151515815260200191505060405180910390a3505050565b60066020528060005260406000206000915090508060000160009054906101000a900473ffffffffffffffffffffffffffffffffffffffff169080600101908060020160009054906101000a900473ffffffffffffffffffffffffffffffffffffffff16908060030154908060040160009054906101000a900460ff16905085565b611af233611d25565b1515611afd57600080fd5b8073ffffffffffffffffffffffffffffffffffffffff16600360009054906101000a900473ffffffffffffffffffffffffffffffffffffffff1673ffffffffffffffffffffffffffffffffffffffff167f0b1186973f810894b87ab0bfbee422fddcaad21b46dc705a561451bbb6bac11760405160405180910390a380600360006101000a81548173ffffffffffffffffffffffffffffffffffffffff021916908373ffffffffffffffffffffffffffffffffffffffff16021790555050565b6000809054906101000a900473ffffffffffffffffffffffffffffffffffffffff1673ffffffffffffffffffffffffffffffffffffffff163373ffffffffffffffffffffffffffffffffffffffff16141515611c1857600080fd5b600260008273ffffffffffffffffffffffffffffffffffffffff1673ffffffffffffffffffffffffffffffffffffffff16815260200190815260200160002060009054906101000a900460ff161515611c7057600080fd5b600260008273ffffffffffffffffffffffffffffffffffffffff1673ffffffffffffffffffffffffffffffffffffffff16815260200190815260200160002060006101000a81549060ff02191690557fa3b62bc36326052d97ea62d63c3d60308ed4c3ea8ac079dd8499f1e9c4f80c0f81604051808273ffffffffffffffffffffffffffffffffffffffff1673ffffffffffffffffffffffffffffffffffffffff16815260200191505060405180910390a150565b6000600260008373ffffffffffffffffffffffffffffffffffffffff1673ffffffffffffffffffffffffffffffffffffffff16815260200190815260200160002060009054906101000a900460ff1680611dcb57508173ffffffffffffffffffffffffffffffffffffffff166000809054906101000a900473ffffffffffffffffffffffffffffffffffffffff1673ffffffffffffffffffffffffffffffffffffffff16145b9050919050565b600d81815481101515611de157fe5b90600052602060002090016000915054906101000a900473ffffffffffffffffffffffffffffffffffffffff1681565b6000806000806000600760008773ffffffffffffffffffffffffffffffffffffffff1673ffffffffffffffffffffffffffffffffffffffff1681526020019081526020016000209150600073ffffffffffffffffffffffffffffffffffffffff168260010160009054906101000a900473ffffffffffffffffffffffffffffffffffffffff1673ffffffffffffffffffffffffffffffffffffffff1614151515611eba57600080fd5b600660008360010160009054906101000a900473ffffffffffffffffffffffffffffffffffffffff1673ffffffffffffffffffffffffffffffffffffffff1673ffffffffffffffffffffffffffffffffffffffff1681526020019081526020016000209050600073ffffffffffffffffffffffffffffffffffffffff168160000160009054906101000a900473ffffffffffffffffffffffffffffffffffffffff1673ffffffffffffffffffffffffffffffffffffffff1614151515611f7f57600080fd5b8060000160009054906101000a900473ffffffffffffffffffffffffffffffffffffffff1694508060020160009054906101000a900473ffffffffffffffffffffffffffffffffffffffff1693508060040160009054906101000a900460ff168015611ff957508160030160009054906101000a900460ff165b925050509193909250565b61200c614b60565b600760008373ffffffffffffffffffffffffffffffffffffffff1673ffffffffffffffffffffffffffffffffffffffff168152602001908152602001600020608060405190810160405290816000820160009054906101000a900473ffffffffffffffffffffffffffffffffffffffff1673ffffffffffffffffffffffffffffffffffffffff1673ffffffffffffffffffffffffffffffffffffffff1681526020016001820160009054906101000a900473ffffffffffffffffffffffffffffffffffffffff1673ffffffffffffffffffffffffffffffffffffffff1673ffffffffffffffffffffffffffffffffffffffff168152602001600282018054600181600116156101000203166002900480601f01602080910402602001604051908101604052809291908181526020018280546001816001161561010002031660029004801561219c5780601f106121715761010080835404028352916020019161219c565b820191906000526020600020905b81548152906001019060200180831161217f57829003601f168201915b505050505081526020016003820160009054906101000a900460ff1615151515815250509050919050565b60026020528060005260406000206000915054906101000a900460ff1681565b6000600b80549050905090565b6000600760008573ffffffffffffffffffffffffffffffffffffffff1673ffffffffffffffffffffffffffffffffffffffff16815260200190815260200160002090503373ffffffffffffffffffffffffffffffffffffffff168160010160009054906101000a900473ffffffffffffffffffffffffffffffffffffffff1673ffffffffffffffffffffffffffffffffffffffff1614151561229557600080fd5b828160020190805190602001906122ad929190614ae0565b50818160030160006101000a81548160ff0219169083151502179055503373ffffffffffffffffffffffffffffffffffffffff168473ffffffffffffffffffffffffffffffffffffffff167f74e5739790e0c39675f65b0937070123c564bc6c21050a2f60a905f3b43793b98585604051808060200183151515158152602001828103825284818151815260200191508051906020019080838360005b8381101561236557808201518184015260208101905061234a565b50505050905090810190601f1680156123925780820380516001836020036101000a031916815260200191505b50935050505060405180910390a350505050565b600b818154811015156123b557fe5b90600052602060002090016000915054906101000a900473ffffffffffffffffffffffffffffffffffffffff1681565b60076020528060005260406000206000915090508060000160009054906101000a900473ffffffffffffffffffffffffffffffffffffffff16908060010160009054906101000a900473ffffffffffffffffffffffffffffffffffffffff169080600201908060030160009054906101000a900460ff16905084565b600080600080600660008673ffffffffffffffffffffffffffffffffffffffff1673ffffffffffffffffffffffffffffffffffffffff16815260200190815260200160002090508060020160009054906101000a900473ffffffffffffffffffffffffffffffffffffffff169350806003015492508060040160009054906101000a900460ff169150509193909250565b600460009054906101000a900473ffffffffffffffffffffffffffffffffffffffff1681565b6000600660003373ffffffffffffffffffffffffffffffffffffffff1673ffffffffffffffffffffffffffffffffffffffff1681526020019081526020016000209050600073ffffffffffffffffffffffffffffffffffffffff168160000160009054906101000a900473ffffffffffffffffffffffffffffffffffffffff1673ffffffffffffffffffffffffffffffffffffffff161415156125ba57600080fd5b60a0604051908101604052803373ffffffffffffffffffffffffffffffffffffffff1681526020018581526020018473ffffffffffffffffffffffffffffffffffffffff16815260200183815260200160011515815250600660003373ffffffffffffffffffffffffffffffffffffffff1673ffffffffffffffffffffffffffffffffffffffff16815260200190815260200160002060008201518160000160006101000a81548173ffffffffffffffffffffffffffffffffffffffff021916908373ffffffffffffffffffffffffffffffffffffffff16021790555060208201518160010190805190602001906126b3929190614bbd565b5060408201518160020160006101000a81548173ffffffffffffffffffffffffffffffffffffffff021916908373ffffffffffffffffffffffffffffffffffffffff1602179055506060820151816003015560808201518160040160006101000a81548160ff021916908315150217905550905050600b805480600101828161273c9190614c3d565b9160005260206000209001600033909190916101000a81548173ffffffffffffffffffffffffffffffffffffffff021916908373ffffffffffffffffffffffffffffffffffffffff160217905550503373ffffffffffffffffffffffffffffffffffffffff167f684fa4476d58f455b3ec9040249a3ef8910ab3ea2c0960052092b5e5453a45a4858585600160405180806020018573ffffffffffffffffffffffffffffffffffffffff1673ffffffffffffffffffffffffffffffffffffffff16815260200184815260200183151515158152602001828103825286818151815260200191508051906020019080838360005b8381101561284a57808201518184015260208101905061282f565b50505050905090810190601f1680156128775780820380516001836020036101000a031916815260200191505b509550505050505060405180910390a250505050565b6000809054906101000a900473ffffffffffffffffffffffffffffffffffffffff1673ffffffffffffffffffffffffffffffffffffffff163373ffffffffffffffffffffffffffffffffffffffff161415156128e857600080fd5b600260008273ffffffffffffffffffffffffffffffffffffffff1673ffffffffffffffffffffffffffffffffffffffff16815260200190815260200160002060009054906101000a900460ff1615801561298f57506000809054906101000a900473ffffffffffffffffffffffffffffffffffffffff1673ffffffffffffffffffffffffffffffffffffffff168173ffffffffffffffffffffffffffffffffffffffff1614155b151561299a57600080fd5b6001600260008373ffffffffffffffffffffffffffffffffffffffff1673ffffffffffffffffffffffffffffffffffffffff16815260200190815260200160002060006101000a81548160ff0219169083151502179055507f44d6d25963f097ad14f29f06854a01f575648a1ef82f30e562ccd3889717e33981604051808273ffffffffffffffffffffffffffffffffffffffff1673ffffffffffffffffffffffffffffffffffffffff16815260200191505060405180910390a150565b600080600660003373ffffffffffffffffffffffffffffffffffffffff1673ffffffffffffffffffffffffffffffffffffffff1681526020019081526020016000209150600073ffffffffffffffffffffffffffffffffffffffff168260000160009054906101000a900473ffffffffffffffffffffffffffffffffffffffff1673ffffffffffffffffffffffffffffffffffffffff1614151515612afc57600080fd5b600760008573ffffffffffffffffffffffffffffffffffffffff1673ffffffffffffffffffffffffffffffffffffffff1681526020019081526020016000209050600073ffffffffffffffffffffffffffffffffffffffff168160000160009054906101000a900473ffffffffffffffffffffffffffffffffffffffff1673ffffffffffffffffffffffffffffffffffffffff16141515612b9c57600080fd5b6080604051908101604052808573ffffffffffffffffffffffffffffffffffffffff1681526020013373ffffffffffffffffffffffffffffffffffffffff16815260200184815260200160011515815250600760008673ffffffffffffffffffffffffffffffffffffffff1673ffffffffffffffffffffffffffffffffffffffff16815260200190815260200160002060008201518160000160006101000a81548173ffffffffffffffffffffffffffffffffffffffff021916908373ffffffffffffffffffffffffffffffffffffffff16021790555060208201518160010160006101000a81548173ffffffffffffffffffffffffffffffffffffffff021916908373ffffffffffffffffffffffffffffffffffffffff1602179055506040820151816002019080519060200190612cd6929190614bbd565b5060608201518160030160006101000a81548160ff021916908315150217905550905050600c8054806001018281612d0e9190614c3d565b9160005260206000209001600086909190916101000a81548173ffffffffffffffffffffffffffffffffffffffff021916908373ffffffffffffffffffffffffffffffffffffffff160217905550503373ffffffffffffffffffffffffffffffffffffffff168473ffffffffffffffffffffffffffffffffffffffff167f45266d7ee1033749188bfdc0ce2763dfd805881ed25fb436b147b2f69562b323856001604051808060200183151515158152602001828103825284818151815260200191508051906020019080838360005b83811015612df9578082015181840152602081019050612dde565b50505050905090810190601f168015612e265780820380516001836020036101000a031916815260200191505b50935050505060405180910390a350505050565b60086020528060005260406000206000915090508060000160009054906101000a900473ffffffffffffffffffffffffffffffffffffffff16908060010160009054906101000a900473ffffffffffffffffffffffffffffffffffffffff16908060020190806003019080600401549080600501908060060160009054906101000a900460ff16905087565b600160009054906101000a900473ffffffffffffffffffffffffffffffffffffffff1673ffffffffffffffffffffffffffffffffffffffff163373ffffffffffffffffffffffffffffffffffffffff16141515612f2257600080fd5b600160009054906101000a900473ffffffffffffffffffffffffffffffffffffffff1673ffffffffffffffffffffffffffffffffffffffff166000809054906101000a900473ffffffffffffffffffffffffffffffffffffffff1673ffffffffffffffffffffffffffffffffffffffff167f8be0079c531659141344cd1fd0a4f28419497f9722a3daafe3b4186f6b6457e060405160405180910390a3600160009054906101000a900473ffffffffffffffffffffffffffffffffffffffff166000806101000a81548173ffffffffffffffffffffffffffffffffffffffff021916908373ffffffffffffffffffffffffffffffffffffffff1602179055506000600160006101000a81548173ffffffffffffffffffffffffffffffffffffffff021916908373ffffffffffffffffffffffffffffffffffffffff160217905550565b6000809054906101000a900473ffffffffffffffffffffffffffffffffffffffff1681565b600080600080600860008773ffffffffffffffffffffffffffffffffffffffff1673ffffffffffffffffffffffffffffffffffffffff1681526020019081526020016000209350600073ffffffffffffffffffffffffffffffffffffffff168460010160009054906101000a900473ffffffffffffffffffffffffffffffffffffffff1673ffffffffffffffffffffffffffffffffffffffff161415801561314057508360060160009054906101000a900460ff165b151561314b57600080fd5b600760008560010160009054906101000a900473ffffffffffffffffffffffffffffffffffffffff1673ffffffffffffffffffffffffffffffffffffffff1673ffffffffffffffffffffffffffffffffffffffff1681526020019081526020016000209250600073ffffffffffffffffffffffffffffffffffffffff168360000160009054906101000a900473ffffffffffffffffffffffffffffffffffffffff1673ffffffffffffffffffffffffffffffffffffffff161415801561321f57508260030160009054906101000a900460ff165b151561322a57600080fd5b600660008460010160009054906101000a900473ffffffffffffffffffffffffffffffffffffffff1673ffffffffffffffffffffffffffffffffffffffff1673ffffffffffffffffffffffffffffffffffffffff1681526020019081526020016000209150600073ffffffffffffffffffffffffffffffffffffffff168260000160009054906101000a900473ffffffffffffffffffffffffffffffffffffffff1673ffffffffffffffffffffffffffffffffffffffff16141580156132fe57508160040160009054906101000a900460ff165b151561330957600080fd5b600960003373ffffffffffffffffffffffffffffffffffffffff1673ffffffffffffffffffffffffffffffffffffffff16815260200190815260200160002060008460000160009054906101000a900473ffffffffffffffffffffffffffffffffffffffff1673ffffffffffffffffffffffffffffffffffffffff1673ffffffffffffffffffffffffffffffffffffffff16815260200190815260200160002060009054906101000a900460ff1690508015156133c557600080fd5b85600a6000876000191660001916815260200190815260200160002060006101000a81548173ffffffffffffffffffffffffffffffffffffffff021916908373ffffffffffffffffffffffffffffffffffffffff1602179055508573ffffffffffffffffffffffffffffffffffffffff163373ffffffffffffffffffffffffffffffffffffffff167fbade777cd65d2c09ba0ecc171d889389ea076d8af150d8ab205f4c9f6c14ffc48460020160009054906101000a900473ffffffffffffffffffffffffffffffffffffffff16600460009054906101000a900473ffffffffffffffffffffffffffffffffffffffff1686600301546005548b604051808673ffffffffffffffffffffffffffffffffffffffff1673ffffffffffffffffffffffffffffffffffffffff1681526020018573ffffffffffffffffffffffffffffffffffffffff1673ffffffffffffffffffffffffffffffffffffffff16815260200184815260200183815260200182600019166000191681526020019550505050505060405180910390a36000826003015411156136c757600360009054906101000a900473ffffffffffffffffffffffffffffffffffffffff1673ffffffffffffffffffffffffffffffffffffffff166323b872dd8460000160009054906101000a900473ffffffffffffffffffffffffffffffffffffffff168460020160009054906101000a900473ffffffffffffffffffffffffffffffffffffffff1685600301546000604051602001526040518463ffffffff167c0100000000000000000000000000000000000000000000000000000000028152600401808473ffffffffffffffffffffffffffffffffffffffff1673ffffffffffffffffffffffffffffffffffffffff1681526020018373ffffffffffffffffffffffffffffffffffffffff1673ffffffffffffffffffffffffffffffffffffffff1681526020018281526020019350505050602060405180830381600087803b15156136aa57600080fd5b6102c65a03f115156136bb57600080fd5b50505060405180519050505b6000600554111561383857600360009054906101000a900473ffffffffffffffffffffffffffffffffffffffff1673ffffffffffffffffffffffffffffffffffffffff166323b872dd8460000160009054906101000a900473ffffffffffffffffffffffffffffffffffffffff16600460009054906101000a900473ffffffffffffffffffffffffffffffffffffffff166005546000604051602001526040518463ffffffff167c0100000000000000000000000000000000000000000000000000000000028152600401808473ffffffffffffffffffffffffffffffffffffffff1673ffffffffffffffffffffffffffffffffffffffff1681526020018373ffffffffffffffffffffffffffffffffffffffff1673ffffffffffffffffffffffffffffffffffffffff1681526020018281526020019350505050602060405180830381600087803b151561381b57600080fd5b6102c65a03f1151561382c57600080fd5b50505060405180519050505b505050505050565b60008060008060008086604051808273ffffffffffffffffffffffffffffffffffffffff1673ffffffffffffffffffffffffffffffffffffffff166c0100000000000000000000000002815260140191505060405180910390209250600a6000846000191660001916815260200190815260200160002060009054906101000a900473ffffffffffffffffffffffffffffffffffffffff169550600860008773ffffffffffffffffffffffffffffffffffffffff1673ffffffffffffffffffffffffffffffffffffffff1681526020019081526020016000209150600760008360010160009054906101000a900473ffffffffffffffffffffffffffffffffffffffff1673ffffffffffffffffffffffffffffffffffffffff1673ffffffffffffffffffffffffffffffffffffffff16815260200190815260200160002090508160010160009054906101000a900473ffffffffffffffffffffffffffffffffffffffff1694508060010160009054906101000a900473ffffffffffffffffffffffffffffffffffffffff1693505050509193909250565b6000806000806000806000600860008973ffffffffffffffffffffffffffffffffffffffff1673ffffffffffffffffffffffffffffffffffffffff1681526020019081526020016000209250600073ffffffffffffffffffffffffffffffffffffffff168360010160009054906101000a900473ffffffffffffffffffffffffffffffffffffffff1673ffffffffffffffffffffffffffffffffffffffff1614151515613a8457600080fd5b600760008873ffffffffffffffffffffffffffffffffffffffff1673ffffffffffffffffffffffffffffffffffffffff1681526020019081526020016000209150600073ffffffffffffffffffffffffffffffffffffffff168260010160009054906101000a900473ffffffffffffffffffffffffffffffffffffffff1673ffffffffffffffffffffffffffffffffffffffff1614151515613b2557600080fd5b600660008360010160009054906101000a900473ffffffffffffffffffffffffffffffffffffffff1673ffffffffffffffffffffffffffffffffffffffff1673ffffffffffffffffffffffffffffffffffffffff1681526020019081526020016000209050600073ffffffffffffffffffffffffffffffffffffffff168160000160009054906101000a900473ffffffffffffffffffffffffffffffffffffffff1673ffffffffffffffffffffffffffffffffffffffff1614151515613bea57600080fd5b8260010160009054906101000a900473ffffffffffffffffffffffffffffffffffffffff1696508060000160009054906101000a900473ffffffffffffffffffffffffffffffffffffffff1695508060020160009054906101000a900473ffffffffffffffffffffffffffffffffffffffff1694508060040160009054906101000a900460ff168015613c8b57508160030160009054906101000a900460ff165b8015613ca557508160030160009054906101000a900460ff165b93505050509193509193565b600160009054906101000a900473ffffffffffffffffffffffffffffffffffffffff1681565b613cdf614c69565b600860008373ffffffffffffffffffffffffffffffffffffffff1673ffffffffffffffffffffffffffffffffffffffff16815260200190815260200160002060e060405190810160405290816000820160009054906101000a900473ffffffffffffffffffffffffffffffffffffffff1673ffffffffffffffffffffffffffffffffffffffff1673ffffffffffffffffffffffffffffffffffffffff1681526020016001820160009054906101000a900473ffffffffffffffffffffffffffffffffffffffff1673ffffffffffffffffffffffffffffffffffffffff1673ffffffffffffffffffffffffffffffffffffffff168152602001600282018054600181600116156101000203166002900480601f016020809104026020016040519081016040528092919081815260200182805460018160011615610100020316600290048015613e6f5780601f10613e4457610100808354040283529160200191613e6f565b820191906000526020600020905b815481529060010190602001808311613e5257829003601f168201915b50505050508152602001600382018054600181600116156101000203166002900480601f016020809104026020016040519081016040528092919081815260200182805460018160011615610100020316600290048015613f115780601f10613ee657610100808354040283529160200191613f11565b820191906000526020600020905b815481529060010190602001808311613ef457829003601f168201915b5050505050815260200160048201548152602001600582018054600181600116156101000203166002900480601f016020809104026020016040519081016040528092919081815260200182805460018160011615610100020316600290048015613fbd5780601f10613f9257610100808354040283529160200191613fbd565b820191906000526020600020905b815481529060010190602001808311613fa057829003601f168201915b505050505081526020016006820160009054906101000a900460ff1615151515815250509050919050565b613ff0614ce7565b600660008373ffffffffffffffffffffffffffffffffffffffff1673ffffffffffffffffffffffffffffffffffffffff16815260200190815260200160002060a060405190810160405290816000820160009054906101000a900473ffffffffffffffffffffffffffffffffffffffff1673ffffffffffffffffffffffffffffffffffffffff1673ffffffffffffffffffffffffffffffffffffffff168152602001600182018054600181600116156101000203166002900480601f01602080910402602001604051908101604052809291908181526020018280546001816001161561010002031660029004801561412a5780601f106140ff5761010080835404028352916020019161412a565b820191906000526020600020905b81548152906001019060200180831161410d57829003601f168201915b505050505081526020016002820160009054906101000a900473ffffffffffffffffffffffffffffffffffffffff1673ffffffffffffffffffffffffffffffffffffffff1673ffffffffffffffffffffffffffffffffffffffff168152602001600382015481526020016004820160009054906101000a900460ff1615151515815250509050919050565b60055481565b6000600c80549050905090565b6141d133611d25565b15156141dc57600080fd5b8173ffffffffffffffffffffffffffffffffffffffff16600460009054906101000a900473ffffffffffffffffffffffffffffffffffffffff1673ffffffffffffffffffffffffffffffffffffffff167f63ca7aaf1f7741894482e56b1504c8da8fdfc969d2d5388ba289330ff0ce7a8860055484604051808381526020018281526020019250505060405180910390a381600460006101000a81548173ffffffffffffffffffffffffffffffffffffffff021916908373ffffffffffffffffffffffffffffffffffffffff160217905550806005819055505050565b6000809054906101000a900473ffffffffffffffffffffffffffffffffffffffff1673ffffffffffffffffffffffffffffffffffffffff163373ffffffffffffffffffffffffffffffffffffffff1614151561431457600080fd5b80600160006101000a81548173ffffffffffffffffffffffffffffffffffffffff021916908373ffffffffffffffffffffffffffffffffffffffff16021790555050565b6000806000600760003373ffffffffffffffffffffffffffffffffffffffff1673ffffffffffffffffffffffffffffffffffffffff1681526020019081526020016000209250600073ffffffffffffffffffffffffffffffffffffffff168360000160009054906101000a900473ffffffffffffffffffffffffffffffffffffffff1673ffffffffffffffffffffffffffffffffffffffff16141515156143fe57600080fd5b600660008460010160009054906101000a900473ffffffffffffffffffffffffffffffffffffffff1673ffffffffffffffffffffffffffffffffffffffff1673ffffffffffffffffffffffffffffffffffffffff1681526020019081526020016000209150600073ffffffffffffffffffffffffffffffffffffffff168260000160009054906101000a900473ffffffffffffffffffffffffffffffffffffffff1673ffffffffffffffffffffffffffffffffffffffff16141515156144c357600080fd5b600860008973ffffffffffffffffffffffffffffffffffffffff1673ffffffffffffffffffffffffffffffffffffffff1681526020019081526020016000209050600073ffffffffffffffffffffffffffffffffffffffff168160000160009054906101000a900473ffffffffffffffffffffffffffffffffffffffff1673ffffffffffffffffffffffffffffffffffffffff1614151561456357600080fd5b60e0604051908101604052808973ffffffffffffffffffffffffffffffffffffffff1681526020013373ffffffffffffffffffffffffffffffffffffffff16815260200188815260200187815260200186815260200185815260200160011515815250600860008a73ffffffffffffffffffffffffffffffffffffffff1673ffffffffffffffffffffffffffffffffffffffff16815260200190815260200160002060008201518160000160006101000a81548173ffffffffffffffffffffffffffffffffffffffff021916908373ffffffffffffffffffffffffffffffffffffffff16021790555060208201518160010160006101000a81548173ffffffffffffffffffffffffffffffffffffffff021916908373ffffffffffffffffffffffffffffffffffffffff16021790555060408201518160020190805190602001906146af929190614bbd565b5060608201518160030190805190602001906146cc929190614bbd565b506080820151816004015560a08201518160050190805190602001906146f3929190614bbd565b5060c08201518160060160006101000a81548160ff021916908315150217905550905050600d805480600101828161472b9190614c3d565b916000526020600020900160008a909190916101000a81548173ffffffffffffffffffffffffffffffffffffffff021916908373ffffffffffffffffffffffffffffffffffffffff160217905550508160000160009054906101000a900473ffffffffffffffffffffffffffffffffffffffff1673ffffffffffffffffffffffffffffffffffffffff163373ffffffffffffffffffffffffffffffffffffffff168973ffffffffffffffffffffffffffffffffffffffff167fef5a80afc42df06ef4f342a1f95d294cf39231087c8eabb802e94c70806590f98a6001604051808060200183151515158152602001828103825284818151815260200191508051906020019080838360005b83811015614851578082015181840152602081019050614836565b50505050905090810190601f16801561487e5780820380516001836020036101000a031916815260200191505b50935050505060405180910390a45050505050505050565b6000600660003373ffffffffffffffffffffffffffffffffffffffff1673ffffffffffffffffffffffffffffffffffffffff16815260200190815260200160002090508060000160009054906101000a900473ffffffffffffffffffffffffffffffffffffffff1673ffffffffffffffffffffffffffffffffffffffff163373ffffffffffffffffffffffffffffffffffffffff1614151561493757600080fd5b8481600101908051906020019061494f929190614ae0565b50838160020160006101000a81548173ffffffffffffffffffffffffffffffffffffffff021916908373ffffffffffffffffffffffffffffffffffffffff160217905550828160030181905550818160040160006101000a81548160ff0219169083151502179055503373ffffffffffffffffffffffffffffffffffffffff167fbab94366663be4e79fe422e4d8427e79b1ede3eddc4e9e5bc383876540395ccf8686868660405180806020018573ffffffffffffffffffffffffffffffffffffffff1673ffffffffffffffffffffffffffffffffffffffff16815260200184815260200183151515158152602001828103825286818151815260200191508051906020019080838360005b83811015614a76578082015181840152602081019050614a5b565b50505050905090810190601f168015614aa35780820380516001836020036101000a031916815260200191505b509550505050505060405180910390a25050505050565b600360009054906101000a900473ffffffffffffffffffffffffffffffffffffffff1681565b828054600181600116156101000203166002900490600052602060002090601f016020900481019282601f10614b2157805160ff1916838001178555614b4f565b82800160010185558215614b4f579182015b82811115614b4e578251825591602001919060010190614b33565b5b509050614b5c9190614d4b565b5090565b608060405190810160405280600073ffffffffffffffffffffffffffffffffffffffff168152602001600073ffffffffffffffffffffffffffffffffffffffff168152602001614bae614d70565b81526020016000151581525090565b828054600181600116156101000203166002900490600052602060002090601f016020900481019282601f10614bfe57805160ff1916838001178555614c2c565b82800160010185558215614c2c579182015b82811115614c2b578251825591602001919060010190614c10565b5b509050614c399190614d4b565b5090565b815481835581811511614c6457818360005260206000209182019101614c639190614d4b565b5b505050565b60e060405190810160405280600073ffffffffffffffffffffffffffffffffffffffff168152602001600073ffffffffffffffffffffffffffffffffffffffff168152602001614cb7614d70565b8152602001614cc4614d70565b815260200160008152602001614cd8614d70565b81526020016000151581525090565b60a060405190810160405280600073ffffffffffffffffffffffffffffffffffffffff168152602001614d18614d70565b8152602001600073ffffffffffffffffffffffffffffffffffffffff168152602001600081526020016000151581525090565b614d6d91905b80821115614d69576000816000905550600101614d51565b5090565b90565b6020604051908101604052806000815250905600a165627a7a723058204d6b2c211bc25d8f0dae5d2de2d3b032dd7fa12c75e9081fdb29681c7d2acf870029",
  "source": "pragma solidity ^0.4.17;\n\n// ----------------------------------------------------------------------------\n// Devery Contracts - The Monolithic Registry\n//\n// Deployed to Ropsten Testnet at 0x654f4a3e3B7573D6b4bB7201AB70d718961765CD\n//\n// Enjoy.\n//\n// (c) BokkyPooBah / Bok Consulting Pty Ltd for Devery 2017. The MIT Licence.\n// ----------------------------------------------------------------------------\n\n\n// ----------------------------------------------------------------------------\n// ERC Token Standard #20 Interface\n// https://github.com/ethereum/EIPs/blob/master/EIPS/eip-20-token-standard.md\n// ----------------------------------------------------------------------------\ncontract ERC20Interface {\n    function totalSupply() public constant returns (uint);\n    function balanceOf(address tokenOwner) public constant returns (uint balance);\n    function allowance(address tokenOwner, address spender) public constant returns (uint remaining);\n    function transfer(address to, uint tokens) public returns (bool success);\n    function approve(address spender, uint tokens) public returns (bool success);\n    function transferFrom(address from, address to, uint tokens) public returns (bool success);\n\n    event Transfer(address indexed from, address indexed to, uint tokens);\n    event Approval(address indexed tokenOwner, address indexed spender, uint tokens);\n}\n\n\n// ----------------------------------------------------------------------------\n// Owned contract\n// ----------------------------------------------------------------------------\ncontract Owned {\n\n    address public owner;\n    address public newOwner;\n\n    event OwnershipTransferred(address indexed _from, address indexed _to);\n\n    modifier onlyOwner {\n        require(msg.sender == owner);\n        _;\n    }\n\n    function Owned() public {\n        owner = msg.sender;\n    }\n    function transferOwnership(address _newOwner) public onlyOwner {\n        newOwner = _newOwner;\n    }\n    function acceptOwnership() public {\n        require(msg.sender == newOwner);\n        OwnershipTransferred(owner, newOwner);\n        owner = newOwner;\n        newOwner = 0x0;\n    }\n}\n\n\n// ----------------------------------------------------------------------------\n// Administrators\n// ----------------------------------------------------------------------------\ncontract Admined is Owned {\n\n    mapping (address => bool) public admins;\n\n    event AdminAdded(address addr);\n    event AdminRemoved(address addr);\n\n    modifier onlyAdmin() {\n        require(isAdmin(msg.sender));\n        _;\n    }\n\n    function isAdmin(address addr) public constant returns (bool) {\n        return (admins[addr] || owner == addr);\n    }\n    function addAdmin(address addr) public onlyOwner {\n        require(!admins[addr] && addr != owner);\n        admins[addr] = true;\n        AdminAdded(addr);\n    }\n    function removeAdmin(address addr) public onlyOwner {\n        require(admins[addr]);\n        delete admins[addr];\n        AdminRemoved(addr);\n    }\n}\n\n\n// ----------------------------------------------------------------------------\n// Devery Registry\n// ----------------------------------------------------------------------------\ncontract DeveryRegistry is Admined {\n\n    struct App {\n        address appAccount;\n        string appName;\n        address feeAccount;\n        uint fee;\n        bool active;\n    }\n    struct Brand {\n        address brandAccount;\n        address appAccount;\n        string brandName;\n        bool active;\n    }\n    struct Product {\n        address productAccount;\n        address brandAccount;\n        string description;\n        string details;\n        uint year;\n        string origin;\n        bool active;\n    }\n\n    ERC20Interface public token; \n    address public feeAccount;\n    uint public fee;\n    mapping(address => App) public apps;\n    mapping(address => Brand) public brands;\n    mapping(address => Product) public products;\n    mapping(address => mapping(address => bool)) permissions;\n    mapping(bytes32 => address) markings;\n    address[] public appAccounts;\n    address[] public brandAccounts;\n    address[] public productAccounts;\n\n    event TokenUpdated(address indexed oldToken, address indexed newToken);\n    event FeeUpdated(address indexed oldFeeAccount, address indexed newFeeAccount, uint oldFee, uint newFee);\n    event AppAdded(address indexed appAccount, string appName, address feeAccount, uint fee, bool active);\n    event AppUpdated(address indexed appAccount, string appName, address feeAccount, uint fee, bool active);\n    event BrandAdded(address indexed brandAccount, address indexed appAccount, string brandName, bool active);\n    event BrandUpdated(address indexed brandAccount, address indexed appAccount, string brandName, bool active);\n    event ProductAdded(address indexed productAccount, address indexed brandAccount, address indexed appAccount, string description, bool active);\n    event ProductUpdated(address indexed productAccount, address indexed brandAccount, address indexed appAccount, string description, bool active);\n    event Permissioned(address indexed marker, address indexed brandAccount, bool permission);\n    event Marked(address indexed marker, address indexed productAccount, address appFeeAccount, address feeAccount, uint appFee, uint fee, bytes32 itemHash);\n\n\n    // ------------------------------------------------------------------------\n    // Token, fee account and fee\n    // ------------------------------------------------------------------------\n    function setToken(address _token) public onlyAdmin {\n        TokenUpdated(address(token), _token);\n        token = ERC20Interface(_token);\n    }\n    function setFee(address _feeAccount, uint _fee) public onlyAdmin {\n        FeeUpdated(feeAccount, _feeAccount, fee, _fee);\n        feeAccount = _feeAccount;\n        fee = _fee;\n    }\n\n    // ------------------------------------------------------------------------\n    // Account can add itself as an App account\n    // ------------------------------------------------------------------------\n    function addApp(string appName, address _feeAccount, uint _fee) public {\n        App storage e = apps[msg.sender];\n        require(e.appAccount == address(0));\n        apps[msg.sender] = App({\n            appAccount: msg.sender,\n            appName: appName,\n            feeAccount: _feeAccount,\n            fee: _fee,\n            active: true\n        });\n        appAccounts.push(msg.sender);\n        AppAdded(msg.sender, appName, _feeAccount, _fee, true);\n    }\n    function updateApp(string appName, address _feeAccount, uint _fee, bool active) public {\n        App storage e = apps[msg.sender];\n        require(msg.sender == e.appAccount);\n        e.appName = appName;\n        e.feeAccount = _feeAccount;\n        e.fee = _fee;\n        e.active = active;\n        AppUpdated(msg.sender, appName, _feeAccount, _fee, active);\n    }\n    function getApp(address appAccount) public constant returns (App app) {\n        app = apps[appAccount];\n    }\n    function getAppData(address appAccount) public constant returns (address _feeAccount, uint _fee, bool active) {\n        App storage e = apps[appAccount];\n        _feeAccount = e.feeAccount;\n        _fee = e.fee;\n        active = e.active;\n    }\n    function appAccountsLength() public constant returns (uint) {\n        return appAccounts.length;\n    }\n\n    // ------------------------------------------------------------------------\n    // App account can add Brand account\n    // ------------------------------------------------------------------------\n    function addBrand(address brandAccount, string brandName) public {\n        App storage app = apps[msg.sender];\n        require(app.appAccount != address(0));\n        Brand storage brand = brands[brandAccount];\n        require(brand.brandAccount == address(0));\n        brands[brandAccount] = Brand({\n            brandAccount: brandAccount,\n            appAccount: msg.sender,\n            brandName: brandName,\n            active: true\n        });\n        brandAccounts.push(brandAccount);\n        BrandAdded(brandAccount, msg.sender, brandName, true);\n    }\n    function updateBrand(address brandAccount, string brandName, bool active) public {\n        Brand storage brand = brands[brandAccount];\n        require(brand.appAccount == msg.sender);\n        brand.brandName = brandName;\n        brand.active = active;\n\n        BrandUpdated(brandAccount, msg.sender, brandName, active);\n    }\n    function getBrand(address brandAccount) public constant returns (Brand brand) {\n        brand = brands[brandAccount];\n    }\n    function getBrandData(address brandAccount) public constant returns (address appAccount, address appFeeAccount, bool active) {\n        Brand storage brand = brands[brandAccount];\n        require(brand.appAccount != address(0));\n        App storage app = apps[brand.appAccount];\n        require(app.appAccount != address(0));\n        appAccount = app.appAccount;\n        appFeeAccount = app.feeAccount;\n        active = app.active && brand.active;\n    }\n    function brandAccountsLength() public constant returns (uint) {\n        return brandAccounts.length;\n    }\n\n    // ------------------------------------------------------------------------\n    // Brand account can add Product account\n    // ------------------------------------------------------------------------\n    function addProduct(address productAccount, string description, string details, uint year, string origin) public {\n        Brand storage brand = brands[msg.sender];\n        require(brand.brandAccount != address(0));\n        App storage app = apps[brand.appAccount];\n        require(app.appAccount != address(0));\n        Product storage product = products[productAccount];\n        require(product.productAccount == address(0));\n        products[productAccount] = Product({\n            productAccount: productAccount,\n            brandAccount: msg.sender,\n            description: description,\n            details: details,\n            year: year,\n            origin: origin,\n            active: true\n        });\n        productAccounts.push(productAccount);\n        ProductAdded(productAccount, msg.sender, app.appAccount, description, true);\n    }\n    function updateProduct(address productAccount, string description, string details, uint year, string origin, bool active) public {\n        Product storage product = products[productAccount];\n        require(product.brandAccount == msg.sender);\n        Brand storage brand = brands[msg.sender];\n        require(brand.brandAccount == msg.sender);\n        App storage app = apps[brand.appAccount];\n        product.description = description;\n        product.details = details;\n        product.year = year;\n        product.origin = origin;\n        product.active = active;\n        ProductUpdated(productAccount, product.brandAccount, app.appAccount, description, active);\n    }\n    function getProduct(address productAccount) public constant returns (Product product) {\n        product = products[productAccount];\n    }\n    function getProductData(address productAccount) public constant returns (address brandAccount, address appAccount, address appFeeAccount, bool active) {\n        Product storage product = products[productAccount];\n        require(product.brandAccount != address(0));\n        Brand storage brand = brands[brandAccount];\n        require(brand.appAccount != address(0));\n        App storage app = apps[brand.appAccount];\n        require(app.appAccount != address(0));\n        brandAccount = product.brandAccount;\n        appAccount = app.appAccount;\n        appFeeAccount = app.feeAccount;\n        active = app.active && brand.active && brand.active;\n    }\n    function productAccountsLength() public constant returns (uint) {\n        return productAccounts.length;\n    }\n\n    // ------------------------------------------------------------------------\n    // Brand account can permission accounts as markers\n    // ------------------------------------------------------------------------\n    function permissionMarker(address marker, bool permission) public {\n        Brand storage brand = brands[msg.sender];\n        require(brand.brandAccount != address(0));\n        permissions[marker][msg.sender] = permission;\n        Permissioned(marker, msg.sender, permission);\n    }\n\n    // ------------------------------------------------------------------------\n    // Compute item hash from the public key\n    // ------------------------------------------------------------------------\n    function addressHash(address item) public pure returns (bytes32 hash) {\n        hash = keccak256(item);\n    }\n\n    // ------------------------------------------------------------------------\n    // Markers can add [productAccount, sha3(itemPublicKey)]\n    // ------------------------------------------------------------------------\n    function mark(address productAccount, bytes32 itemHash) public {\n        Product storage product = products[productAccount];\n        require(product.brandAccount != address(0) && product.active);\n        Brand storage brand = brands[product.brandAccount];\n        require(brand.brandAccount != address(0) && brand.active);\n        App storage app = apps[brand.appAccount];\n        require(app.appAccount != address(0) && app.active);\n        bool permissioned = permissions[msg.sender][brand.brandAccount];\n        require(permissioned);\n        markings[itemHash] = productAccount;\n        Marked(msg.sender, productAccount, app.feeAccount, feeAccount, app.fee, fee, itemHash);\n        if (app.fee > 0) {\n            token.transferFrom(brand.brandAccount, app.feeAccount, app.fee);\n        }\n        if (fee > 0) {\n            token.transferFrom(brand.brandAccount, feeAccount, fee);\n        }\n    }\n\n    // ------------------------------------------------------------------------\n    // Check itemPublicKey has been registered\n    // ------------------------------------------------------------------------\n    function check(address item) public constant returns (address productAccount, address brandAccount, address appAccount) {\n        bytes32 hash = keccak256(item);\n        productAccount = markings[hash];\n        // require(productAccount != address(0));\n        Product storage product = products[productAccount];\n        // require(product.brandAccount != address(0));\n        Brand storage brand = brands[product.brandAccount];\n        // require(brand.brandAccount != address(0));\n        brandAccount = product.brandAccount;\n        appAccount = brand.appAccount;\n    }\n}",
  "sourcePath": "/Users/victor/Documents/projects/js/devery.js/contracts/DeveryRegistry.sol",
  "compiler": {
    "name": "solc",
    "version": "0.4.19+commit.c4cbbb05.Emscripten.clang"
  },
  "schemaVersion": "2.0.0",
  "updatedAt": "2018-04-24T05:20:45.287Z"
}