{
  "contractName": "DeveryTrust",
  "abi": [
    {
      "anonymous": false,
      "inputs": [
        {
          "indexed": false,
          "name": "approver",
          "type": "address"
        },
        {
          "indexed": false,
          "name": "brandKey",
          "type": "address"
        }
      ],
      "name": "Approve",
      "type": "event"
    },
    {
      "anonymous": false,
      "inputs": [
        {
          "indexed": false,
          "name": "revoker",
          "type": "address"
        },
        {
          "indexed": false,
          "name": "brandKey",
          "type": "address"
        }
      ],
      "name": "Revoke",
      "type": "event"
    },
    {
      "constant": false,
      "inputs": [
        {
          "name": "brandKey",
          "type": "address"
        }
      ],
      "name": "approve",
      "outputs": [],
      "payable": false,
      "stateMutability": "nonpayable",
      "type": "function"
    },
    {
      "constant": false,
      "inputs": [
        {
          "name": "brandKey",
          "type": "address"
        }
      ],
      "name": "revoke",
      "outputs": [],
      "payable": false,
      "stateMutability": "nonpayable",
      "type": "function"
    },
    {
      "constant": true,
      "inputs": [
        {
          "name": "addr",
          "type": "address"
        }
      ],
      "name": "getAddressApprovals",
      "outputs": [
        {
          "name": "",
          "type": "address[]"
        }
      ],
      "payable": false,
      "stateMutability": "view",
      "type": "function"
    },
    {
      "constant": true,
      "inputs": [
        {
          "name": "addr",
          "type": "address"
        }
      ],
      "name": "getBrandApprovals",
      "outputs": [
        {
          "name": "",
          "type": "address[]"
        }
      ],
      "payable": false,
      "stateMutability": "view",
      "type": "function"
    }
  ],
  "bytecode": "0x608060405234801561001057600080fd5b506105f1806100206000396000f3006080604052600436106100615763ffffffff7c01000000000000000000000000000000000000000000000000000000006000350416631f474059811461006657806374a8f103146100d757806379fc9b1e146100fa578063daea85c51461011b575b600080fd5b34801561007257600080fd5b50610087600160a060020a036004351661013c565b60408051602080825283518183015283519192839290830191858101910280838360005b838110156100c35781810151838201526020016100ab565b505050509050019250505060405180910390f35b3480156100e357600080fd5b506100f8600160a060020a036004351661021d565b005b34801561010657600080fd5b50610087600160a060020a03600435166103c3565b34801561012757600080fd5b506100f8600160a060020a036004351661049b565b600160a060020a03811660009081526001602090815260408083205481518181528184028101909301909152606092839290918015610185578160200160208202803883390190505b509150600090505b600160a060020a03841660009081526001602052604090205481101561021657600160a060020a03841660009081526001602052604090208054829081106101d157fe5b6000918252602090912001548251600160a060020a03909116908390839081106101f757fe5b600160a060020a0390921660209283029091019091015260010161018d565b5092915050565b60005b600160a060020a0382166000908152602081905260409020548110156102d557600160a060020a038216600090815260208190526040902080543391908390811061026757fe5b600091825260209091200154600160a060020a031614156102cd57600160a060020a03821660009081526020819052604090208054829081106102a657fe5b6000918252602090912001805473ffffffffffffffffffffffffffffffffffffffff191690555b600101610220565b5060005b3360009081526001602052604090205481101561037c573360009081526001602052604090208054600160a060020a03841691908390811061031757fe5b600091825260209091200154600160a060020a031614156103745733600090815260016020526040902080548290811061034d57fe5b6000918252602090912001805473ffffffffffffffffffffffffffffffffffffffff191690555b6001016102d9565b60408051338152600160a060020a038416602082015281517fd7426110292f20fe59e73ccf52124e0f5440a756507c91c7b0a6c50e1eb1a23a929181900390910190a15050565b600160a060020a038116600090815260208181526040808320548151818152818402810190930190915260609283929091801561040a578160200160208202803883390190505b509150600090505b600160a060020a03841660009081526020819052604090205481101561021657600160a060020a038416600090815260208190526040902080548290811061045657fe5b6000918252602090912001548251600160a060020a039091169083908390811061047c57fe5b600160a060020a03909216602092830290910190910152600101610412565b6000805b600160a060020a03831660009081526020819052604090205481101561051257600160a060020a03831660009081526020819052604090208054339190839081106104e657fe5b600091825260209091200154600160a060020a0316141561050a5760019150610512565b60010161049f565b8115156105c057600160a060020a0383166000818152602081815260408083208054600180820183559185528385200180543373ffffffffffffffffffffffffffffffffffffffff199182168117909255818652828552838620805493840181558652948490209091018054909416851790935580519283529082019290925281517f3ce2da1daf10aa0a28578b70fe768ed2f390a3da82445358f9346fbc2981f6fd929181900390910190a15b5050505600a165627a7a7230582056db52a8e47de71b4299a1b1ba660325a851c932991926426c466ac8dba3a83d0029",
  "source": "pragma solidity ^0.4.18;\n\n\ncontract DeveryTrust {\n    mapping(address => address[]) brandApprovals;\n    mapping(address => address[]) publicVouches;\n    event Approve(address approver, address brandKey);\n    event Revoke(address revoker, address brandKey);\n\n    function approve(address brandKey) public {\n        uint alreadyExists = 0;\n        for(uint i=0;i<brandApprovals[brandKey].length;i++){\n            if(brandApprovals[brandKey][i] == msg.sender){\n                alreadyExists = 1;\n                break;\n            }\n        }\n        if(alreadyExists == 0){\n            brandApprovals[brandKey].push(msg.sender);\n            publicVouches[msg.sender].push(brandKey);\n            Approve(msg.sender, brandKey);\n        }\n    }\n\n    function revoke(address brandKey) public {\n        for(uint i=0;i<brandApprovals[brandKey].length;i++){\n            if(brandApprovals[brandKey][i] == msg.sender){\n                delete brandApprovals[brandKey][i];\n            }\n        }\n\n        for(i=0;i<publicVouches[msg.sender].length;i++){\n            if(publicVouches[msg.sender][i] == brandKey){\n                delete publicVouches[msg.sender][i];\n            }\n        }\n\n        Revoke(msg.sender, brandKey);\n    }\n\n    function getAddressApprovals(address addr) external view returns (address[]){\n        address[] memory approvals =  new address[](publicVouches[addr].length);\n        for(uint i=0;i<publicVouches[addr].length;i++){\n            approvals[i] = publicVouches[addr][i];\n        }\n        return approvals;\n    }\n\n    function getBrandApprovals(address addr) external view returns (address[]){\n        address[] memory approvals =  new address[](brandApprovals[addr].length);\n        for(uint i=0;i<brandApprovals[addr].length;i++){\n            approvals[i] = brandApprovals[addr][i];\n        }\n        return approvals;\n    }\n\n\n}\n",
  "sourcePath": "/Users/victoreloy/Projects/blockchain/deveryjs/contracts/v4/DeveryTrust.sol",
  "compiler": {
    "name": "solc",
    "version": "0.4.26+commit.4563c3fc.Emscripten.clang"
  },
  "schemaVersion": "3.4.1",
  "updatedAt": "2021-12-08T16:39:17.935Z",
  "devdoc": {
    "methods": {}
  },
  "userdoc": {
    "methods": {}
  }
}