{
  "contractName": "DeveryERC721Token",
  "abi": [
    {
      "constant": true,
      "inputs": [
        {
          "name": "interfaceId",
          "type": "bytes4"
        }
      ],
      "name": "supportsInterface",
      "outputs": [
        {
          "name": "",
          "type": "bool"
        }
      ],
      "payable": false,
      "stateMutability": "view",
      "type": "function"
    },
    {
      "constant": true,
      "inputs": [
        {
          "name": "tokenId",
          "type": "uint256"
        }
      ],
      "name": "getApproved",
      "outputs": [
        {
          "name": "",
          "type": "address"
        }
      ],
      "payable": false,
      "stateMutability": "view",
      "type": "function"
    },
    {
      "constant": false,
      "inputs": [
        {
          "name": "to",
          "type": "address"
        },
        {
          "name": "tokenId",
          "type": "uint256"
        }
      ],
      "name": "approve",
      "outputs": [],
      "payable": false,
      "stateMutability": "nonpayable",
      "type": "function"
    },
    {
      "constant": false,
      "inputs": [
        {
          "name": "addr",
          "type": "address"
        }
      ],
      "name": "removeAdmin",
      "outputs": [],
      "payable": false,
      "stateMutability": "nonpayable",
      "type": "function"
    },
    {
      "constant": true,
      "inputs": [],
      "name": "totalSupply",
      "outputs": [
        {
          "name": "",
          "type": "uint256"
        }
      ],
      "payable": false,
      "stateMutability": "view",
      "type": "function"
    },
    {
      "constant": false,
      "inputs": [
        {
          "name": "from",
          "type": "address"
        },
        {
          "name": "to",
          "type": "address"
        },
        {
          "name": "tokenId",
          "type": "uint256"
        }
      ],
      "name": "transferFrom",
      "outputs": [],
      "payable": false,
      "stateMutability": "nonpayable",
      "type": "function"
    },
    {
      "constant": true,
      "inputs": [
        {
          "name": "addr",
          "type": "address"
        }
      ],
      "name": "isAdmin",
      "outputs": [
        {
          "name": "",
          "type": "bool"
        }
      ],
      "payable": false,
      "stateMutability": "view",
      "type": "function"
    },
    {
      "constant": true,
      "inputs": [
        {
          "name": "owner",
          "type": "address"
        },
        {
          "name": "index",
          "type": "uint256"
        }
      ],
      "name": "tokenOfOwnerByIndex",
      "outputs": [
        {
          "name": "",
          "type": "uint256"
        }
      ],
      "payable": false,
      "stateMutability": "view",
      "type": "function"
    },
    {
      "constant": false,
      "inputs": [
        {
          "name": "from",
          "type": "address"
        },
        {
          "name": "to",
          "type": "address"
        },
        {
          "name": "tokenId",
          "type": "uint256"
        }
      ],
      "name": "safeTransferFrom",
      "outputs": [],
      "payable": false,
      "stateMutability": "nonpayable",
      "type": "function"
    },
    {
      "constant": true,
      "inputs": [
        {
          "name": "",
          "type": "address"
        }
      ],
      "name": "admins",
      "outputs": [
        {
          "name": "",
          "type": "bool"
        }
      ],
      "payable": false,
      "stateMutability": "view",
      "type": "function"
    },
    {
      "constant": true,
      "inputs": [
        {
          "name": "",
          "type": "address"
        }
      ],
      "name": "totalAllowedProducts",
      "outputs": [
        {
          "name": "",
          "type": "uint256"
        }
      ],
      "payable": false,
      "stateMutability": "view",
      "type": "function"
    },
    {
      "constant": true,
      "inputs": [
        {
          "name": "index",
          "type": "uint256"
        }
      ],
      "name": "tokenByIndex",
      "outputs": [
        {
          "name": "",
          "type": "uint256"
        }
      ],
      "payable": false,
      "stateMutability": "view",
      "type": "function"
    },
    {
      "constant": true,
      "inputs": [
        {
          "name": "tokenId",
          "type": "uint256"
        }
      ],
      "name": "ownerOf",
      "outputs": [
        {
          "name": "",
          "type": "address"
        }
      ],
      "payable": false,
      "stateMutability": "view",
      "type": "function"
    },
    {
      "constant": false,
      "inputs": [
        {
          "name": "addr",
          "type": "address"
        }
      ],
      "name": "addAdmin",
      "outputs": [],
      "payable": false,
      "stateMutability": "nonpayable",
      "type": "function"
    },
    {
      "constant": true,
      "inputs": [
        {
          "name": "owner",
          "type": "address"
        }
      ],
      "name": "balanceOf",
      "outputs": [
        {
          "name": "",
          "type": "uint256"
        }
      ],
      "payable": false,
      "stateMutability": "view",
      "type": "function"
    },
    {
      "constant": false,
      "inputs": [],
      "name": "acceptOwnership",
      "outputs": [],
      "payable": false,
      "stateMutability": "nonpayable",
      "type": "function"
    },
    {
      "constant": true,
      "inputs": [],
      "name": "owner",
      "outputs": [
        {
          "name": "",
          "type": "address"
        }
      ],
      "payable": false,
      "stateMutability": "view",
      "type": "function"
    },
    {
      "constant": false,
      "inputs": [
        {
          "name": "to",
          "type": "address"
        },
        {
          "name": "approved",
          "type": "bool"
        }
      ],
      "name": "setApprovalForAll",
      "outputs": [],
      "payable": false,
      "stateMutability": "nonpayable",
      "type": "function"
    },
    {
      "constant": true,
      "inputs": [
        {
          "name": "",
          "type": "uint256"
        }
      ],
      "name": "tokenIdToProduct",
      "outputs": [
        {
          "name": "",
          "type": "address"
        }
      ],
      "payable": false,
      "stateMutability": "view",
      "type": "function"
    },
    {
      "constant": false,
      "inputs": [
        {
          "name": "from",
          "type": "address"
        },
        {
          "name": "to",
          "type": "address"
        },
        {
          "name": "tokenId",
          "type": "uint256"
        },
        {
          "name": "_data",
          "type": "bytes"
        }
      ],
      "name": "safeTransferFrom",
      "outputs": [],
      "payable": false,
      "stateMutability": "nonpayable",
      "type": "function"
    },
    {
      "constant": true,
      "inputs": [],
      "name": "newOwner",
      "outputs": [
        {
          "name": "",
          "type": "address"
        }
      ],
      "payable": false,
      "stateMutability": "view",
      "type": "function"
    },
    {
      "constant": true,
      "inputs": [
        {
          "name": "owner",
          "type": "address"
        },
        {
          "name": "operator",
          "type": "address"
        }
      ],
      "name": "isApprovedForAll",
      "outputs": [
        {
          "name": "",
          "type": "bool"
        }
      ],
      "payable": false,
      "stateMutability": "view",
      "type": "function"
    },
    {
      "constant": false,
      "inputs": [
        {
          "name": "_newOwner",
          "type": "address"
        }
      ],
      "name": "transferOwnership",
      "outputs": [],
      "payable": false,
      "stateMutability": "nonpayable",
      "type": "function"
    },
    {
      "constant": true,
      "inputs": [
        {
          "name": "",
          "type": "address"
        }
      ],
      "name": "totalMintedProducts",
      "outputs": [
        {
          "name": "",
          "type": "uint256"
        }
      ],
      "payable": false,
      "stateMutability": "view",
      "type": "function"
    },
    {
      "constant": true,
      "inputs": [],
      "name": "token",
      "outputs": [
        {
          "name": "",
          "type": "address"
        }
      ],
      "payable": false,
      "stateMutability": "view",
      "type": "function"
    },
    {
      "anonymous": false,
      "inputs": [
        {
          "indexed": true,
          "name": "oldToken",
          "type": "address"
        },
        {
          "indexed": true,
          "name": "newToken",
          "type": "address"
        }
      ],
      "name": "TokenUpdated",
      "type": "event"
    },
    {
      "anonymous": false,
      "inputs": [
        {
          "indexed": false,
          "name": "addr",
          "type": "address"
        }
      ],
      "name": "AdminAdded",
      "type": "event"
    },
    {
      "anonymous": false,
      "inputs": [
        {
          "indexed": false,
          "name": "addr",
          "type": "address"
        }
      ],
      "name": "AdminRemoved",
      "type": "event"
    },
    {
      "anonymous": false,
      "inputs": [
        {
          "indexed": true,
          "name": "_from",
          "type": "address"
        },
        {
          "indexed": true,
          "name": "_to",
          "type": "address"
        }
      ],
      "name": "OwnershipTransferred",
      "type": "event"
    },
    {
      "anonymous": false,
      "inputs": [
        {
          "indexed": true,
          "name": "from",
          "type": "address"
        },
        {
          "indexed": true,
          "name": "to",
          "type": "address"
        },
        {
          "indexed": true,
          "name": "tokenId",
          "type": "uint256"
        }
      ],
      "name": "Transfer",
      "type": "event"
    },
    {
      "anonymous": false,
      "inputs": [
        {
          "indexed": true,
          "name": "owner",
          "type": "address"
        },
        {
          "indexed": true,
          "name": "approved",
          "type": "address"
        },
        {
          "indexed": true,
          "name": "tokenId",
          "type": "uint256"
        }
      ],
      "name": "Approval",
      "type": "event"
    },
    {
      "anonymous": false,
      "inputs": [
        {
          "indexed": true,
          "name": "owner",
          "type": "address"
        },
        {
          "indexed": true,
          "name": "operator",
          "type": "address"
        },
        {
          "indexed": false,
          "name": "approved",
          "type": "bool"
        }
      ],
      "name": "ApprovalForAll",
      "type": "event"
    },
    {
      "constant": false,
      "inputs": [
        {
          "name": "_token",
          "type": "address"
        }
      ],
      "name": "setToken",
      "outputs": [],
      "payable": false,
      "stateMutability": "nonpayable",
      "type": "function"
    },
    {
      "constant": false,
      "inputs": [
        {
          "name": "_deveryRegistryAddress",
          "type": "address"
        }
      ],
      "name": "setDeveryRegistryAddress",
      "outputs": [],
      "payable": false,
      "stateMutability": "nonpayable",
      "type": "function"
    },
    {
      "constant": false,
      "inputs": [
        {
          "name": "_productAddress",
          "type": "address"
        },
        {
          "name": "_quantity",
          "type": "uint256"
        }
      ],
      "name": "setMaximumMintableQuantity",
      "outputs": [],
      "payable": true,
      "stateMutability": "payable",
      "type": "function"
    },
    {
      "constant": false,
      "inputs": [
        {
          "name": "_productAddress",
          "type": "address"
        },
        {
          "name": "_quantity",
          "type": "uint256"
        }
      ],
      "name": "claimProduct",
      "outputs": [],
      "payable": true,
      "stateMutability": "payable",
      "type": "function"
    },
    {
      "constant": true,
      "inputs": [
        {
          "name": "_owner",
          "type": "address"
        }
      ],
      "name": "getProductsByOwner",
      "outputs": [
        {
          "name": "",
          "type": "address[]"
        }
      ],
      "payable": false,
      "stateMutability": "view",
      "type": "function"
    }
  ],
  "bytecode": "0x6080604052620000387f01ffc9a700000000000000000000000000000000000000000000000000000000640100000000620000b8810204565b6200006c7f80ac58cd00000000000000000000000000000000000000000000000000000000640100000000620000b8810204565b620000a07f780e9d6300000000000000000000000000000000000000000000000000000000640100000000620000b8810204565b60098054600160a060020a0319163317905562000125565b7fffffffff000000000000000000000000000000000000000000000000000000008082161415620000e857600080fd5b7fffffffff00000000000000000000000000000000000000000000000000000000166000908152602081905260409020805460ff19166001179055565b6127b380620001356000396000f3006080604052600436106101665763ffffffff60e060020a60003504166301ffc9a7811461016b578063081812fc146101a1578063095ea7b3146101ce5780630fecef48146101f0578063144fa6d71461021d5780631785f53c1461023d57806318160ddd1461025d57806323b872dd1461027f57806324d7806c1461029f5780632f745c59146102bf57806338ecdca9146102df5780633dc7426e146102f257806342842e0e14610305578063429b62e51461032557806344cb8f79146103455780634f6ccce7146103655780636352211e1461038557806370480275146103a557806370a08231146103c557806379ba5097146103e55780638da5cb5b146103fa578063a22cb4651461040f578063b6f949c31461042f578063b88d4fde1461044f578063bc68118b1461046f578063d4ee1d901461048f578063e985e9c5146104a4578063f2fde38b146104c4578063f5a27556146104e4578063fc0c546a14610504575b600080fd5b34801561017757600080fd5b5061018b610186366004611f35565b610526565b6040516101989190612586565b60405180910390f35b3480156101ad57600080fd5b506101c16101bc366004611f71565b61055a565b60405161019891906124fb565b3480156101da57600080fd5b506101ee6101e9366004611ee7565b6105ab565b005b3480156101fc57600080fd5b5061021061020b366004611b9d565b610680565b6040516101989190612575565b34801561022957600080fd5b506101ee610238366004611b9d565b610753565b34801561024957600080fd5b506101ee610258366004611b9d565b6107c3565b34801561026957600080fd5b5061027261085c565b6040516101989190612692565b34801561028b57600080fd5b506101ee61029a366004611d70565b610863565b3480156102ab57600080fd5b5061018b6102ba366004611b9d565b61089e565b3480156102cb57600080fd5b506102726102da366004611ee7565b6108d8565b6101ee6102ed366004611ee7565b61093b565b6101ee610300366004611ee7565b610f5c565b34801561031157600080fd5b506101ee610320366004611d70565b61106e565b34801561033157600080fd5b5061018b610340366004611b9d565b61108a565b34801561035157600080fd5b50610272610360366004611b9d565b61109f565b34801561037157600080fd5b50610272610380366004611f71565b6110b1565b34801561039157600080fd5b506101c16103a0366004611f71565b6110fc565b3480156103b157600080fd5b506101ee6103c0366004611b9d565b611136565b3480156103d157600080fd5b506102726103e0366004611b9d565b6111e2565b3480156103f157600080fd5b506101ee611230565b34801561040657600080fd5b506101c16112ad565b34801561041b57600080fd5b506101ee61042a366004611e2a565b6112bc565b34801561043b57600080fd5b506101c161044a366004611f71565b611357565b34801561045b57600080fd5b506101ee61046a366004611dbd565b61137f565b34801561047b57600080fd5b506101ee61048a366004611b9d565b6113bd565b34801561049b57600080fd5b506101c16113f3565b3480156104b057600080fd5b5061018b6104bf366004611bd9565b611402565b3480156104d057600080fd5b506101ee6104df366004611b9d565b611430565b3480156104f057600080fd5b506102726104ff366004611b9d565b611469565b34801561051057600080fd5b5061051961147b565b6040516101989190612594565b7bffffffffffffffffffffffffffffffffffffffffffffffffffffffff191660009081526020819052604090205460ff1690565b60006105658261148a565b151561058f5760405160e560020a62461bcd02815260040161058690612642565b60405180910390fd5b50600090815260026020526040902054600160a060020a031690565b60006105b6826110fc565b9050600160a060020a0383811690821614156105e75760405160e560020a62461bcd02815260040161058690612662565b33600160a060020a038216148061060357506106038133611402565b15156106245760405160e560020a62461bcd02815260040161058690612602565b6000828152600260205260408082208054600160a060020a031916600160a060020a0387811691821790925591518593918516917f8c5be1e5ebec7d5bd14f71427d1e84f3dd0314c0f7b2291e5b200ac8c7c3b92591a4505050565b60608060008061068f856111e2565b6040519080825280602002602001820160405280156106b8578160200160208202803883390190505b50925060009150600090505b600c5481101561074a5784600160a060020a03166106e1826110fc565b600160a060020a0316141561074257600c8054829081106106fe57fe5b6000918252602090912001548351600160a060020a039091169084908490811061072457fe5b600160a060020a039092166020928302909101909101526001909101905b6001016106c4565b50909392505050565b61075c3361089e565b151561076757600080fd5b601054604051600160a060020a038084169216907f0b1186973f810894b87ab0bfbee422fddcaad21b46dc705a561451bbb6bac11790600090a360108054600160a060020a031916600160a060020a0392909216919091179055565b600954600160a060020a031633146107da57600080fd5b600160a060020a0381166000908152600b602052604090205460ff16151561080157600080fd5b600160a060020a0381166000908152600b602052604090819020805460ff19169055517fa3b62bc36326052d97ea62d63c3d60308ed4c3ea8ac079dd8499f1e9c4f80c0f906108519083906124fb565b60405180910390a150565b6007545b90565b61086d33826114a7565b151561088e5760405160e560020a62461bcd02815260040161058690612672565b610899838383611530565b505050565b600160a060020a0381166000908152600b602052604081205460ff16806108d25750600954600160a060020a038381169116145b92915050565b60006108e3836111e2565b82106109045760405160e560020a62461bcd028152600401610586906125a2565b600160a060020a038316600090815260056020526040902080548390811061092857fe5b9060005260206000200154905092915050565b600080600080600080600080896000600f60009054906101000a9004600160a060020a0316600160a060020a031663793a8e71836040518263ffffffff1660e060020a02815260040161098e91906124fb565b600060405180830381600087803b1580156109a857600080fd5b505af11580156109bc573d6000803e3d6000fd5b505050506040513d6000823e601f3d908101601f191682016040526109e49190810190611c8c565b509395505050600160a060020a03841633149250610a0491505057600080fd5b600160a060020a038c166000908152600d60205260409020541580610a4f5750600160a060020a038c166000908152600e6020908152604080832054600d90925290912054908c0111155b1515610a5a57600080fd5b600f546040517f793a8e71000000000000000000000000000000000000000000000000000000008152600160a060020a039091169063793a8e7190610aa3908f906004016124fb565b600060405180830381600087803b158015610abd57600080fd5b505af1158015610ad1573d6000803e3d6000fd5b505050506040513d6000823e601f3d908101601f19168201604052610af99190810190611c8c565b5050600f546040517f5b7fd9b5000000000000000000000000000000000000000000000000000000008152949f50600160a060020a03169450635b7fd9b593610b4a93508f925060040190506124fb565b600060405180830381600087803b158015610b6457600080fd5b505af1158015610b78573d6000803e3d6000fd5b505050506040513d6000823e601f3d908101601f19168201604052610ba09190810190611c13565b5050600f546040517f1309ec43000000000000000000000000000000000000000000000000000000008152919b50600160a060020a03169150631309ec4390610bed908c906004016124fb565b600060405180830381600087803b158015610c0757600080fd5b505af1158015610c1b573d6000803e3d6000fd5b505050506040513d6000823e601f3d908101601f19168201604052610c439190810190611e5a565b50600f54604080517fddca3f430000000000000000000000000000000000000000000000000000000081529051939d50919a50600160a060020a0316935063ddca3f4392506004808201926020929091908290030181600087803b158015610caa57600080fd5b505af1158015610cbe573d6000803e3d6000fd5b505050506040513d601f19601f82011682018060405250610ce29190810190611f8f565b9450600f60009054906101000a9004600160a060020a0316600160a060020a03166365e17c9d6040518163ffffffff1660e060020a028152600401602060405180830381600087803b158015610d3757600080fd5b505af1158015610d4b573d6000803e3d6000fd5b505050506040513d601f19601f82011682018060405250610d6f9190810190611bbb565b96506000861115610e1857601060009054906101000a9004600160a060020a0316600160a060020a03166323b872dd8b8a8e8a026040518463ffffffff1660e060020a028152600401610dc493929190612509565b602060405180830381600087803b158015610dde57600080fd5b505af1158015610df2573d6000803e3d6000fd5b505050506040513d601f19601f82011682018060405250610e169190810190611f17565b505b6000851115610ebf57601060009054906101000a9004600160a060020a0316600160a060020a03166323b872dd8b898e89026040518463ffffffff1660e060020a028152600401610e6b93929190612509565b602060405180830381600087803b158015610e8557600080fd5b505af1158015610e99573d6000803e3d6000fd5b505050506040513d601f19601f82011682018060405250610ebd9190810190611f17565b505b600093505b8a841015610f2f57600c80546001810182556000919091527fdf6966c971051c3d54ec59162606531493a51404a002842f56009d7e5cf4a8c781018054600160a060020a031916600160a060020a038f161790559250610f24338461154f565b600190930192610ec4565b505050600160a060020a039098166000908152600e60205260409020805490970190965550505050505050565b600f546040517f793a8e710000000000000000000000000000000000000000000000000000000081528391600091600160a060020a039091169063793a8e7190610faa9085906004016124fb565b600060405180830381600087803b158015610fc457600080fd5b505af1158015610fd8573d6000803e3d6000fd5b505050506040513d6000823e601f3d908101601f191682016040526110009190810190611c8c565b509395505050600160a060020a0384163314925061102091505057600080fd5b600160a060020a0384166000908152600e602052604090205483101580611045575082155b151561105057600080fd5b5050600160a060020a039091166000908152600d6020526040902055565b610899838383602060405190810160405280600081525061137f565b600b6020526000908152604090205460ff1681565b600d6020526000908152604090205481565b60006110bb61085c565b82106110dc5760405160e560020a62461bcd02815260040161058690612682565b60078054839081106110ea57fe5b90600052602060002001549050919050565b600081815260016020526040812054600160a060020a03168015156108d25760405160e560020a62461bcd02815260040161058690612622565b600954600160a060020a0316331461114d57600080fd5b600160a060020a0381166000908152600b602052604090205460ff161580156111845750600954600160a060020a03828116911614155b151561118f57600080fd5b600160a060020a0381166000908152600b602052604090819020805460ff19166001179055517f44d6d25963f097ad14f29f06854a01f575648a1ef82f30e562ccd3889717e339906108519083906124fb565b6000600160a060020a038216151561120f5760405160e560020a62461bcd02815260040161058690612612565b600160a060020a03821660009081526003602052604090206108d290611570565b600a54600160a060020a0316331461124757600080fd5b600a54600954604051600160a060020a0392831692909116907f8be0079c531659141344cd1fd0a4f28419497f9722a3daafe3b4186f6b6457e090600090a3600a805460098054600160a060020a0319908116600160a060020a03841617909155169055565b600954600160a060020a031681565b600160a060020a0382163314156112e85760405160e560020a62461bcd028152600401610586906125e2565b336000818152600460209081526040808320600160a060020a038716808552925291829020805460ff191685151517905590519091907f17307eab39ab6107e8899845ad3d59bd9653f200f220920489ca2b5937696c319061134b908590612586565b60405180910390a35050565b600c80548290811061136557fe5b600091825260209091200154600160a060020a0316905081565b61138a848484610863565b61139684848484611574565b15156113b75760405160e560020a62461bcd028152600401610586906125b2565b50505050565b6113c63361089e565b15156113d157600080fd5b600f8054600160a060020a031916600160a060020a0392909216919091179055565b600a54600160a060020a031681565b600160a060020a03918216600090815260046020908152604080832093909416825291909152205460ff1690565b600954600160a060020a0316331461144757600080fd5b600a8054600160a060020a031916600160a060020a0392909216919091179055565b600e6020526000908152604090205481565b601054600160a060020a031681565b600090815260016020526040902054600160a060020a0316151590565b6000806114b38361148a565b15156114d45760405160e560020a62461bcd028152600401610586906125f2565b6114dd836110fc565b905080600160a060020a031684600160a060020a03161480611518575083600160a060020a031661150d8461055a565b600160a060020a0316145b8061152857506115288185611402565b949350505050565b61153b838383611685565b6115458382611793565b6108998282611892565b61155982826118d0565b6115638282611892565b61156c8161199f565b5050565b5490565b60008061158985600160a060020a03166119e3565b1515611598576001915061167c565b6040517f150b7a02000000000000000000000000000000000000000000000000000000008152600160a060020a0386169063150b7a02906115e39033908a9089908990600401612531565b602060405180830381600087803b1580156115fd57600080fd5b505af1158015611611573d6000803e3d6000fd5b505050506040513d601f19601f820116820180604052506116359190810190611f53565b7bffffffffffffffffffffffffffffffffffffffffffffffffffffffff1981167f150b7a020000000000000000000000000000000000000000000000000000000014925090505b50949350505050565b82600160a060020a0316611698826110fc565b600160a060020a0316146116c15760405160e560020a62461bcd02815260040161058690612652565b600160a060020a03821615156116ec5760405160e560020a62461bcd028152600401610586906125d2565b6116f5816119eb565b600160a060020a038316600090815260036020526040902061171690611a28565b600160a060020a038216600090815260036020526040902061173790611a3f565b6000818152600160205260408082208054600160a060020a031916600160a060020a0386811691821790925591518493918716917fddf252ad1be2c89b69c2b068fc378daa952ba7f163c4a11628f55a4df523b3ef91a4505050565b600160a060020a038216600090815260056020526040812054819081906117c190600163ffffffff611a4816565b600085815260066020526040902054909350915081831461186157600160a060020a038516600090815260056020526040902080548490811061180057fe5b90600052602060002001549050806005600087600160a060020a0316600160a060020a031681526020019081526020016000208381548110151561184057fe5b60009182526020808320909101929092558281526006909152604090208290555b600160a060020a038516600090815260056020526040902080549061188a906000198301611a5f565b505050505050565b600160a060020a0390911660009081526005602081815260408084208054868652600684529185208290559282526001810183559183529091200155565b600160a060020a03821615156118fb5760405160e560020a62461bcd02815260040161058690612632565b6119048161148a565b156119245760405160e560020a62461bcd028152600401610586906125c2565b60008181526001602090815260408083208054600160a060020a031916600160a060020a03871690811790915583526003909152902061196390611a3f565b6040518190600160a060020a038416906000907fddf252ad1be2c89b69c2b068fc378daa952ba7f163c4a11628f55a4df523b3ef908290a45050565b600780546000838152600860205260408120829055600182018355919091527fa66cc928b5edb82af9bd49922954155ab7b0942694bea4ce44661d9a8736c6880155565b6000903b1190565b600081815260026020526040902054600160a060020a031615611a255760008181526002602052604090208054600160a060020a03191690555b50565b8054611a3b90600163ffffffff611a4816565b9055565b80546001019055565b60008083831115611a5857600080fd5b5050900390565b8154818355818111156108995760008381526020902061089991810190830161086091905b80821115611a985760008155600101611a84565b5090565b6000611aa882356126f9565b9392505050565b6000611aa882516126f9565b6000611aa88235612705565b6000611aa88251612705565b6000611aa8823561270a565b6000611aa8825161270a565b6000601f82018313611afc57600080fd5b8135611b0f611b0a826126c7565b6126a0565b91508082526020830160208301858383011115611b2b57600080fd5b611b36838284612737565b50505092915050565b6000601f82018313611b5057600080fd5b8151611b5e611b0a826126c7565b91508082526020830160208301858383011115611b7a57600080fd5b611b36838284612743565b6000611aa88235610860565b6000611aa88251610860565b600060208284031215611baf57600080fd5b60006115288484611a9c565b600060208284031215611bcd57600080fd5b60006115288484611aaf565b60008060408385031215611bec57600080fd5b6000611bf88585611a9c565b9250506020611c0985828601611a9c565b9150509250929050565b60008060008060808587031215611c2957600080fd5b6000611c358787611aaf565b9450506020611c4687828801611aaf565b935050604085015167ffffffffffffffff811115611c6357600080fd5b611c6f87828801611b3f565b9250506060611c8087828801611ac7565b91505092959194509250565b600080600080600080600060e0888a031215611ca757600080fd5b6000611cb38a8a611aaf565b9750506020611cc48a828b01611aaf565b965050604088015167ffffffffffffffff811115611ce157600080fd5b611ced8a828b01611b3f565b955050606088015167ffffffffffffffff811115611d0a57600080fd5b611d168a828b01611b3f565b9450506080611d278a828b01611b91565b93505060a088015167ffffffffffffffff811115611d4457600080fd5b611d508a828b01611b3f565b92505060c0611d618a828b01611ac7565b91505092959891949750929550565b600080600060608486031215611d8557600080fd5b6000611d918686611a9c565b9350506020611da286828701611a9c565b9250506040611db386828701611b85565b9150509250925092565b60008060008060808587031215611dd357600080fd5b6000611ddf8787611a9c565b9450506020611df087828801611a9c565b9350506040611e0187828801611b85565b925050606085013567ffffffffffffffff811115611e1e57600080fd5b611c8087828801611aeb565b60008060408385031215611e3d57600080fd5b6000611e498585611a9c565b9250506020611c0985828601611abb565b600080600080600060a08688031215611e7257600080fd5b6000611e7e8888611aaf565b955050602086015167ffffffffffffffff811115611e9b57600080fd5b611ea788828901611b3f565b9450506040611eb888828901611aaf565b9350506060611ec988828901611b91565b9250506080611eda88828901611ac7565b9150509295509295909350565b60008060408385031215611efa57600080fd5b6000611f068585611a9c565b9250506020611c0985828601611b85565b600060208284031215611f2957600080fd5b60006115288484611ac7565b600060208284031215611f4757600080fd5b60006115288484611ad3565b600060208284031215611f6557600080fd5b60006115288484611adf565b600060208284031215611f8357600080fd5b60006115288484611b85565b600060208284031215611fa157600080fd5b60006115288484611b91565b611fb6816126f9565b82525050565b6000611fc7826126f5565b808452602084019350611fd9836126ef565b60005b8281101561200957611fef868351611fad565b611ff8826126ef565b602096909601959150600101611fdc565b5093949350505050565b611fb681612705565b6000612027826126f5565b80845261203b816020860160208601612743565b6120448161276f565b9093016020019392505050565b611fb68161272c565b602b81527f455243373231456e756d657261626c653a206f776e657220696e646578206f7560208201527f74206f6620626f756e6473000000000000000000000000000000000000000000604082015260600190565b603281527f4552433732313a207472616e7366657220746f206e6f6e20455243373231526560208201527f63656976657220696d706c656d656e7465720000000000000000000000000000604082015260600190565b601c81527f4552433732313a20746f6b656e20616c7265616479206d696e74656400000000602082015260400190565b602481527f4552433732313a207472616e7366657220746f20746865207a65726f2061646460208201527f7265737300000000000000000000000000000000000000000000000000000000604082015260600190565b601981527f4552433732313a20617070726f766520746f2063616c6c657200000000000000602082015260400190565b602c81527f4552433732313a206f70657261746f7220717565727920666f72206e6f6e657860208201527f697374656e7420746f6b656e0000000000000000000000000000000000000000604082015260600190565b603881527f4552433732313a20617070726f76652063616c6c6572206973206e6f74206f7760208201527f6e6572206e6f7220617070726f76656420666f7220616c6c0000000000000000604082015260600190565b602a81527f4552433732313a2062616c616e636520717565727920666f7220746865207a6560208201527f726f206164647265737300000000000000000000000000000000000000000000604082015260600190565b602981527f4552433732313a206f776e657220717565727920666f72206e6f6e657869737460208201527f656e7420746f6b656e0000000000000000000000000000000000000000000000604082015260600190565b60208082527f4552433732313a206d696e7420746f20746865207a65726f20616464726573739082015260400190565b602c81527f4552433732313a20617070726f76656420717565727920666f72206e6f6e657860208201527f697374656e7420746f6b656e0000000000000000000000000000000000000000604082015260600190565b602981527f4552433732313a207472616e73666572206f6620746f6b656e2074686174206960208201527f73206e6f74206f776e0000000000000000000000000000000000000000000000604082015260600190565b602181527f4552433732313a20617070726f76616c20746f2063757272656e74206f776e6560208201527f7200000000000000000000000000000000000000000000000000000000000000604082015260600190565b603181527f4552433732313a207472616e736665722063616c6c6572206973206e6f74206f60208201527f776e6572206e6f7220617070726f766564000000000000000000000000000000604082015260600190565b602c81527f455243373231456e756d657261626c653a20676c6f62616c20696e646578206f60208201527f7574206f6620626f756e64730000000000000000000000000000000000000000604082015260600190565b611fb681610860565b602081016108d28284611fad565b606081016125178286611fad565b6125246020830185611fad565b61152860408301846124f2565b6080810161253f8287611fad565b61254c6020830186611fad565b61255960408301856124f2565b818103606083015261256b818461201c565b9695505050505050565b60208082528101611aa88184611fbc565b602081016108d28284612013565b602081016108d28284612051565b602080825281016108d28161205a565b602080825281016108d2816120b0565b602080825281016108d281612106565b602080825281016108d281612136565b602080825281016108d28161218c565b602080825281016108d2816121bc565b602080825281016108d281612212565b602080825281016108d281612268565b602080825281016108d2816122be565b602080825281016108d281612314565b602080825281016108d281612344565b602080825281016108d28161239a565b602080825281016108d2816123f0565b602080825281016108d281612446565b602080825281016108d28161249c565b602081016108d282846124f2565b60405181810167ffffffffffffffff811182821017156126bf57600080fd5b604052919050565b600067ffffffffffffffff8211156126de57600080fd5b506020601f91909101601f19160190565b60200190565b5190565b600160a060020a031690565b151590565b7bffffffffffffffffffffffffffffffffffffffffffffffffffffffff191690565b60006108d2826126f9565b82818337506000910152565b60005b8381101561275e578181015183820152602001612746565b838111156113b75750506000910152565b601f01601f1916905600a265627a7a7230582060f1346177568dfcf8a1738036bbcac6f5565ebeb569f75b0db6489e61b056306c6578706572696d656e74616cf50037",
  "source": "pragma solidity ^0.4.24;\npragma experimental ABIEncoderV2;\n\nimport \"./DeveryRegistry.sol\";\nimport \"./SafeMath.sol\";\n\n\n\n\n\n/**\n * @title ERC165\n * @author Matt Condon (@shrugs)\n * @dev Implements ERC165 using a lookup table.\n */\ncontract ERC165 {\n    bytes4 private constant _InterfaceId_ERC165 = 0x01ffc9a7;\n    /**\n     * 0x01ffc9a7 ===\n     *     bytes4(keccak256('supportsInterface(bytes4)'))\n     */\n\n    /**\n     * @dev a mapping of interface id to whether or not it's supported\n     */\n    mapping(bytes4 => bool) private _supportedInterfaces;\n\n    /**\n     * @dev A contract implementing SupportsInterfaceWithLookup\n     * implement ERC165 itself\n     */\n    constructor () internal {\n        _registerInterface(_InterfaceId_ERC165);\n    }\n\n    /**\n     * @dev implement supportsInterface(bytes4) using a lookup table\n     */\n    function supportsInterface(bytes4 interfaceId) external view returns (bool) {\n        return _supportedInterfaces[interfaceId];\n    }\n\n    /**\n     * @dev internal method for registering an interface\n     */\n    function _registerInterface(bytes4 interfaceId) internal {\n        require(interfaceId != 0xffffffff);\n        _supportedInterfaces[interfaceId] = true;\n    }\n}\n\n/**\n * @title ERC721 token receiver interface\n * @dev Interface for any contract that wants to support safeTransfers\n * from ERC721 asset contracts.\n */\ncontract IERC721Receiver {\n    /**\n     * @notice Handle the receipt of an NFT\n     * @dev The ERC721 smart contract calls this function on the recipient\n     * after a `safeTransfer`. This function MUST return the function selector,\n     * otherwise the caller will revert the transaction. The selector to be\n     * returned can be obtained as `this.onERC721Received.selector`. This\n     * function MAY throw to revert and reject the transfer.\n     * Note: the ERC721 contract address is always the message sender.\n     * @param operator The address which called `safeTransferFrom` function\n     * @param from The address which previously owned the token\n     * @param tokenId The NFT identifier which is being transferred\n     * @param data Additional data with no specified format\n     * @return `bytes4(keccak256(\"onERC721Received(address,address,uint256,bytes)\"))`\n     */\n    function onERC721Received(address operator, address from, uint256 tokenId, bytes data) public returns (bytes4);\n}\n\n\n/**\n * Utility library of inline functions on addresses\n */\nlibrary Address {\n    /**\n     * Returns whether the target address is a contract\n     * @dev This function will return false if invoked during the constructor of a contract,\n     * as the code is not actually created until after the constructor finishes.\n     * @param account address of the account to check\n     * @return whether the target address is a contract\n     */\n    function isContract(address account) internal view returns (bool) {\n        uint256 size;\n        // XXX Currently there is no better way to check if there is a contract in an address\n        // than to check the size of the code at that address.\n        // See https://ethereum.stackexchange.com/a/14016/36603\n        // for more details about how this works.\n        // TODO Check this again before the Serenity release, because all addresses will be\n        // contracts then.\n        // solium-disable-next-line security/no-inline-assembly\n        assembly { size := extcodesize(account) }\n        return size > 0;\n    }\n}\n\n\n/**\n * @title ERC-721 Non-Fungible Token Standard, optional enumeration extension\n * @dev See https://eips.ethereum.org/EIPS/eip-721\n */\ncontract IERC721Enumerable {\n    function totalSupply() public view returns (uint256);\n    function tokenOfOwnerByIndex(address owner, uint256 index) public view returns (uint256 tokenId);\n\n    function tokenByIndex(uint256 index) public view returns (uint256);\n}\n\n\n/**\n * @title Counters\n * @author Matt Condon (@shrugs)\n * @dev Provides counters that can only be incremented or decremented by one. This can be used e.g. to track the number\n * of elements in a mapping, issuing ERC721 ids, or counting request ids.\n *\n * Include with `using Counters for Counters.Counter;`\n * Since it is not possible to overflow a 256 bit integer with increments of one, `increment` can skip the SafeMath\n * overflow check, thereby saving gas. This does assume however correct usage, in that the underlying `_value` is never\n * directly accessed.\n */\nlibrary Counters {\n    using SafeMath for uint256;\n\n    struct Counter {\n        // This variable should never be directly accessed by users of the library: interactions must be restricted to\n        // the library's function. As of Solidity v0.5.2, this cannot be enforced, though there is a proposal to add\n        // this feature: see https://github.com/ethereum/solidity/issues/4637\n        uint256 _value; // default: 0\n    }\n\n    function current(Counter storage counter) internal view returns (uint256) {\n        return counter._value;\n    }\n\n    function increment(Counter storage counter) internal {\n        counter._value += 1;\n    }\n\n    function decrement(Counter storage counter) internal {\n        counter._value = counter._value.sub(1);\n    }\n}\n\n/**\n * @title ERC721 Non-Fungible Token Standard basic implementation\n * @dev see https://github.com/ethereum/EIPs/blob/master/EIPS/eip-721.md\n */\ncontract ERC721 is ERC165 {\n\n    event Transfer(address indexed from, address indexed to, uint256 indexed tokenId);\n    event Approval(address indexed owner, address indexed approved, uint256 indexed tokenId);\n    event ApprovalForAll(address indexed owner, address indexed operator, bool approved);\n\n    using SafeMath for uint256;\n    using Address for address;\n    using Counters for Counters.Counter;\n\n    // Equals to `bytes4(keccak256(\"onERC721Received(address,address,uint256,bytes)\"))`\n    // which can be also obtained as `IERC721Receiver(0).onERC721Received.selector`\n    bytes4 private constant _ERC721_RECEIVED = 0x150b7a02;\n\n    // Mapping from token ID to owner\n    mapping (uint256 => address) private _tokenOwner;\n\n    // Mapping from token ID to approved address\n    mapping (uint256 => address) private _tokenApprovals;\n\n    // Mapping from owner to number of owned token\n    mapping (address => Counters.Counter) private _ownedTokensCount;\n\n    // Mapping from owner to operator approvals\n    mapping (address => mapping (address => bool)) private _operatorApprovals;\n\n    /*\n     *     bytes4(keccak256('balanceOf(address)')) == 0x70a08231\n     *     bytes4(keccak256('ownerOf(uint256)')) == 0x6352211e\n     *     bytes4(keccak256('approve(address,uint256)')) == 0x095ea7b3\n     *     bytes4(keccak256('getApproved(uint256)')) == 0x081812fc\n     *     bytes4(keccak256('setApprovalForAll(address,bool)')) == 0xa22cb465\n     *     bytes4(keccak256('isApprovedForAll(address,address)')) == 0xe985e9c\n     *     bytes4(keccak256('transferFrom(address,address,uint256)')) == 0x23b872dd\n     *     bytes4(keccak256('safeTransferFrom(address,address,uint256)')) == 0x42842e0e\n     *     bytes4(keccak256('safeTransferFrom(address,address,uint256,bytes)')) == 0xb88d4fde\n     *\n     *     => 0x70a08231 ^ 0x6352211e ^ 0x095ea7b3 ^ 0x081812fc ^\n     *        0xa22cb465 ^ 0xe985e9c ^ 0x23b872dd ^ 0x42842e0e ^ 0xb88d4fde == 0x80ac58cd\n     */\n    bytes4 private constant _INTERFACE_ID_ERC721 = 0x80ac58cd;\n\n    constructor () public {\n        // register the supported interfaces to conform to ERC721 via ERC165\n        _registerInterface(_INTERFACE_ID_ERC721);\n    }\n\n    /**\n     * @dev Gets the balance of the specified address.\n     * @param owner address to query the balance of\n     * @return uint256 representing the amount owned by the passed address\n     */\n    function balanceOf(address owner) public view returns (uint256) {\n        require(owner != address(0), \"ERC721: balance query for the zero address\");\n\n        return _ownedTokensCount[owner].current();\n    }\n\n    /**\n     * @dev Gets the owner of the specified token ID.\n     * @param tokenId uint256 ID of the token to query the owner of\n     * @return address currently marked as the owner of the given token ID\n     */\n    function ownerOf(uint256 tokenId) public view returns (address) {\n        address owner = _tokenOwner[tokenId];\n        require(owner != address(0), \"ERC721: owner query for nonexistent token\");\n\n        return owner;\n    }\n\n    /**\n     * @dev Approves another address to transfer the given token ID\n     * The zero address indicates there is no approved address.\n     * There can only be one approved address per token at a given time.\n     * Can only be called by the token owner or an approved operator.\n     * @param to address to be approved for the given token ID\n     * @param tokenId uint256 ID of the token to be approved\n     */\n    function approve(address to, uint256 tokenId) public {\n        address owner = ownerOf(tokenId);\n        require(to != owner, \"ERC721: approval to current owner\");\n\n        require(msg.sender == owner || isApprovedForAll(owner, msg.sender),\n            \"ERC721: approve caller is not owner nor approved for all\"\n        );\n\n        _tokenApprovals[tokenId] = to;\n        emit Approval(owner, to, tokenId);\n    }\n\n    /**\n     * @dev Gets the approved address for a token ID, or zero if no address set\n     * Reverts if the token ID does not exist.\n     * @param tokenId uint256 ID of the token to query the approval of\n     * @return address currently approved for the given token ID\n     */\n    function getApproved(uint256 tokenId) public view returns (address) {\n        require(_exists(tokenId), \"ERC721: approved query for nonexistent token\");\n\n        return _tokenApprovals[tokenId];\n    }\n\n    /**\n     * @dev Sets or unsets the approval of a given operator\n     * An operator is allowed to transfer all tokens of the sender on their behalf.\n     * @param to operator address to set the approval\n     * @param approved representing the status of the approval to be set\n     */\n    function setApprovalForAll(address to, bool approved) public {\n        require(to != msg.sender, \"ERC721: approve to caller\");\n\n        _operatorApprovals[msg.sender][to] = approved;\n        emit ApprovalForAll(msg.sender, to, approved);\n    }\n\n    /**\n     * @dev Tells whether an operator is approved by a given owner.\n     * @param owner owner address which you want to query the approval of\n     * @param operator operator address which you want to query the approval of\n     * @return bool whether the given operator is approved by the given owner\n     */\n    function isApprovedForAll(address owner, address operator) public view returns (bool) {\n        return _operatorApprovals[owner][operator];\n    }\n\n    /**\n     * @dev Transfers the ownership of a given token ID to another address.\n     * Usage of this method is discouraged, use `safeTransferFrom` whenever possible.\n     * Requires the msg.sender to be the owner, approved, or operator.\n     * @param from current owner of the token\n     * @param to address to receive the ownership of the given token ID\n     * @param tokenId uint256 ID of the token to be transferred\n     */\n    function transferFrom(address from, address to, uint256 tokenId) public {\n        //solhint-disable-next-line max-line-length\n        require(_isApprovedOrOwner(msg.sender, tokenId), \"ERC721: transfer caller is not owner nor approved\");\n\n        _transferFrom(from, to, tokenId);\n    }\n\n    /**\n     * @dev Safely transfers the ownership of a given token ID to another address\n     * If the target address is a contract, it must implement `onERC721Received`,\n     * which is called upon a safe transfer, and return the magic value\n     * `bytes4(keccak256(\"onERC721Received(address,address,uint256,bytes)\"))`; otherwise,\n     * the transfer is reverted.\n     * Requires the msg.sender to be the owner, approved, or operator\n     * @param from current owner of the token\n     * @param to address to receive the ownership of the given token ID\n     * @param tokenId uint256 ID of the token to be transferred\n     */\n    function safeTransferFrom(address from, address to, uint256 tokenId) public {\n        safeTransferFrom(from, to, tokenId, \"\");\n    }\n\n    /**\n     * @dev Safely transfers the ownership of a given token ID to another address\n     * If the target address is a contract, it must implement `onERC721Received`,\n     * which is called upon a safe transfer, and return the magic value\n     * `bytes4(keccak256(\"onERC721Received(address,address,uint256,bytes)\"))`; otherwise,\n     * the transfer is reverted.\n     * Requires the msg.sender to be the owner, approved, or operator\n     * @param from current owner of the token\n     * @param to address to receive the ownership of the given token ID\n     * @param tokenId uint256 ID of the token to be transferred\n     * @param _data bytes data to send along with a safe transfer check\n     */\n    function safeTransferFrom(address from, address to, uint256 tokenId, bytes memory _data) public {\n        transferFrom(from, to, tokenId);\n        require(_checkOnERC721Received(from, to, tokenId, _data), \"ERC721: transfer to non ERC721Receiver implementer\");\n    }\n\n    /**\n     * @dev Returns whether the specified token exists.\n     * @param tokenId uint256 ID of the token to query the existence of\n     * @return bool whether the token exists\n     */\n    function _exists(uint256 tokenId) internal view returns (bool) {\n        address owner = _tokenOwner[tokenId];\n        return owner != address(0);\n    }\n\n    /**\n     * @dev Returns whether the given spender can transfer a given token ID.\n     * @param spender address of the spender to query\n     * @param tokenId uint256 ID of the token to be transferred\n     * @return bool whether the msg.sender is approved for the given token ID,\n     * is an operator of the owner, or is the owner of the token\n     */\n    function _isApprovedOrOwner(address spender, uint256 tokenId) internal view returns (bool) {\n        require(_exists(tokenId), \"ERC721: operator query for nonexistent token\");\n        address owner = ownerOf(tokenId);\n        return (spender == owner || getApproved(tokenId) == spender || isApprovedForAll(owner, spender));\n    }\n\n    /**\n     * @dev Internal function to mint a new token.\n     * Reverts if the given token ID already exists.\n     * @param to The address that will own the minted token\n     * @param tokenId uint256 ID of the token to be minted\n     */\n    function _mint(address to, uint256 tokenId) internal {\n        require(to != address(0), \"ERC721: mint to the zero address\");\n        require(!_exists(tokenId), \"ERC721: token already minted\");\n\n        _tokenOwner[tokenId] = to;\n        _ownedTokensCount[to].increment();\n\n        emit Transfer(address(0), to, tokenId);\n    }\n\n    /**\n     * @dev Internal function to burn a specific token.\n     * Reverts if the token does not exist.\n     * Deprecated, use _burn(uint256) instead.\n     * @param owner owner of the token to burn\n     * @param tokenId uint256 ID of the token being burned\n     */\n    function _burn(address owner, uint256 tokenId) internal {\n        require(ownerOf(tokenId) == owner, \"ERC721: burn of token that is not own\");\n\n        _clearApproval(tokenId);\n\n        _ownedTokensCount[owner].decrement();\n        _tokenOwner[tokenId] = address(0);\n\n        emit Transfer(owner, address(0), tokenId);\n    }\n\n    /**\n     * @dev Internal function to burn a specific token.\n     * Reverts if the token does not exist.\n     * @param tokenId uint256 ID of the token being burned\n     */\n    function _burn(uint256 tokenId) internal {\n        _burn(ownerOf(tokenId), tokenId);\n    }\n\n    /**\n     * @dev Internal function to transfer ownership of a given token ID to another address.\n     * As opposed to transferFrom, this imposes no restrictions on msg.sender.\n     * @param from current owner of the token\n     * @param to address to receive the ownership of the given token ID\n     * @param tokenId uint256 ID of the token to be transferred\n     */\n    function _transferFrom(address from, address to, uint256 tokenId) internal {\n        require(ownerOf(tokenId) == from, \"ERC721: transfer of token that is not own\");\n        require(to != address(0), \"ERC721: transfer to the zero address\");\n\n        _clearApproval(tokenId);\n\n        _ownedTokensCount[from].decrement();\n        _ownedTokensCount[to].increment();\n\n        _tokenOwner[tokenId] = to;\n\n        emit Transfer(from, to, tokenId);\n    }\n\n    /**\n     * @dev Internal function to invoke `onERC721Received` on a target address.\n     * The call is not executed if the target address is not a contract.\n     * @param from address representing the previous owner of the given token ID\n     * @param to target address that will receive the tokens\n     * @param tokenId uint256 ID of the token to be transferred\n     * @param _data bytes optional data to send along with the call\n     * @return bool whether the call correctly returned the expected magic value\n     */\n    function _checkOnERC721Received(address from, address to, uint256 tokenId, bytes memory _data)\n    internal returns (bool)\n    {\n        if (!to.isContract()) {\n            return true;\n        }\n\n        bytes4 retval = IERC721Receiver(to).onERC721Received(msg.sender, from, tokenId, _data);\n        return (retval == _ERC721_RECEIVED);\n    }\n\n    /**\n     * @dev Private function to clear current approval of a given token ID.\n     * @param tokenId uint256 ID of the token to be transferred\n     */\n    function _clearApproval(uint256 tokenId) private {\n        if (_tokenApprovals[tokenId] != address(0)) {\n            _tokenApprovals[tokenId] = address(0);\n        }\n    }\n}\n\n\n\n\n\n/**\n * @title ERC-721 Non-Fungible Token with optional enumeration extension logic\n * @dev See https://eips.ethereum.org/EIPS/eip-721\n */\ncontract ERC721Enumerable is ERC165, ERC721, IERC721Enumerable {\n    // Mapping from owner to list of owned token IDs\n    mapping(address => uint256[]) private _ownedTokens;\n\n    // Mapping from token ID to index of the owner tokens list\n    mapping(uint256 => uint256) private _ownedTokensIndex;\n\n    // Array with all token ids, used for enumeration\n    uint256[] private _allTokens;\n\n    // Mapping from token id to position in the allTokens array\n    mapping(uint256 => uint256) private _allTokensIndex;\n\n    /*\n     *     bytes4(keccak256('totalSupply()')) == 0x18160ddd\n     *     bytes4(keccak256('tokenOfOwnerByIndex(address,uint256)')) == 0x2f745c59\n     *     bytes4(keccak256('tokenByIndex(uint256)')) == 0x4f6ccce7\n     *\n     *     => 0x18160ddd ^ 0x2f745c59 ^ 0x4f6ccce7 == 0x780e9d63\n     */\n    bytes4 private constant _INTERFACE_ID_ERC721_ENUMERABLE = 0x780e9d63;\n\n    /**\n     * @dev Constructor function.\n     */\n    constructor () public {\n        // register the supported interface to conform to ERC721Enumerable via ERC165\n        _registerInterface(_INTERFACE_ID_ERC721_ENUMERABLE);\n    }\n\n    /**\n     * @dev Gets the token ID at a given index of the tokens list of the requested owner.\n     * @param owner address owning the tokens list to be accessed\n     * @param index uint256 representing the index to be accessed of the requested tokens list\n     * @return uint256 token ID at the given index of the tokens list owned by the requested address\n     */\n    function tokenOfOwnerByIndex(address owner, uint256 index) public view returns (uint256) {\n        require(index < balanceOf(owner), \"ERC721Enumerable: owner index out of bounds\");\n        return _ownedTokens[owner][index];\n    }\n\n    /**\n     * @dev Gets the total amount of tokens stored by the contract.\n     * @return uint256 representing the total amount of tokens\n     */\n    function totalSupply() public view returns (uint256) {\n        return _allTokens.length;\n    }\n\n    /**\n     * @dev Gets the token ID at a given index of all the tokens in this contract\n     * Reverts if the index is greater or equal to the total number of tokens.\n     * @param index uint256 representing the index to be accessed of the tokens list\n     * @return uint256 token ID at the given index of the tokens list\n     */\n    function tokenByIndex(uint256 index) public view returns (uint256) {\n        require(index < totalSupply(), \"ERC721Enumerable: global index out of bounds\");\n        return _allTokens[index];\n    }\n\n    /**\n     * @dev Internal function to transfer ownership of a given token ID to another address.\n     * As opposed to transferFrom, this imposes no restrictions on msg.sender.\n     * @param from current owner of the token\n     * @param to address to receive the ownership of the given token ID\n     * @param tokenId uint256 ID of the token to be transferred\n     */\n    function _transferFrom(address from, address to, uint256 tokenId) internal {\n        super._transferFrom(from, to, tokenId);\n\n        _removeTokenFromOwnerEnumeration(from, tokenId);\n\n        _addTokenToOwnerEnumeration(to, tokenId);\n    }\n\n    /**\n     * @dev Internal function to mint a new token.\n     * Reverts if the given token ID already exists.\n     * @param to address the beneficiary that will own the minted token\n     * @param tokenId uint256 ID of the token to be minted\n     */\n    function _mint(address to, uint256 tokenId) internal {\n        super._mint(to, tokenId);\n\n        _addTokenToOwnerEnumeration(to, tokenId);\n\n        _addTokenToAllTokensEnumeration(tokenId);\n    }\n\n    /**\n     * @dev Internal function to burn a specific token.\n     * Reverts if the token does not exist.\n     * Deprecated, use _burn(uint256) instead.\n     * @param owner owner of the token to burn\n     * @param tokenId uint256 ID of the token being burned\n     */\n    function _burn(address owner, uint256 tokenId) internal {\n        super._burn(owner, tokenId);\n\n        _removeTokenFromOwnerEnumeration(owner, tokenId);\n        // Since tokenId will be deleted, we can clear its slot in _ownedTokensIndex to trigger a gas refund\n        _ownedTokensIndex[tokenId] = 0;\n\n        _removeTokenFromAllTokensEnumeration(tokenId);\n    }\n\n    /**\n     * @dev Gets the list of token IDs of the requested owner.\n     * @param owner address owning the tokens\n     * @return uint256[] List of token IDs owned by the requested address\n     */\n    function _tokensOfOwner(address owner) internal view returns (uint256[] storage) {\n        return _ownedTokens[owner];\n    }\n\n    /**\n     * @dev Private function to add a token to this extension's ownership-tracking data structures.\n     * @param to address representing the new owner of the given token ID\n     * @param tokenId uint256 ID of the token to be added to the tokens list of the given address\n     */\n    function _addTokenToOwnerEnumeration(address to, uint256 tokenId) private {\n        _ownedTokensIndex[tokenId] = _ownedTokens[to].length;\n        _ownedTokens[to].push(tokenId);\n    }\n\n    /**\n     * @dev Private function to add a token to this extension's token tracking data structures.\n     * @param tokenId uint256 ID of the token to be added to the tokens list\n     */\n    function _addTokenToAllTokensEnumeration(uint256 tokenId) private {\n        _allTokensIndex[tokenId] = _allTokens.length;\n        _allTokens.push(tokenId);\n    }\n\n    /**\n     * @dev Private function to remove a token from this extension's ownership-tracking data structures. Note that\n     * while the token is not assigned a new owner, the _ownedTokensIndex mapping is _not_ updated: this allows for\n     * gas optimizations e.g. when performing a transfer operation (avoiding double writes).\n     * This has O(1) time complexity, but alters the order of the _ownedTokens array.\n     * @param from address representing the previous owner of the given token ID\n     * @param tokenId uint256 ID of the token to be removed from the tokens list of the given address\n     */\n    function _removeTokenFromOwnerEnumeration(address from, uint256 tokenId) private {\n        // To prevent a gap in from's tokens array, we store the last token in the index of the token to delete, and\n        // then delete the last slot (swap and pop).\n\n        uint256 lastTokenIndex = _ownedTokens[from].length.sub(1);\n        uint256 tokenIndex = _ownedTokensIndex[tokenId];\n\n        // When the token to delete is the last token, the swap operation is unnecessary\n        if (tokenIndex != lastTokenIndex) {\n            uint256 lastTokenId = _ownedTokens[from][lastTokenIndex];\n\n            _ownedTokens[from][tokenIndex] = lastTokenId; // Move the last token to the slot of the to-delete token\n            _ownedTokensIndex[lastTokenId] = tokenIndex; // Update the moved token's index\n        }\n\n        // This also deletes the contents at the last position of the array\n        _ownedTokens[from].length--;\n\n        // Note that _ownedTokensIndex[tokenId] hasn't been cleared: it still points to the old slot (now occupied by\n        // lastTokenId, or just over the end of the array if the token was the last one).\n    }\n\n    /**\n     * @dev Private function to remove a token from this extension's token tracking data structures.\n     * This has O(1) time complexity, but alters the order of the _allTokens array.\n     * @param tokenId uint256 ID of the token to be removed from the tokens list\n     */\n    function _removeTokenFromAllTokensEnumeration(uint256 tokenId) private {\n        // To prevent a gap in the tokens array, we store the last token in the index of the token to delete, and\n        // then delete the last slot (swap and pop).\n\n        uint256 lastTokenIndex = _allTokens.length.sub(1);\n        uint256 tokenIndex = _allTokensIndex[tokenId];\n\n        // When the token to delete is the last token, the swap operation is unnecessary. However, since this occurs so\n        // rarely (when the last minted token is burnt) that we still do the swap here to avoid the gas cost of adding\n        // an 'if' statement (like in _removeTokenFromOwnerEnumeration)\n        uint256 lastTokenId = _allTokens[lastTokenIndex];\n\n        _allTokens[tokenIndex] = lastTokenId; // Move the last token to the slot of the to-delete token\n        _allTokensIndex[lastTokenId] = tokenIndex; // Update the moved token's index\n\n        // This also deletes the contents at the last position of the array\n        _allTokens.length--;\n        _allTokensIndex[tokenId] = 0;\n    }\n}\n\n\n/**\n * @dev Manages Devery specific ERC721 functionality. We are going to control the ownership of products through the\n * ERC721 specification, so every product ownership can be represented as a non fungible token. Brands\n * might choose to create, mark and mint a ERC721 for every physical unit of a product or create and mark a single\n * product and then mint multiple units of it. This flexibility will make the process of marking low ticket items\n * expenentially cheaper without compromise the security that you get by creating and marking every single product in case\n * of higher ticket items\n *\n * @title DeveryERC721Token\n * @author victor eloy\n */\ncontract DeveryERC721Token is ERC721Enumerable,Admined {\n\n\n    address[] public tokenIdToProduct;\n    mapping(address => uint) public totalAllowedProducts;\n    mapping(address => uint) public totalMintedProducts;\n    DeveryRegistry deveryRegistry;\n    ERC20Interface public token;\n\n    event TokenUpdated(address indexed oldToken, address indexed newToken);\n\n\n    function setToken(address _token) public onlyAdmin {\n        TokenUpdated(address(token), _token);\n        token = ERC20Interface(_token);\n    }\n\n    /**\n      * @dev modifier to enforce that only the brand that created a given product can change it\n      * this modifier will check the core devery registry to fetch the brand address.\n      */\n    modifier brandOwnerOnly(address _productAddress){\n        address productBrandAddress;\n        (,productBrandAddress,,,,,) = deveryRegistry.products(_productAddress);\n        require(productBrandAddress == msg.sender);\n        _;\n    }\n\n    /**\n      * @dev Allow contract admins to set the address of Core Devery Registry contract\n      */\n    function setDeveryRegistryAddress(address _deveryRegistryAddress) external onlyAdmin {\n        deveryRegistry = DeveryRegistry(_deveryRegistryAddress);\n    }\n\n    /**\n      * @dev adjusts the maximum mintable amount of a certain product\n      */\n    function setMaximumMintableQuantity(address _productAddress, uint _quantity) external payable brandOwnerOnly(_productAddress){\n        require(_quantity >= totalMintedProducts[_productAddress] || _quantity == 0);\n        totalAllowedProducts[_productAddress] = _quantity;\n    }\n\n    /**\n     * @dev mint a new ERC721 token for a given product and assing it to the original product brand;\n     */\n    function claimProduct(address _productAddress,uint _quantity) external payable  brandOwnerOnly(_productAddress) {\n        require(totalAllowedProducts[_productAddress] == 0 || totalAllowedProducts[_productAddress] >= totalMintedProducts[_productAddress] + _quantity);\n        //********************************************************************charges the fee****************************************\n        address productBrandAddress;\n        address appAccountAddress;\n        address appFeeAccount;\n        address deveryFeeAccount;\n        uint appFee;\n        uint deveryFee;\n        (,productBrandAddress,,,,,) = deveryRegistry.products(_productAddress);\n        (,appAccountAddress,,) = deveryRegistry.brands(productBrandAddress);\n        (,,appFeeAccount,appFee,) = deveryRegistry.apps(appAccountAddress);\n        deveryFee = deveryRegistry.fee();\n        deveryFeeAccount = deveryRegistry.feeAccount();\n        if (appFee > 0) {\n            token.transferFrom(productBrandAddress, appFeeAccount, appFee*_quantity);\n        }\n        if (deveryFee > 0) {\n            token.transferFrom(productBrandAddress, deveryFeeAccount, deveryFee*_quantity);\n        }\n        //********************************************************************charges the fee****************************************\n        for(uint i = 0;i<_quantity;i++){\n            uint nextId = tokenIdToProduct.push(_productAddress) - 1;\n            _mint(msg.sender,nextId);\n        }\n\n        totalMintedProducts[_productAddress]+=_quantity;\n    }\n\n    /**\n      * @dev returns the products owned by a given ethereum address\n      */\n    function getProductsByOwner(address _owner) external view returns (address[]){\n        address[] memory products = new address[](balanceOf(_owner));\n        uint counter = 0;\n        for(uint i = 0; i < tokenIdToProduct.length;i++){\n            if(ownerOf(i) == _owner){\n                products[counter] = tokenIdToProduct[i];\n                counter++;\n            }\n        }\n        return products;\n    }\n}\n",
  "sourcePath": "/Users/victor/Documents/projects/js/deveryjs/contracts/DeveryERC721Token.sol",
  "compiler": {
    "name": "solc",
    "version": "0.4.26+commit.4563c3fc.Emscripten.clang"
  },
  "schemaVersion": "2.0.3",
  "updatedAt": "2020-03-24T12:15:36.604Z"
}