{
  "contractName": "MetadataDeveryERC721Wrapper",
  "abi": [
    {
      "anonymous": false,
      "inputs": [
        {
          "indexed": false,
          "internalType": "address",
          "name": "addr",
          "type": "address"
        }
      ],
      "name": "AdminAdded",
      "type": "event"
    },
    {
      "anonymous": false,
      "inputs": [
        {
          "indexed": false,
          "internalType": "address",
          "name": "addr",
          "type": "address"
        }
      ],
      "name": "AdminRemoved",
      "type": "event"
    },
    {
      "anonymous": false,
      "inputs": [
        {
          "indexed": true,
          "internalType": "address",
          "name": "owner",
          "type": "address"
        },
        {
          "indexed": true,
          "internalType": "address",
          "name": "approved",
          "type": "address"
        },
        {
          "indexed": true,
          "internalType": "uint256",
          "name": "tokenId",
          "type": "uint256"
        }
      ],
      "name": "Approval",
      "type": "event"
    },
    {
      "anonymous": false,
      "inputs": [
        {
          "indexed": true,
          "internalType": "address",
          "name": "owner",
          "type": "address"
        },
        {
          "indexed": true,
          "internalType": "address",
          "name": "operator",
          "type": "address"
        },
        {
          "indexed": false,
          "internalType": "bool",
          "name": "approved",
          "type": "bool"
        }
      ],
      "name": "ApprovalForAll",
      "type": "event"
    },
    {
      "anonymous": false,
      "inputs": [
        {
          "indexed": true,
          "internalType": "address",
          "name": "_from",
          "type": "address"
        },
        {
          "indexed": true,
          "internalType": "address",
          "name": "_to",
          "type": "address"
        }
      ],
      "name": "OwnershipTransferred",
      "type": "event"
    },
    {
      "anonymous": false,
      "inputs": [
        {
          "indexed": true,
          "internalType": "address",
          "name": "from",
          "type": "address"
        },
        {
          "indexed": true,
          "internalType": "address",
          "name": "to",
          "type": "address"
        },
        {
          "indexed": true,
          "internalType": "uint256",
          "name": "tokenId",
          "type": "uint256"
        }
      ],
      "name": "Transfer",
      "type": "event"
    },
    {
      "inputs": [],
      "name": "acceptOwnership",
      "outputs": [],
      "stateMutability": "nonpayable",
      "type": "function"
    },
    {
      "inputs": [
        {
          "internalType": "address",
          "name": "addr",
          "type": "address"
        }
      ],
      "name": "addAdmin",
      "outputs": [],
      "stateMutability": "nonpayable",
      "type": "function"
    },
    {
      "inputs": [
        {
          "internalType": "address",
          "name": "",
          "type": "address"
        }
      ],
      "name": "admins",
      "outputs": [
        {
          "internalType": "bool",
          "name": "",
          "type": "bool"
        }
      ],
      "stateMutability": "view",
      "type": "function"
    },
    {
      "inputs": [
        {
          "internalType": "address",
          "name": "addr",
          "type": "address"
        }
      ],
      "name": "isAdmin",
      "outputs": [
        {
          "internalType": "bool",
          "name": "",
          "type": "bool"
        }
      ],
      "stateMutability": "nonpayable",
      "type": "function"
    },
    {
      "inputs": [],
      "name": "newOwner",
      "outputs": [
        {
          "internalType": "address",
          "name": "",
          "type": "address"
        }
      ],
      "stateMutability": "view",
      "type": "function"
    },
    {
      "inputs": [],
      "name": "owner",
      "outputs": [
        {
          "internalType": "address",
          "name": "",
          "type": "address"
        }
      ],
      "stateMutability": "view",
      "type": "function"
    },
    {
      "inputs": [
        {
          "internalType": "address",
          "name": "addr",
          "type": "address"
        }
      ],
      "name": "removeAdmin",
      "outputs": [],
      "stateMutability": "nonpayable",
      "type": "function"
    },
    {
      "inputs": [],
      "name": "token",
      "outputs": [
        {
          "internalType": "address",
          "name": "",
          "type": "address"
        }
      ],
      "stateMutability": "view",
      "type": "function"
    },
    {
      "inputs": [],
      "name": "tokenContract",
      "outputs": [
        {
          "internalType": "contract IERC721",
          "name": "",
          "type": "address"
        }
      ],
      "stateMutability": "view",
      "type": "function"
    },
    {
      "inputs": [
        {
          "internalType": "address",
          "name": "_newOwner",
          "type": "address"
        }
      ],
      "name": "transferOwnership",
      "outputs": [],
      "stateMutability": "nonpayable",
      "type": "function"
    },
    {
      "inputs": [
        {
          "internalType": "address",
          "name": "_token",
          "type": "address"
        }
      ],
      "name": "setERC721",
      "outputs": [],
      "stateMutability": "nonpayable",
      "type": "function"
    },
    {
      "inputs": [
        {
          "internalType": "address",
          "name": "owner",
          "type": "address"
        }
      ],
      "name": "balanceOf",
      "outputs": [
        {
          "internalType": "uint256",
          "name": "balance",
          "type": "uint256"
        }
      ],
      "stateMutability": "view",
      "type": "function"
    },
    {
      "inputs": [
        {
          "internalType": "uint256",
          "name": "tokenId",
          "type": "uint256"
        }
      ],
      "name": "ownerOf",
      "outputs": [
        {
          "internalType": "address",
          "name": "owner",
          "type": "address"
        }
      ],
      "stateMutability": "view",
      "type": "function"
    },
    {
      "inputs": [
        {
          "internalType": "address",
          "name": "from",
          "type": "address"
        },
        {
          "internalType": "address",
          "name": "to",
          "type": "address"
        },
        {
          "internalType": "uint256",
          "name": "tokenId",
          "type": "uint256"
        }
      ],
      "name": "transferFrom",
      "outputs": [],
      "stateMutability": "nonpayable",
      "type": "function"
    },
    {
      "inputs": [
        {
          "internalType": "address",
          "name": "to",
          "type": "address"
        },
        {
          "internalType": "uint256",
          "name": "tokenId",
          "type": "uint256"
        }
      ],
      "name": "approve",
      "outputs": [],
      "stateMutability": "nonpayable",
      "type": "function"
    },
    {
      "inputs": [
        {
          "internalType": "uint256",
          "name": "tokenId",
          "type": "uint256"
        }
      ],
      "name": "getApproved",
      "outputs": [
        {
          "internalType": "address",
          "name": "operator",
          "type": "address"
        }
      ],
      "stateMutability": "view",
      "type": "function"
    },
    {
      "inputs": [
        {
          "internalType": "address",
          "name": "operator",
          "type": "address"
        },
        {
          "internalType": "bool",
          "name": "_approved",
          "type": "bool"
        }
      ],
      "name": "setApprovalForAll",
      "outputs": [],
      "stateMutability": "nonpayable",
      "type": "function"
    },
    {
      "inputs": [
        {
          "internalType": "address",
          "name": "owner",
          "type": "address"
        },
        {
          "internalType": "address",
          "name": "operator",
          "type": "address"
        }
      ],
      "name": "isApprovedForAll",
      "outputs": [
        {
          "internalType": "bool",
          "name": "",
          "type": "bool"
        }
      ],
      "stateMutability": "view",
      "type": "function"
    },
    {
      "inputs": [
        {
          "internalType": "address",
          "name": "from",
          "type": "address"
        },
        {
          "internalType": "address",
          "name": "to",
          "type": "address"
        },
        {
          "internalType": "uint256",
          "name": "tokenId",
          "type": "uint256"
        }
      ],
      "name": "safeTransferFrom",
      "outputs": [],
      "stateMutability": "nonpayable",
      "type": "function"
    },
    {
      "inputs": [
        {
          "internalType": "address",
          "name": "from",
          "type": "address"
        },
        {
          "internalType": "address",
          "name": "to",
          "type": "address"
        },
        {
          "internalType": "uint256",
          "name": "tokenId",
          "type": "uint256"
        },
        {
          "internalType": "bytes",
          "name": "data",
          "type": "bytes"
        }
      ],
      "name": "safeTransferFrom",
      "outputs": [],
      "stateMutability": "nonpayable",
      "type": "function"
    },
    {
      "inputs": [
        {
          "internalType": "uint256",
          "name": "tokenId",
          "type": "uint256"
        },
        {
          "internalType": "string",
          "name": "_tokenURI",
          "type": "string"
        }
      ],
      "name": "setTokenURI",
      "outputs": [],
      "stateMutability": "nonpayable",
      "type": "function"
    },
    {
      "inputs": [
        {
          "internalType": "bytes4",
          "name": "interfaceId",
          "type": "bytes4"
        }
      ],
      "name": "supportsInterface",
      "outputs": [
        {
          "internalType": "bool",
          "name": "",
          "type": "bool"
        }
      ],
      "stateMutability": "view",
      "type": "function"
    },
    {
      "inputs": [],
      "name": "name",
      "outputs": [
        {
          "internalType": "string",
          "name": "",
          "type": "string"
        }
      ],
      "stateMutability": "view",
      "type": "function"
    },
    {
      "inputs": [],
      "name": "symbol",
      "outputs": [
        {
          "internalType": "string",
          "name": "",
          "type": "string"
        }
      ],
      "stateMutability": "view",
      "type": "function"
    },
    {
      "inputs": [
        {
          "internalType": "uint256",
          "name": "tokenId",
          "type": "uint256"
        }
      ],
      "name": "tokenURI",
      "outputs": [
        {
          "internalType": "string",
          "name": "",
          "type": "string"
        }
      ],
      "stateMutability": "view",
      "type": "function"
    }
  ],
  "bytecode": "0x608060405234801561001057600080fd5b50600080546001600160a01b0319163317905561113d806100326000396000f3fe608060405234801561001057600080fd5b50600436106101735760003560e01c80636352211e116100de578063a22cb46511610097578063d4ee1d9011610071578063d4ee1d90146105be578063e985e9c5146105c6578063f2fde38b146105f4578063fc0c546a1461061a57610173565b8063a22cb465146104e3578063b88d4fde14610511578063c87b56dd146105a157610173565b80636352211e14610450578063704802751461046d57806370a082311461049357806379ba5097146104cb5780638da5cb5b146104d357806395d89b41146104db57610173565b80631785f53c116101305780631785f53c1461036a57806323b872dd1461039057806324d7806c146103c657806342842e0e146103ec578063429b62e51461042257806355a373d61461044857610173565b806301ffc9a71461017857806306fdde03146101b3578063081812fc14610230578063094144a514610269578063095ea7b314610291578063162094c4146102bd575b600080fd5b61019f6004803603602081101561018e57600080fd5b50356001600160e01b031916610622565b604080519115158252519081900360200190f35b6101bb610628565b6040805160208082528351818301528351919283929083019185019080838360005b838110156101f55781810151838201526020016101dd565b50505050905090810190601f1680156102225780820380516001836020036101000a031916815260200191505b509250505060405180910390f35b61024d6004803603602081101561024657600080fd5b503561064c565b604080516001600160a01b039092168252519081900360200190f35b61028f6004803603602081101561027f57600080fd5b50356001600160a01b03166106cb565b005b61028f600480360360408110156102a757600080fd5b506001600160a01b038135169060200135610709565b61028f600480360360408110156102d357600080fd5b813591908101906040810160208201356401000000008111156102f557600080fd5b82018360208201111561030757600080fd5b8035906020019184600183028401116401000000008311171561032957600080fd5b91908080601f0160208091040260200160405190810160405280939291908181526020018383808284376000920191909152509295506107f4945050505050565b61028f6004803603602081101561038057600080fd5b50356001600160a01b0316610867565b61028f600480360360608110156103a657600080fd5b506001600160a01b038135811691602081013590911690604001356108fb565b61019f600480360360208110156103dc57600080fd5b50356001600160a01b03166109ef565b61028f6004803603606081101561040257600080fd5b506001600160a01b03813581169160208101359091169060400135610a29565b61019f6004803603602081101561043857600080fd5b50356001600160a01b0316610aad565b61024d610ac2565b61024d6004803603602081101561046657600080fd5b5035610ad1565b61028f6004803603602081101561048357600080fd5b50356001600160a01b0316610b1e565b6104b9600480360360208110156104a957600080fd5b50356001600160a01b0316610bd0565b60408051918252519081900360200190f35b61028f610c34565b61024d610caf565b6101bb610cbe565b61028f600480360360408110156104f957600080fd5b506001600160a01b0381351690602001351515610cde565b61028f6004803603608081101561052757600080fd5b6001600160a01b0382358116926020810135909116916040820135919081019060808101606082013564010000000081111561056257600080fd5b82018360208201111561057457600080fd5b8035906020019184600183028401116401000000008311171561059657600080fd5b509092509050610d5e565b6101bb600480360360208110156105b757600080fd5b5035610eb2565b61024d610f53565b61019f600480360360408110156105dc57600080fd5b506001600160a01b0381358116916020013516610f62565b61028f6004803603602081101561060a57600080fd5b50356001600160a01b0316610ff0565b61024d611029565b50600190565b60408051808201909152600a81526911195d995c9e4813919560b21b602082015290565b600480546040805163020604bf60e21b8152928301849052516000926001600160a01b039092169163081812fc916024808301926020929190829003018186803b15801561069957600080fd5b505afa1580156106ad573d6000803e3d6000fd5b505050506040513d60208110156106c357600080fd5b505192915050565b6106d4336109ef565b6106dd57600080fd5b600380546001600160a01b039092166001600160a01b0319928316811790915560048054909216179055565b600354604080516001600160a01b038581166024830152604480830186905283518084039091018152606490920183526020820180516001600160e01b031663095ea7b360e01b178152925182516000956060959316939282918083835b602083106107865780518252601f199092019160209182019101610767565b6001836020036101000a038019825116818451168082178552505050505050905001915050600060405180830381855af49150503d80600081146107e6576040519150601f19603f3d011682016040523d82523d6000602084013e6107eb565b606091505b50505050505050565b336107fe83610ad1565b6001600160a01b0316146108435760405162461bcd60e51b815260040180806020018281038252602e8152602001806110da602e913960400191505060405180910390fd5b6000828152600560209081526040909120825161086292840190611038565b505050565b6000546001600160a01b0316331461087e57600080fd5b6001600160a01b03811660009081526002602052604090205460ff166108a357600080fd5b6001600160a01b038116600081815260026020908152604091829020805460ff19169055815192835290517fa3b62bc36326052d97ea62d63c3d60308ed4c3ea8ac079dd8499f1e9c4f80c0f9281900390910190a150565b600354604080516001600160a01b0386811660248301528581166044830152606480830186905283518084039091018152608490920183526020820180516001600160e01b03166323b872dd60e01b178152925182516000956060959316939282918083835b602083106109805780518252601f199092019160209182019101610961565b6001836020036101000a038019825116818451168082178552505050505050905001915050600060405180830381855af49150503d80600081146109e0576040519150601f19603f3d011682016040523d82523d6000602084013e6109e5565b606091505b5050505050505050565b6001600160a01b03811660009081526002602052604081205460ff1680610a2357506000546001600160a01b038381169116145b92915050565b600354604080516001600160a01b0386811660248301528581166044830152606480830186905283518084039091018152608490920183526020820180516001600160e01b0316632142170760e11b17815292518251600095606095931693928291808383602083106109805780518252601f199092019160209182019101610961565b60026020526000908152604090205460ff1681565b6004546001600160a01b031681565b60048054604080516331a9108f60e11b8152928301849052516000926001600160a01b0390921691636352211e916024808301926020929190829003018186803b15801561069957600080fd5b6000546001600160a01b03163314610b3557600080fd5b6001600160a01b03811660009081526002602052604090205460ff16158015610b6c57506000546001600160a01b03828116911614155b610b7557600080fd5b6001600160a01b038116600081815260026020908152604091829020805460ff19166001179055815192835290517f44d6d25963f097ad14f29f06854a01f575648a1ef82f30e562ccd3889717e3399281900390910190a150565b6000600460009054906101000a90046001600160a01b03166001600160a01b03166370a08231836040518263ffffffff1660e01b815260040180826001600160a01b0316815260200191505060206040518083038186803b15801561069957600080fd5b6001546001600160a01b03163314610c4b57600080fd5b600154600080546040516001600160a01b0393841693909116917f8be0079c531659141344cd1fd0a4f28419497f9722a3daafe3b4186f6b6457e091a360018054600080546001600160a01b03199081166001600160a01b03841617909155169055565b6000546001600160a01b031681565b60408051808201909152600681526511559153919560d21b602082015290565b600354604080516001600160a01b03858116602483015284151560448084019190915283518084039091018152606490920183526020820180516001600160e01b031663a22cb46560e01b17815292518251600095606095931693928291808383602083106107865780518252601f199092019160209182019101610767565b60006060600360009054906101000a90046001600160a01b03166001600160a01b0316878787878760405160240180866001600160a01b03168152602001856001600160a01b0316815260200184815260200180602001828103825284848281815260200192508082843760008382015260408051601f909201601f1990811690940182810390940182529283526020810180516001600160e01b0316635c46a7ef60e11b17815292518151919a5098508897509195509093508392508591508490505b60208310610e415780518252601f199092019160209182019101610e22565b6001836020036101000a038019825116818451168082178552505050505050905001915050600060405180830381855af49150503d8060008114610ea1576040519150601f19603f3d011682016040523d82523d6000602084013e610ea6565b606091505b50505050505050505050565b60008181526005602090815260409182902080548351601f6002600019610100600186161502019093169290920491820184900484028101840190945280845260609392830182828015610f475780601f10610f1c57610100808354040283529160200191610f47565b820191906000526020600020905b815481529060010190602001808311610f2a57829003601f168201915b50505050509050919050565b6001546001600160a01b031681565b600480546040805163e985e9c560e01b81526001600160a01b0386811694820194909452848416602482015290516000939092169163e985e9c591604480820192602092909190829003018186803b158015610fbd57600080fd5b505afa158015610fd1573d6000803e3d6000fd5b505050506040513d6020811015610fe757600080fd5b50519392505050565b6000546001600160a01b0316331461100757600080fd5b600180546001600160a01b0319166001600160a01b0392909216919091179055565b6003546001600160a01b031681565b828054600181600116156101000203166002900490600052602060002090601f01602090048101928261106e57600085556110b4565b82601f1061108757805160ff19168380011785556110b4565b828001600101855582156110b4579182015b828111156110b4578251825591602001919060010190611099565b506110c09291506110c4565b5090565b5b808211156110c057600081556001016110c556fe4f6e6c7920746865206f776e6572206f66206120746f6b656e2063616e2073657420697473206d65746164617461a2646970667358221220b91782fc004abb850f6a33353af044174c9b3eba48b7eb07771c6e732ab000f264736f6c63430007040033",
  "immutableReferences": {},
  "source": "pragma solidity >=0.6.0 <0.8.4;\n\n\n// ----------------------------------------------------------------------------\n// Owned contract\n// ----------------------------------------------------------------------------\ncontract Owned {\n\n    address public owner;\n    address public newOwner;\n\n    event OwnershipTransferred(address indexed _from, address indexed _to);\n\n    modifier onlyOwner {\n        require(msg.sender == owner);\n        _;\n    }\n\n    constructor() public {\n        owner = msg.sender;\n    }\n    function transferOwnership(address _newOwner) public onlyOwner {\n        newOwner = _newOwner;\n    }\n    function acceptOwnership() public {\n        require(msg.sender == newOwner);\n        emit OwnershipTransferred(owner, newOwner);\n        owner = newOwner;\n        newOwner = address(0);\n    }\n}\n\n\n// ----------------------------------------------------------------------------\n// Administrators\n// ----------------------------------------------------------------------------\ncontract Admined is Owned {\n\n    mapping (address => bool) public admins;\n\n    event AdminAdded(address addr);\n    event AdminRemoved(address addr);\n\n    modifier onlyAdmin() {\n        require(isAdmin(msg.sender));\n        _;\n    }\n\n    function isAdmin(address addr) public returns (bool) {\n        return (admins[addr] || owner == addr);\n    }\n    function addAdmin(address addr) public onlyOwner {\n        require(!admins[addr] && addr != owner);\n        admins[addr] = true;\n        emit AdminAdded(addr);\n    }\n    function removeAdmin(address addr) public onlyOwner {\n        require(admins[addr]);\n        delete admins[addr];\n        emit AdminRemoved(addr);\n    }\n}\n\n\n\ninterface IERC165 {\n    /**\n     * @dev Returns true if this contract implements the interface defined by\n     * `interfaceId`. See the corresponding\n     * https://eips.ethereum.org/EIPS/eip-165#how-interfaces-are-identified[EIP section]\n     * to learn more about how these ids are created.\n     *\n     * This function call must use less than 30 000 gas.\n     */\n    function supportsInterface(bytes4 interfaceId) external view returns (bool);\n}\n\n\ninterface IERC721 is IERC165 {\n    /**\n     * @dev Emitted when `tokenId` token is transferred from `from` to `to`.\n     */\n    event Transfer(address indexed from, address indexed to, uint256 indexed tokenId);\n\n    /**\n     * @dev Emitted when `owner` enables `approved` to manage the `tokenId` token.\n     */\n    event Approval(address indexed owner, address indexed approved, uint256 indexed tokenId);\n\n    /**\n     * @dev Emitted when `owner` enables or disables (`approved`) `operator` to manage all of its assets.\n     */\n    event ApprovalForAll(address indexed owner, address indexed operator, bool approved);\n\n    /**\n     * @dev Returns the number of tokens in ``owner``'s account.\n     */\n    function balanceOf(address owner) external view returns (uint256 balance);\n\n    /**\n     * @dev Returns the owner of the `tokenId` token.\n     *\n     * Requirements:\n     *\n     * - `tokenId` must exist.\n     */\n    function ownerOf(uint256 tokenId) external view returns (address owner);\n\n    /**\n     * @dev Safely transfers `tokenId` token from `from` to `to`, checking first that contract recipients\n     * are aware of the ERC721 protocol to prevent tokens from being forever locked.\n     *\n     * Requirements:\n     *\n     * - `from` cannot be the zero address.\n     * - `to` cannot be the zero address.\n     * - `tokenId` token must exist and be owned by `from`.\n     * - If the caller is not `from`, it must be have been allowed to move this token by either {approve} or {setApprovalForAll}.\n     * - If `to` refers to a smart contract, it must implement {IERC721Receiver-onERC721Received}, which is called upon a safe transfer.\n     *\n     * Emits a {Transfer} event.\n     */\n    function safeTransferFrom(address from, address to, uint256 tokenId) external;\n\n    /**\n     * @dev Transfers `tokenId` token from `from` to `to`.\n     *\n     * WARNING: Usage of this method is discouraged, use {safeTransferFrom} whenever possible.\n     *\n     * Requirements:\n     *\n     * - `from` cannot be the zero address.\n     * - `to` cannot be the zero address.\n     * - `tokenId` token must be owned by `from`.\n     * - If the caller is not `from`, it must be approved to move this token by either {approve} or {setApprovalForAll}.\n     *\n     * Emits a {Transfer} event.\n     */\n    function transferFrom(address from, address to, uint256 tokenId) external;\n\n    /**\n     * @dev Gives permission to `to` to transfer `tokenId` token to another account.\n     * The approval is cleared when the token is transferred.\n     *\n     * Only a single account can be approved at a time, so approving the zero address clears previous approvals.\n     *\n     * Requirements:\n     *\n     * - The caller must own the token or be an approved operator.\n     * - `tokenId` must exist.\n     *\n     * Emits an {Approval} event.\n     */\n    function approve(address to, uint256 tokenId) external;\n\n    /**\n     * @dev Returns the account approved for `tokenId` token.\n     *\n     * Requirements:\n     *\n     * - `tokenId` must exist.\n     */\n    function getApproved(uint256 tokenId) external view returns (address operator);\n\n    /**\n     * @dev Approve or remove `operator` as an operator for the caller.\n     * Operators can call {transferFrom} or {safeTransferFrom} for any token owned by the caller.\n     *\n     * Requirements:\n     *\n     * - The `operator` cannot be the caller.\n     *\n     * Emits an {ApprovalForAll} event.\n     */\n    function setApprovalForAll(address operator, bool _approved) external;\n\n    /**\n     * @dev Returns if the `operator` is allowed to manage all of the assets of `owner`.\n     *\n     * See {setApprovalForAll}\n     */\n    function isApprovedForAll(address owner, address operator) external view returns (bool);\n\n    /**\n      * @dev Safely transfers `tokenId` token from `from` to `to`.\n      *\n      * Requirements:\n      *\n      * - `from` cannot be the zero address.\n      * - `to` cannot be the zero address.\n      * - `tokenId` token must exist and be owned by `from`.\n      * - If the caller is not `from`, it must be approved to move this token by either {approve} or {setApprovalForAll}.\n      * - If `to` refers to a smart contract, it must implement {IERC721Receiver-onERC721Received}, which is called upon a safe transfer.\n      *\n      * Emits a {Transfer} event.\n      */\n    function safeTransferFrom(address from, address to, uint256 tokenId, bytes calldata data) external;\n}\n\ninterface IERC721Metadata is IERC721 {\n\n    /**\n     * @dev Returns the token collection name.\n     */\n    function name() external view returns (string memory);\n\n    /**\n     * @dev Returns the token collection symbol.\n     */\n    function symbol() external view returns (string memory);\n\n    /**\n     * @dev Returns the Uniform Resource Identifier (URI) for `tokenId` token.\n     */\n    function tokenURI(uint256 tokenId) external view returns (string memory);\n}\n\n\ncontract MetadataDeveryERC721Wrapper is IERC721, IERC721Metadata, Admined{\n\n\n    address public token;\n    IERC721 public tokenContract;\n    mapping (uint256 => string) private _tokenURIs;\n\n    function setERC721(address _token) public onlyAdmin {\n        token = _token;\n        tokenContract = IERC721(_token);\n    }\n\n    function balanceOf(address owner) public virtual override  view returns  (uint256 balance){\n        return tokenContract.balanceOf(owner);\n    }\n\n    function ownerOf(uint256 tokenId) public virtual override view returns (address owner){\n        return tokenContract.ownerOf(tokenId);\n    }\n\n    function safeTransferFrom(address from, address to, uint256 tokenId) public virtual override{\n          (bool success, bytes memory data) = token.delegatecall(\n            abi.encodeWithSignature(\"safeTransferFrom(address,address,uint256)\", from,to, tokenId)\n        );\n    }\n\n    function transferFrom(address from, address to, uint256 tokenId )public virtual override{\n         (bool success, bytes memory data) = token.delegatecall(\n            abi.encodeWithSignature(\"transferFrom(address,address,uint256)\", from,to, tokenId)\n        );\n    }\n\n    function approve(address to, uint256 tokenId)public virtual override{\n     (bool success, bytes memory data) = token.delegatecall(\n            abi.encodeWithSignature(\"approve(address,uint256)\",to, tokenId)\n        );\n    }\n\n    function getApproved(uint256 tokenId) public virtual override view returns (address operator){\n        return tokenContract.getApproved(tokenId);\n    }\n\n    function setApprovalForAll(address operator, bool _approved) public virtual override{\n         (bool success, bytes memory data) = token.delegatecall(\n            abi.encodeWithSignature(\"setApprovalForAll(address,bool)\",operator, _approved)\n        );\n    }\n\n    function isApprovedForAll(address owner, address operator) public virtual override view returns (bool){\n        return tokenContract.isApprovedForAll(owner, operator);\n    }\n\n    function safeTransferFrom(address from, address to, uint256 tokenId, bytes calldata data) public virtual override{\n         (bool success, bytes memory data) = token.delegatecall(\n            abi.encodeWithSignature(\"safeTransferFrom(address,address,uint256,bytes)\",from, to, tokenId, data)\n        );\n    }\n\n    function setTokenURI(uint256 tokenId, string memory _tokenURI) public virtual {\n        require(ownerOf(tokenId) == msg.sender, \"Only the owner of a token can set its metadata\");\n        _tokenURIs[tokenId] = _tokenURI;\n    }\n\n\n    function supportsInterface(bytes4 interfaceId)  public virtual override view returns (bool){\n        return true;\n    }\n\n    function name()  public virtual override view  returns (string memory){\n        return \"Devery NFT\";\n    }\n    \n    function symbol()  public virtual override view  returns (string memory){\n        return \"EVENFT\";\n    }\n    \n    function tokenURI(uint256 tokenId) public virtual override view returns (string memory){\n        return _tokenURIs[tokenId];\n    }\n}",
  "sourcePath": "/Users/victor/Documents/projects/js/deveryjs/contracts/v6/MetadataDeveryERC721Wrapper.sol",
  "compiler": {
    "name": "solc",
    "version": "0.7.4+commit.3f05b770.Emscripten.clang"
  },
  "schemaVersion": "3.4.0",
  "updatedAt": "2021-06-03T13:52:43.707Z",
  "devdoc": {
    "kind": "dev",
    "methods": {
      "approve(address,uint256)": {
        "details": "Gives permission to `to` to transfer `tokenId` token to another account. The approval is cleared when the token is transferred. Only a single account can be approved at a time, so approving the zero address clears previous approvals. Requirements: - The caller must own the token or be an approved operator. - `tokenId` must exist. Emits an {Approval} event."
      },
      "balanceOf(address)": {
        "details": "Returns the number of tokens in ``owner``'s account."
      },
      "getApproved(uint256)": {
        "details": "Returns the account approved for `tokenId` token. Requirements: - `tokenId` must exist."
      },
      "isApprovedForAll(address,address)": {
        "details": "Returns if the `operator` is allowed to manage all of the assets of `owner`. See {setApprovalForAll}"
      },
      "name()": {
        "details": "Returns the token collection name."
      },
      "ownerOf(uint256)": {
        "details": "Returns the owner of the `tokenId` token. Requirements: - `tokenId` must exist."
      },
      "safeTransferFrom(address,address,uint256)": {
        "details": "Safely transfers `tokenId` token from `from` to `to`, checking first that contract recipients are aware of the ERC721 protocol to prevent tokens from being forever locked. Requirements: - `from` cannot be the zero address. - `to` cannot be the zero address. - `tokenId` token must exist and be owned by `from`. - If the caller is not `from`, it must be have been allowed to move this token by either {approve} or {setApprovalForAll}. - If `to` refers to a smart contract, it must implement {IERC721Receiver-onERC721Received}, which is called upon a safe transfer. Emits a {Transfer} event."
      },
      "safeTransferFrom(address,address,uint256,bytes)": {
        "details": "Safely transfers `tokenId` token from `from` to `to`. Requirements: - `from` cannot be the zero address. - `to` cannot be the zero address. - `tokenId` token must exist and be owned by `from`. - If the caller is not `from`, it must be approved to move this token by either {approve} or {setApprovalForAll}. - If `to` refers to a smart contract, it must implement {IERC721Receiver-onERC721Received}, which is called upon a safe transfer. Emits a {Transfer} event."
      },
      "setApprovalForAll(address,bool)": {
        "details": "Approve or remove `operator` as an operator for the caller. Operators can call {transferFrom} or {safeTransferFrom} for any token owned by the caller. Requirements: - The `operator` cannot be the caller. Emits an {ApprovalForAll} event."
      },
      "supportsInterface(bytes4)": {
        "details": "Returns true if this contract implements the interface defined by `interfaceId`. See the corresponding https://eips.ethereum.org/EIPS/eip-165#how-interfaces-are-identified[EIP section] to learn more about how these ids are created. This function call must use less than 30 000 gas."
      },
      "symbol()": {
        "details": "Returns the token collection symbol."
      },
      "tokenURI(uint256)": {
        "details": "Returns the Uniform Resource Identifier (URI) for `tokenId` token."
      },
      "transferFrom(address,address,uint256)": {
        "details": "Transfers `tokenId` token from `from` to `to`. WARNING: Usage of this method is discouraged, use {safeTransferFrom} whenever possible. Requirements: - `from` cannot be the zero address. - `to` cannot be the zero address. - `tokenId` token must be owned by `from`. - If the caller is not `from`, it must be approved to move this token by either {approve} or {setApprovalForAll}. Emits a {Transfer} event."
      }
    },
    "version": 1
  },
  "userdoc": {
    "kind": "user",
    "methods": {},
    "version": 1
  }
}