{
  "contractName": "SimpleAirdrop",
  "abi": [
    {
      "constant": true,
      "inputs": [],
      "name": "token",
      "outputs": [
        {
          "name": "",
          "type": "address"
        }
      ],
      "payable": false,
      "stateMutability": "view",
      "type": "function"
    },
    {
      "inputs": [
        {
          "name": "_tokenAddr",
          "type": "address"
        }
      ],
      "payable": false,
      "stateMutability": "nonpayable",
      "type": "constructor"
    },
    {
      "constant": false,
      "inputs": [],
      "name": "getAirdrop",
      "outputs": [],
      "payable": false,
      "stateMutability": "nonpayable",
      "type": "function"
    }
  ],
  "bytecode": "0x608060405234801561001057600080fd5b506040516020806101f0833981016040525160008054600160a060020a03909216600160a060020a031990921691909117905561019e806100526000396000f30060806040526004361061004b5763ffffffff7c0100000000000000000000000000000000000000000000000000000000600035041663d25f82a08114610050578063fc0c546a14610067575b600080fd5b34801561005c57600080fd5b506100656100a5565b005b34801561007357600080fd5b5061007c610156565b6040805173ffffffffffffffffffffffffffffffffffffffff9092168252519081900360200190f35b60008054604080517fa9059cbb00000000000000000000000000000000000000000000000000000000815233600482015268056bc75e2d631000006024820152905173ffffffffffffffffffffffffffffffffffffffff9092169263a9059cbb926044808401936020939083900390910190829087803b15801561012857600080fd5b505af115801561013c573d6000803e3d6000fd5b505050506040513d602081101561015257600080fd5b5050565b60005473ffffffffffffffffffffffffffffffffffffffff16815600a165627a7a723058204108976f1d3f78f02442bf6dbddda62d0801bf63b96f5218402d5a42cdcbf9b80029",
  "source": "/**\n *Submitted for verification at Etherscan.io on 2021-03-02\n*/\n\npragma solidity ^0.4.18;\n\n//Made to Stackexchange question\n\ncontract ERC20 {\n    function transfer(address _to, uint256 _value)public returns(bool);\n    function balanceOf(address tokenOwner)public view returns(uint balance);\n    function transferFrom(address from, address to, uint tokens)public returns(bool success);\n\n}\n\ncontract SimpleAirdrop {\n\n      ERC20 public token;\n\n    function SimpleAirdrop(address _tokenAddr) public {\n        token = ERC20(_tokenAddr);\n    }\n\n  function getAirdrop() public {\n    token.transfer(msg.sender, 100000000000000000000); //18 decimals token\n  }\n}",
  "sourcePath": "/Users/victor/Documents/projects/js/deveryjs/contracts/v4/Airdrop.sol",
  "compiler": {
    "name": "solc",
    "version": "0.4.26+commit.4563c3fc.Emscripten.clang"
  },
  "schemaVersion": "3.4.0",
  "updatedAt": "2021-05-02T23:00:33.280Z",
  "devdoc": {
    "methods": {}
  },
  "userdoc": {
    "methods": {}
  }
}